:020000022000DC
:1070000000000420757302005D7302005F730200CC
:1070100061730200637302006573020000000000E8
:107020000000000000000000000000006773020084
:1070300069730200000000006B7302006D730200B0
:107040007DA502006F7302001DAA02006F7302008B
:107050006F7302006F730200A1A802006F73020039
:107060006F7302006F7302006F7302006F73020090
:107070006F73020045AB02006F7302006F73020072
:107080006F730200C98202006F7302006F73020007
:107090006F7302006F7302003D2803006F730200DC
:1070A0006F7302006F7302006F7302006F73020050
:1070B0006F7302006F730200000000000000000008
:1070C0006F7302006F7302006F7302006F73020030
:1070D0006F7302006F7302006F7302006F73020020
:1070E0006F7302006F7302006D5803000000000010
:1070F000000000006F730200000000006F730200C8
:10710000000000000000000000000000000000007F
:10711000000000000000000000000000000000006F
:10712000000000000000000000000000000000005F
:10713000000000000000000000000000000000004F
:10714000000000000000000000000000000000003F
:10715000000000000000000000000000000000002F
:10716000000000000000000000000000000000001F
:10717000000000000000000000000000000000000F
:1071800000000000000000000000000000000000FF
:1071900000000000000000000000000000000000EF
:1071A00000000000000000000000000000000000DF
:1071B00000000000000000000000000000000000CF
:1071C00000000000000000000000000000000000BF
:1071D00000000000000000000000000000000000AF
:1071E000000000000000000000000000000000009F
:1071F000000000000000000000000000000000008F
:10720000354936480A1A02D0072291438D4634493F
:1072100034480A1A06D00722914381F309880222D2
:1072200082F3148830483149314A00F044F831483B
:107230003149324A00F03FF831483249324A00F0D1
:107240003AF832483249334A00F035F83248334987
:10725000334A00F030F833483349344A00F02BF811
:1072600033483449344A00F026F83448344900227F
:1072700000F02CF833483449002200F027F8334856
:107280003349091A082902DB002202604160314AB1
:1072900090471F481F49884205D00268043003B454
:1072A000904703BCF7E700208646EC46002000210B
:1072B000294A9047FEE7884207D0521A05D0037842
:1072C00001300B700131013AF9D17047884202D088
:1072D00002700130FAE770470000042000E003204C
:1072E0000000042000000420CCEB0300F42B00205D
:1072F0005C2C0020D0730200D07302008C95030038
:10730000CCEB0300F42B0020F42B00206897030043
:107310006897030068970300689703006897030065
:10732000689703006897030068970300CCEB03009D
:1073300034EC03005C2C00205C2C00205C2C002032
:10734000206C0020206C0020206C0020206C00208D
:10735000208C00209D73020079C80200FEE7FEE742
:10736000FEE7FEE7FEE7FEE7FEE7FEE7FEE7FEE7F5
:1073700000F002B8FFF7FCBF0F484FF00701884349
:1073800085460E4880470E48016841F4700101604F
:10739000BFF34F8FBFF36F8FFFF732BF09480A4922
:1073A0000A4A884207D0521A05D0037801300B7080
:1073B0000131013AF9D1704700000420ADCC020040
:1073C00088ED00E054970300E02B0020F42B002010
:1073D0001F288ABF094B4FF0A04300F01F0003EBAA
:1073E0008000D0F8003723F44033C0F80037D0F8DD
:1073F000003743EA0141C0F800177047000300500E
:10740000022004F0F1B800002DE9F04780460D4657
:1074100004F018F90328044610D8012D10D0022DCD
:1074200030D05DB91A4800F008FD1A4B04EB440255
:1074300013449D78184B1B5DAB4219D0BDE8F08713
:10744000144E00EB4003F218F55C5378470053B13B
:10745000DFF84C900E484A464FF4804100F0D5FCCE
:1074600008B989F8008027443E440B4BB2781A557E
:10747000002DE3D0094B1B68002BDFD02846BDE868
:10748000F047184700EB4004024804446578EFE7F2
:10749000802C0020C02C0020D92C0020D42C0020CF
:1074A0005C2C002000780221FFF7AEBF08B5094B25
:1074B0001B7853B1002004F065F8012004F062F855
:1074C000BDE80840032004F05DB8BDE8084004F0C2
:1074D0006DB800BF5D2C0020F8B57A4C23780546C6
:1074E0001BB100232370FFF7E1FF172D00F2878007
:1074F000DFE805F00C1717425364757F878C878C83
:10750000949999999999C3C8D0D8E3E3FFF7CEFF2E
:107510006D4800F092FC6D4B002204461A70204624
:10752000F8BD002004F006F8F0B1002004F02AF8BD
:10753000022D0CBF4FF4E1644FF47A64634B1D706D
:1075400000254FF400464FF47A7029464FF4FA6252
:107550000023E4FB06010BF0EBFA2A460146BDE8E6
:10756000F840594800F051BC03F0F8FF022D0CBF61
:10757000C8244FF4C874E1E7002003F0DBFF40B1FA
:10758000002003F0FFFF4FF44874504B03221A70A1
:10759000D6E703F0E3FFC824F7E7002003F0CAFFB3
:1075A00038B1002003F0EEFF4FF47A64474B042219
:1075B000EDE703F0D3FF4FF4C874F7E7002003F0C2
:1075C000B9FF48B1002003F0DDFF404B05221A70DF
:1075D00040F6CD410022C2E703F0C0FFF5E70020EE
:1075E00004F002F8394B06221A70002240F266615C
:1075F000B5E7002003F0B2FF344B07221A700024D5
:107600008DE70120207003F0EFFFEEE701202070EE
:1076100003F0EAFF00224FF40051A0E703F0D5FF8A
:107620002A4B0C22EAE72A482A4E00F006FCD5F144
:10763000110504461CD0D8B9012D13D0C8204543EC
:1076400021464FF400474FF47A704FF4FA6200235A
:10765000C5FB07010BF06CFA224601461C4800F0FE
:10766000D4FB0446022003F079FF0123337056E770
:10767000022003F087FF0023F8E7FFF717FF134B03
:107680001222BBE7FFF712FF002003F067FF0F4B4A
:107690001322B3E7FFF70AFF012003F05FFF0B4B54
:1076A0001422ABE7FFF702FF002003F057FF012091
:1076B00003F054FF054B1522A0E703F086FF034BB0
:1076C0001D709CE7D02C0020A02C0020D82C00207E
:1076D000602C00205D2C0020044B1B68DB0703D5C9
:1076E000034B1878FFF7F8BE704700BFCC2C002082
:1076F000D82C0020032801D803F090BF0020704749
:10770000044B1B6813F0010301D0FFF7E5BE1846D8
:10771000704700BFCC2C002038B51C4B18601C4BA8
:1077200010F00204054619601AD01A4B1A480E22AE
:107730001A700F22DA7010229A7111225A720421E3
:1077400040F2333200F0F8F9044648B900F04CFA40
:10775000044628B90146114A114800F04BFB044683
:10776000EB0711D5012003F085FF6CB921460D4AC6
:107770000D4800F03FFB044630B9BDE838400B4AE5
:107780000B48012100F036BB204638BDCC2C002030
:10779000D42C0020C02C002068970300A5740200A0
:1077A0008C970300D97602009097030001740200C1
:1077B00088970300032811D8012A0AD101290FD183
:1077C00000F10E02D2B20D4B00EB40001A54002023
:1077D00070470129F7D0022904D049B1072070472A
:1077E0000022F8E7054B00EB400018444270EEE73A
:1077F000024B00EB400018448270E8E7C02C0020E8
:10780000032808B506D803F02FFF0321FFF7E0FD9A
:10781000002008BD0620FCE708B501220221002057
:10782000FFF7C8FF08B1072810D107220221012065
:10783000FFF7C0FF08B1072808D100210A22084637
:10784000FFF7B8FF10B1072808BF002008BD0000EF
:107850000388102B10B502D0112B1ED010BD1A4C6E
:107860002168B1B901220846FFF7A4FF08B1072833
:1078700024D1072202210120FFF79CFF08B107282D
:107880001CD1042202210020FFF794FF08B1072831
:1078900014D1236801332360E0E70B4A1368013BEE
:1078A0001360002BDAD1FFF7B7FF0028D6D0074BC3
:1078B0001B68002BD2D0BDE810401847034B1B6853
:1078C000002BE6D09847E4E7E42C0020E02C0020D1
:1078D00008B50020FFF794FF08B1062806D1012063
:1078E000FFF78EFF10B1062808BF002008BD00007A
:1078F0000D4B10B518600C4629B10120FFF7FAFEB8
:1079000040B102232370094B1B6853B9BDE81040F6
:10791000FFF782BFFFF7EEFE08B10B23F2E72070FE
:10792000F1E7002010BD00BFE02C0020E42C002077
:10793000C30710B507D4F023054A4008145C234060
:107940001943115410BD0901C9B20F23F4E700BF58
:10795000182D002030B5094B1C78094B19680023FD
:107960009C4202DC0022104630BD11F833508542A3
:1079700001EBC302F7D00133F2E700BFE82C00208F
:10798000382D002013B504460191FFF7E3FF38B10D
:1079900043682BB10199204602B0BDE8104018475A
:1079A00002B010BD034B044819680022490800F0DA
:1079B0002CBA00BFEC2C0020F02C002010B5C0B277
:1079C000FFF7C8FF0446007802F05CFF63785A1E98
:1079D00053425341834208D1044BD3E9002313435C
:1079E00003D1BDE81040FFF7DDBF10BD102D002012
:1079F00037B54308374AD35CC2074CBF1B0903F0B5
:107A00000F0304460D46042B25D8DFE803F00326B8
:107A10002F3C4000F9B10121FFF78AFF00230DF14F
:107A200007008DF8073000F0E1FA0120A4F12003EF
:107A3000C4F12001284A20FA01F100FA03F30B43B4
:107A4000A040D2E9004120430B43C2E900039DF866
:107A5000070000F0EFFA03B030BD002918BF022183
:107A6000204603B0BDE83040FFF762BF49B10321B3
:107A7000FFF75EFF0121204603B0BDE83040FFF76D
:107A800081BF0121ECE70029E5D10421E8E709B134
:107A90000321E5E7FFF74CFF29462046FFF772FF79
:107AA0000DF107008DF8075000F0A0FA0120A4F1B5
:107AB0002003C4F12001084A20FA01F100FA03F37F
:107AC0000B43A040D2E9004124EA000021EA03036D
:107AD000BBE700BF182D0020102D00202DE9F0413C
:107AE000124E134F00243378A34208DC114BD3E924
:107AF0000023134318D0BDE8F041FFF753BF3D68A2
:107B000005EBC40815F8340002F0BCFE98F801300B
:107B10005A1E53425341181A4142414115F834004C
:107B2000FFF766FF0134DEE7BDE8F081E82C0020B6
:107B3000382D0020102D0020092AF7B505460C46E7
:107B400016463ED902F0C6FDE8B11F4B1F481D6026
:107B50001F4B204F1C70204B002120221E600BF079
:107B600029F91E4B00200021C3E90001013CE4B2C9
:107B70000326FF2C0DD11A4A1A48002103B0BDE894
:107B8000F04000F037B902F05FFD0028DDD003B00F
:107B9000F0BD9DF8063015F834008DF8046005EB53
:107BA000C40223F007038DF8063001A993788DF8FD
:107BB00005303A4602F098FD013CE4B20028D8D0E6
:107BC000E5E70720E3E700BF382D0020182D00204F
:107BD000E82C0020BD790200EC2C0020102D0020A4
:107BE000DD7A0200A097030070B5084D084E00240E
:107BF0002B789C4201D3002070BD3368012113F81B
:107C0000340002F0F1FD0134F2E700BFE82C00205F
:107C1000382D00201FB50021039001AA44F2010075
:107C2000CDE9011100F004F805B05DF804FB000097
:107C300038B572B604F0D8F803F028FF0028FBD15D
:107C4000104B114C114D1249E41AE408240444F07D
:107C5000010004F065F8D5F8F030DB0700D500BE70
:107C60000C4944F0020004F05BF8BFF34F8FEA6860
:107C7000094B02F4E0621343EB60BFF34F8F00BF88
:107C8000FDE700BF4C9603007C96030000ED00E08A
:107C9000A4970300B09703000400FA0510B5D0E9DB
:107CA0000243D1E90202A04272EB03032CBF012080
:107CB000002010BD08B50A4800F0EFFA094AD2E9E1
:107CC0000031C018084BD3E9002341F10001904274
:107CD00071EB030303D210F1807041F1000108BD84
:107CE000F42B0020402D0020B82D002037B505468C
:107CF0000C460A4801A901F08EFA60B10570446093
:107D000001A9064801F0B1FA18B1054800F0CAFA15
:107D1000002003B030BD0420FBE700BFA42D0020ED
:107D2000F42B002038B5184B1B78044613B90025F6
:107D3000284638BD0028FAD0037F03F0FF05002B4A
:107D4000F5D0FFF7B7FFD4E90223904271EB0303AC
:107D500014D3236903B92377D4E9053098472169FF
:107D60000029E4D0237F03F0FF05002BDFD0D4E906
:107D700002325B1842F10002C4E902320348214694
:107D800002F0E2F9D4E700BF482D0020CC970300B1
:107D900013B5114B11491868019008231048582257
:107DA00001F004FA044698B90E4A0F4801A900F000
:107DB00065F9044660B90C48012100F051FA01232D
:107DC0000A4A0948194600F0B3F9094B01221A7012
:107DD000204602B010BD00BFC89703004C2D002004
:107DE000A42D00205D7E0200F42B0020FFFF7F0009
:107DF000482D00203AB103685A614A1E5142514150
:107E00001961002070470720704738B5037F04468A
:107E10000D4683B98261FFF74DFF2369281841F1B0
:107E20000001C4E9020103B1256121460020BDE83B
:107E30003840FFF75BBF002038BD002301460377C1
:107E40000120FFF753BF401A20F07F407047000029
:107E5000014800F022BA00BFF42B00202DE9F347BF
:107E6000064600F005FA40B1584AD2E9003113F154
:107E7000807341F10001C2E900310021304600F079
:107E800006FA38B1524C236823B12068FFF74AFF45
:107E9000002323600121304600F0F9F920B1FFF7FB
:107EA00009FF4C4BC3E900014B48494D4B4C4C4F2B
:107EB00001A901F0EAF9002842D1DFF82081444C01
:107EC000DFF82491404602F055F92368002872D06B
:107ED0007BB12368D0E90252D3E902138D4272EBE1
:107EE00003032AD223681B7F1BB12168404602F09E
:107EF0002BF9404602F038F9D0E9027A0546FFF73F
:107F0000D9FE381A6AEB010A01287AF1000345DB31
:107F1000B0F5350F40D3FFF79BFF324A02444FF4D0
:107F200096030021484600F023F900283ED123683B
:107F300013B9304600F0F4F8256002B0BDE8F087D0
:107F40000378012B1DD0022B09D14FF000082046E9
:107F500002F00AF9002836D080F81C80F7E73BB918
:107F600041680B7F23B901230B77204602F0ECF820
:107F700001A9194801F0B4F901A9174801F085F9E0
:107F800099E741682B68994202D100232B60EFE703
:107F9000204602F0F2F8EBE7AA68C0E70021484665
:107FA00000F06BF92846FFF7BDFE01E00D28F9D07F
:107FB0000023236086E7002BBFD1304602B0BDE826
:107FC000F04700F0B1B801233B70D1E7402D00200D
:107FD000C02D0020B82D0020A42D0020CC97030038
:107FE000482D0020FFFFB400F42B002070B5EFF304
:107FF000108672B60C4A946801239CB993600B4BAF
:108000000B4DD3F8801029401160C3F88050D3F88D
:10801000841051604FF0FF32C3F88420047006B919
:1080200062B670BD0370FAE7C42D002000E100E0E5
:10803000FC06FFBD084B9A6810B55AB150B9EFF372
:10804000108172B6054A1C6814605C6854609860C0
:1080500001B962B610BD00BFC42D002000E100E0F0
:10806000435882B03BB10023435043580193019BD6
:10807000012002B070471846FBE70000F8B5204B1E
:108080004479204E43F824201F4A204B06EBC404B9
:108090009B1A2279DB081B0432B143F002001C4911
:1080A00003F03EFE0820F8BD02680C88C2F80845BF
:1080B00090F904508A7804795201002DD2B219DB6C
:1080C00014494F1987F8002301226D0904F01F0499
:1080D00002FA04F441F82540427906EBC20101247A
:1080E00046F832000C7143F003000B4903F018FE10
:1080F0000020D8E7094904F00F040A55ECE700BF57
:10810000D82D0020D02D00204C9603008C96030023
:10811000D897030000E100E0FA97030014ED00E0B7
:10812000036801221A607047036801225A60704791
:1081300073B501F15005AD000068ADB24FF4803465
:108140008C400026C0F80843C0F84843465101F56A
:10815000A8714559019522F07F42019D40F82120E8
:10816000C0F844430BB1C0F8044302B070BD000036
:108170002DE9F74F0D4622F07F4402684FF4803717
:1081800005F150068F408046B60002EB8500C2F82C
:108190004873B6B2C2F80873D2F8041599464FF086
:1081A000000BD0F84035C0F8401542F806B05B1A15
:1081B0009259009223F07F43012B009A4FEA850ADF
:1081C0000CD1264B4FF4806043F001039847D8F858
:1081D000003043F806B09B590193019BD8F800107A
:1081E000D1F80465C1F84473A31B23F07F43012B2E
:1081F0001CD11A4B05F5A875013443F0010341F871
:1082000025404FF480609847D8F80030D3F8043503
:108210009E4209D1D8F800300020C3F84473C3F857
:10822000047303B0BDE8F08F0D20FAE78A44C9F16A
:10823000FF13CAF84045D1F80405221A013A22F08A
:108240007F4203F57F439342EED3002AE2D101340B
:10825000CAF84045D1F804359842DAE7109803008F
:1082600003680222C3F8442309B1C3F8042370470A
:1082700000684FF48271FFF7F3BE4FF4803303FAC6
:1082800001F10368C3F84813C3F80813704750316D
:108290008900006889B2FFF7E3BE0368D3F80405DC
:1082A0007047000090F90430002B09DB5A090121C6
:1082B00003F01F0301FA03F34032024941F8223070
:1082C000704700BF00E100E0024B034A1B681068E2
:1082D000184700BFD82D0020D02D002070B5064DC6
:1082E0000646002455F8043B0BB13046984701344C
:1082F000042CF7D170BD00BFE82D00204388033364
:1083000000EB830399420BD382884FF6FF739A42A6
:1083100008D0038833B18068431C584258417047E5
:108320000220704701207047033080B240F2FE33D4
:10833000984230B51FD8134B1A783AB91C895D8919
:108340002C440444A4B2B4F5806F0AD91A7DAAB9AA
:108350009A8BDC8B2244024492B2B2F5806F0DD826
:1083600001220A801446142202FB04335A89104465
:108370005881002030BD48F20860FBE748F20660F3
:10838000F8E700BF1C2E00200B4A0C49538814202C
:1083900000FB0311CB6833B9042049681070012237
:1083A000074801F061BB07490523137002238B8046
:1083B000012209680023F3E7002E00201C2E002074
:1083C000E02B0020E42E002007B500230549009390
:1083D000054A09680548082301F0ACFA03B05DF8C6
:1083E00004FB00BFE42E002024980300E02B0020B3
:1083F00007B5002301460093034A0448082301F00F
:1084000099FA03B05DF804FB1C980300E02B0020F0
:1084100013B500230C4600930146084A084804237C
:1084200001F088FA38B9074B142101FB043101230C
:108430000B7402B010BD48F20D60FAE71898030003
:10844000E02B00201C2E002037B50A480A4B42685A
:108450009C88196853880325033305709BB200205C
:1084600000909B0001EB8401044801F063FA03B023
:1084700030BD00BF002E0020E42E0020E02B0020A5
:1084800010B50146044800F0C6FE1C220446002137
:108490000AF090FC204610BDD02E002068B1026882
:1084A000084B9A4209D14068074B984207D00133E4
:1084B000984214BF0320012070470320704700201A
:1084C000704700BFDEC0ADDEFE011EF12DE9F041B8
:1084D0000D460223154F2B80164600F5805100F102
:1084E00008044FF001088C420ED2236801330BD0F0
:1084F0002046FFF703FF48B10EB186F8008002283E
:1085000009D14FF480632B80BDE8F081A3683A68FD
:10851000934200D93B602B886288033313442B803D
:108520006388033304EB8304DDE700BF142E0020CF
:1085300038B5144B14220D4602FB00302B684468FA
:1085400004F58051A3B15C88033403EB84048C42AE
:1085500015D22368013312D02046FFF7CFFE012841
:1085600008D002280BD00028F1D12C60012038BDA2
:108570000834ECE76388033304EB8304E7E7002067
:10858000F5E700BF1C2E0020426873B504460D4677
:108590006AB3234BD9688A4229D31B699A4226D8E9
:1085A00012F0030323D11F490089098988421ED193
:1085B0002068916888421AD11B4841688A4203D9D1
:1085C00001F580518A420DD381698A420CD901F5A7
:1085D00080518A4208D201222A80B3FA83F04009EE
:1085E00002B070BD1A46F7E748F20963F5E70026C6
:1085F0002E800196288801A9FFF79AFF30B92B88B1
:1086000001339BB2012B2B80F3D9E9E7019B226850
:1086100099689142EED16360024B1B892381DFE7A9
:10862000E02B0020002E00201C2E00202DE9F84316
:108630001C461D4B1B7806460F46154673B382B386
:108640007CB3DFF86C804FF01409A388012B02D9AA
:1086500048F2096020E009FB03F318F803302BB956
:10866000A0882146FFF764FF20B92060A38801336A
:10867000A380EAE723681EB1998832889142EFD13E
:108680001FB119883A889142EAD19A68C5E9002356
:10869000064B1B892B810020BDE8F88348F201605E
:1086A000FAE748F20460F7E7F82D0020002E0020DA
:1086B0001C2E002008B5074B5888191DFFF738FFFE
:1086C00018B1BDE80840FFF7BFBEBDE80840FFF79E
:1086D0005BBE00BF002E00202DE9F047A24FDFF85F
:1086E000AC8288B006463B6823B9A048414600F0FA
:1086F000CCFD38603D6829784B1E052B07D8DFE894
:1087000013F020007A007A000C010C01640148F299
:108710000E641422002103A80AF04CFB41F61D53FD
:108720009C4208BF00243B6804941A78023A042A49
:1087300000F20282DFE812F0E301EF0111021902F8
:1087400020022EB18A4B00225A604FF40644E0E723
:108750002B79032B1CD8DFE803F014022A35854A55
:108760001378022B1AD0137D022B4FF0010317D17F
:1087700014214B43D1180020D0544868FFF738FE2D
:1087800003E001232B71FFF71FFE002800F0BF80DC
:10879000774B00225A6048F20D64BAE70023E7E7FE
:1087A000734A13700023536041F61D54B1E77249B8
:1087B0007248002302222B718A800968012201F08D
:1087C00053F9E2E76C4C00262E712068FFF710FE8B
:1087D0006B4BDFF8A0C15B882568142253430CEB78
:1087E00003020CF8036051685560A58815810222C8
:1087F0002160A280C9E7B5F814A0AA7DDFF87491C2
:10880000AEB1022AEB8806D9142101FB0A91DA1CC9
:10881000088902440A81142202FB0A99C3F57F43A6
:10882000B9F80A20FD331344A9F80A308DE7142360
:1088300003FB0A9318895C6804EB8004062A69D854
:10884000DFE802F0274E36441D5A040041F61D545D
:10885000AA7DEB88022A06D9142101FB0A91DA1CB1
:10886000088902440A81142202FB0A99C3F57F4356
:10887000B9F80A20FD331344A9F80A3049E7414802
:10888000414900234360AB690360FFF77DFE002888
:108890005BD00223AB75002300930423EA18214622
:1088A000364801F047F8002831D048F20D64CFE790
:1088B0002B69002B14BF03230123AB750023009306
:1088C00005F10C02042304F10801E9E70123AB756B
:1088D0000022EB8800922A699B0004F10C01DFE77B
:1088E00003290CBF05230623AB7500230093042343
:1088F00005F10802E118D3E70623AB75224B19886E
:10890000204B5868FFF784FD04460028A0D108B02A
:10891000BDE8F08748F20E649AE7002E7FF415AFA9
:108920002B79012B34D0022B3FF43EAF002B7FF488
:10893000EEAE02232B710DF10A01EB68039303A83D
:10894000CDE90466FFF720FE10B948F20964E0E6BD
:108950000498BDF80A108388EB8003882B81FFF709
:1089600057FD044627E000BF182E0020D02E00201F
:10897000F82D00201C2E0020E42E0020E02B0020EB
:10898000002E0020DC2D0020F02E0020102E0020D4
:108990007B4B03AA3146A81DFFF748FE784B0446DF
:1089A00068B999880498FFF733FD044648F20963D3
:1089B0009C423FF4F9AE002C7FF4ABAEA7E708224F
:1089C000314618460AF0F6F9F0E7002E7FF4BDAE06
:1089D0006C4B1A7BB2B11E731A78013A062A3FF625
:1089E00096AE01A151F822F0938A0200B98A0200E2
:1089F000D78A0200DD8A02000F870200E38A0200A4
:108A0000F58A02001A78072AE6D801A151F822F067
:108A1000318A0200D9890200D9890200578A0200EE
:108A20006B8A02008F8A02008F8A0200538A02003A
:108A30001A89554901321A8100225A801A730A781C
:108A4000B2FA82F252099A720A7DB2FA82F252099D
:108A5000DA72012207E04D4958688A88408803325B
:108A600002448A8002221A70B6E75C88464A474967
:108A7000142505FB0422086854685060888810811A
:108A800002200C608880002111740622EBE7072287
:108A9000E9E79A7A32B9DA7A8AB900221A705A80EA
:108AA0005A6081E6384900229A72CA68002AF2D1D7
:108AB000097C0029EFD05A80FFF7FCFD51E7002226
:108AC000DA72314A116A0029E7D192F82420002A8B
:108AD000E3D00122EFE7FFF7B7FC42E7FFF754FCD2
:108AE0003FE75A88284B142101FB02335868FFF7EF
:108AF0007FFC36E700225A60FFF766FC31E701226F
:108B00008DF80C201A89ADF818209A88DB68ADF82A
:108B10001A20059310E002228DF80C201A89ADF876
:108B200018209A88ADF81A20DA689B7D05929A1F62
:108B3000534253418DF81C3003A8FFF7CFFB0026AA
:108B4000414613483E6000F0CBFB1248012100F083
:108B500081FC00287FF4C7ADD9E603228DF80C20F4
:108B6000DA88ADF818201A89D0E704228DF80C2095
:108B7000DB88ADF81830DFE705238DF80C30DBE734
:108B8000F42E0020002E00201C2E0020E42E0020B9
:108B9000D02E0020E02E00204068FFF79DBD000091
:108BA00008B50548012100F03DFC18B9BDE80840B2
:108BB000FFF792BD08BD00BFE02E00202DE9F34174
:108BC0009846374B1B7806460D46002B5CD0002993
:108BD0005DD009884FF6FF7399425BD06B88002BFC
:108BE00058D06B689B0758D14AB92F890DF1020103
:108BF0003846FFF799FB30B102B0BDE8F081138829
:108C00005788ADF8023001A8FFF73AFC044660B976
:108C1000BDF80220234B142101FB0233588903388D
:108C2000C01B588148F20760E6E780F80080002307
:108C30008375BDF8023083826B68036101211A4895
:108C400000F0FCFB2B882381B8F1030F6B88A38015
:108C500004BF0423A3754FF0000508BF3368E0602C
:108C600008BFA3611148E780658101A900F0FDFA02
:108C700036B1E36833600E4B75601B89B572338182
:108C8000FFF78EFF0020B7E748F20160B4E748F233
:108C90000460B1E748F20360AEE748F20260ABE778
:108CA000F82D00201C2E0020142E0020D02E002095
:108CB000002E002008B5034607480268042A08D0A1
:108CC0000168064A42F82130012100F0B7FB00207C
:108CD00008BD48F20B60FBE7EC2E0020E82D0020D9
:108CE0002DE9F04F89B01422002103A80AF062F8A0
:108CF0007A4B1B7803F0FF0B3BB103A8FFF7EEFAAA
:108D00000027384609B0BDE8F08F744B181D00F0FD
:108D1000ADFB0028F4D1DBF8F83FDFF8E0A15C1CE4
:108D200008BF4FF010234FF0805208BF5B691169F4
:108D30005269581C08BF02FB01F3CAF81030684999
:108D4000A3F5405300225046CAF80C3000F0C0FD95
:108D500007460028D5D11C2362496348DFF8A0915B
:108D60008C2200F023FA0323B8463D4601933C468B
:108D7000DAF80C6046443046FFF790FB012862D0D9
:108D8000032817D000283DD158494FF0140C0CFB94
:108D900004FC01EB0C0201F80C0056600CF110020F
:108DA0000CF1080C0A4430466144FFF78FFB45F094
:108DB000020545E03268531C02D04D4B9A4234D133
:108DC000321D06F58051106801302ED104329142D7
:108DD000F9D1D9F800203AB90222C9F80060A9F8FF
:108DE00004204FF0010B0BE0142262433F4B0220A2
:108DF000991898543F4A4E60548001340881A4B2B7
:108E000045F0010508F58058B8F5405FB0D1019BE9
:108E1000012B98BF0025EDB2022D03D0062D32D0D4
:108E2000002D39D148F20A676BE7019B2F495A1E82
:108E300093B2142262438818019346600320885439
:108E40000134A4B2DEE7BBF1000F0DD0274B142292
:108E50006243991802209854D9F800204A60254AA4
:108E6000088154800134A4B200222349C9F800606B
:108E70003046FFF72BFBB9F80420022A0CBF04226E
:108E800008221543BEE7154A0123137003A80023E7
:108E90005360FFF723FA34E702A8FFF7F1FAC8B1ED
:108EA0000123013D03700A2D09D8DFE805F006080B
:108EB0000608070807080F110F000023037102A915
:108EC000094800F0D2F9FFF76BFE1AE70323F5E734
:108ED0000223F3E748F2076713E700BFF82D0020ED
:108EE000209A0300442E0020D02E00201C2E0020AB
:108EF000DEC0ADDE002E0020E82E0020E02B00209A
:108F0000E42E002073B50D460446C8B1C1B10DF181
:108F10000601FFF739FBB0B1BDF806300B486668B3
:108F2000142202FB030001210C3000F087FA636871
:108F30002E600C336B600123A372002002B070BD61
:108F400048F20460FAE748F20960F7E71C2E0020B7
:108F500013B50446A8B10DF10601FFF715FB98B152
:108F6000BDF806200B4B142101FB0233DA6872B105
:108F7000A27A62B1DA680020013ADA60A07202B027
:108F800010BD48F20460FAE748F20960F7E748F2DA
:108F90000560F4E71C2E002002230022FFF70EBE1E
:108FA00018B103230022FFF709BE48F2046070479E
:108FB000114B1B7813B50446ABB14FF6FF739842C3
:108FC00014D001A8FFF75CFA98B1052303700123C0
:108FD0000371C48001A9094800F047F9FFF7E0FDDB
:108FE000002002B010BD48F20160FAE748F20360C9
:108FF000F7E748F20760F4E7F82D0020D02E0020B4
:109000000F4B1B7807B5A3B101A8FFF739FA98B148
:109010000623037001A90B4800F027F90A4B1A78C0
:109020000AB101221A73FFF7BBFD002003B05DF8FF
:1090300004FB48F20160F9E748F20760F6E700BF79
:10904000F82D0020D02E0020002E002007B5ADF80E
:109050000600ADF804100DF1060001A9FFF7E6FACD
:1090600003B05DF804FB07B51346ADF806000A46E9
:1090700000200DF10601FFF7D9FA03B05DF804FBFB
:1090800007B51346ADF806000A460DF106000021AB
:10909000FFF7CCFA03B05DF804FB20B119B1036807
:1090A0000B600020704748F2046070472DE9F84FCC
:1090B0003C4B1B780446002B6DD000286ED0DFF8A7
:1090C000E8901222002109F075FE032323804FF05F
:1090D000000A4F4614264FF00108D9F80410B9F8D9
:1090E0000AB0B9F808500846FFF7D8F9032808BFB6
:1090F0002388628804BF03F1FF33238006FB0A73D1
:109100005D44DB681344638023899B446389A4F82E
:1091100008B0ADB22B446381C5F58065A389ADB2BB
:10912000AB4238BFA58101F1080501F58051A94284
:1091300029D92B68013326D02846FFF7DFF801280C
:109140000AD0022815D00028F1D1A3880133A380CA
:109150000AE04FF0010AC0E7E3880133E380E389C6
:109160006A8803331344E3816B88033305EB83057B
:10917000DDE7E38884F810804D1BE189013301EBC2
:10918000A501E380E18109F11409BAF1000FE0D0F3
:109190000020BDE8F88F48F20160FAE748F2046069
:1091A000F7E700BFF82D00201C2E002010B561B19C
:1091B000B2FBF3F403FB1424A4B244B9C0E90014D5
:1091C00084608281C381204610BD0E20FCE7092007
:1091D000FAE782B050E8022FC188B2EB324F4FF06D
:1091E000000317BF92B241EA014142EA014104E0A3
:1091F0004268B2EB324F08BF012340E80212002A56
:10920000E8D18DF807309DF80730002B0CBF1120F6
:10921000002002B0704737B550E8013F9DB2C489C5
:1092200025448489A54228BF2D1B0489A54202BF7D
:10923000BFF32F8F002207E0C5EA030540E8015481
:10924000002CE9D14FF001028DF803200193019A1F
:109250000A609DF8031001F0FF0321B1006810FAC5
:1092600082F003B030BD1846FBE70A884B889A426B
:1092700009D150E8012FC2EA024240E80123002B45
:10928000F7D1012070470020704737B550E8023F02
:109290001FFAA3F5C488A54202BFBFF32F8F002297
:1092A0000DE0C48925448489A54228BF2D1BC3EA4B
:1092B000054540E80254002CE8D14FF001028DF83A
:1092C00003200193019A0A609DF8031001F0FF0347
:1092D00021B1006800EB124003B030BD1846FBE737
:1092E0000A884B889A4209D150E8022FC2EA2242EA
:1092F00040E80223002BF7D101207047002070477F
:1093000001F01F024B090121914000EB830000F0A6
:1093100065B84B0910B501F01F040121A14000EB15
:10932000830000F04FF8E04000F0010010BD01F0B4
:109330001F0301229A404B0900EB8300D14300F048
:1093400065B84B0901F01F0150F82300C84000F038
:10935000010070472DE9F0474F1E7F0980460E46F9
:109360000137002558F8254008EB8509E44394FAB5
:10937000A4F4B4FA84F44FEA451A202C06D101353E
:10938000AF42EFD834462046BDE8F0875444A642A9
:10939000F5D921464046FFF7BCFF0028F3D0D9F8A5
:1093A0000040E44394FAA4F4B4FA84F4E5E710B579
:1093B000034653E8000F0A4643E8002494F0000FE8
:1093C000F7D110BD10B5034653E8000F40EA010283
:1093D00043E8002494F0000FF6D110BD10B5034609
:1093E00053E8002F42EA010043E8000494F0000F24
:1093F000F6D110BD10B5034653E8000F00EA010294
:1094000043E8002494F0000FF6D110BD10B50346D8
:1094100053E8002F02EA010043E8000494F0000F33
:10942000F6D110BD10B5034653E8000F00EB010262
:1094300043E8002494F0000FF6D110BD10B50346A8
:1094400053E8002F02EB010043E8000494F0000F02
:10945000F6D110BD10B5034653E8002FA2EB010072
:1094600043E8000494F0000FF6D110BD0121FFF78E
:10947000A9BF0121FFF7B2BF0021FFF7BBBF10B5A5
:1094800090B1D0E9012301689B1ADBB20A60013B6D
:10949000DBB2FF2B026802D10020107110BD1168F1
:1094A0004C1C14600B70F2E70E20F7E737B5054649
:1094B00000240DF107008DF80740FEF797FD2A689C
:1094C0006B68116899420ED9481E106011F8013C72
:1094D000EC68298A01FB0344AB6811791B1ADBB2E3
:1094E000994238BF13719DF80700FEF7A3FD20468F
:1094F00003B030BD37B5054600230DF107000C461B
:109500008DF80730FEF772FD2A681368591C116048
:10951000E968641A298AB4FBF1F41C709DF807000D
:10952000FEF788FD03B030BD826810B504462AB14D
:1095300043690168006998470023A36010BD0EB419
:1095400003B5039921B104AB01AA019300F076F8A9
:1095500002B05DF804EB03B070470A2938B5044641
:109560000D4602D10D21FFF7F8FFA3682268591CB0
:10957000A160D554D4E901329A4204D32046BDE813
:109580003840FFF7D1BF38BD2DE9F84F9846DDE9E7
:109590000A43154682460F460A464FF00109AA4281
:1095A0000FD2C14538BFC14613F0010B01D16CB9D0
:1095B00000240126B8F1010F1BD908F1FF386E43D2
:1095C000F8E709F10109B2FBF5F2E8E79B070ED5D0
:1095D000B8F1000F0CBF30262026A145E9D2013C8E
:1095E00031465046FFF7B9FF002CF6D1E0E72026C0
:1095F000F3E7B7FBF6F39D42E1D9DFF83C80B7FB18
:10960000F6F3504618F8031006FB1377FFF7A5FF93
:109610003346AB42B6FBF5F6F1D2BBF1000F02D0F8
:109620000CB1A14501D3BDE8F88F20215046013C83
:10963000FFF793FFF4E700BF359803002DE9F74FDC
:10964000054617468846002900F03E8118F8011BA0
:1096500049B92B7B002B00F03781284603B0BDE8C9
:10966000F04FFFF761BF252940F0B780002698F83A
:1096700000302D2B424608F1010823D0302B24D096
:109680002B2B25D000242A2B02F1010123D13B688A
:109690001A1D1B683A601C440A4613782E2B26D1EB
:1096A00001324FF0000A104610F8011BA1F1300CF6
:1096B000BCF1090F1DD80A2303FB0A13A3F1300ADA
:1096C0000246F0E746F00106D1E746F00206CEE793
:1096D00046F00406CBE711F8013CA3F1300009285D
:1096E000DBD80A2202FB0434303C0A46CBE74FF0B9
:1096F000000A12F8011B01F0FB0068289046F8D020
:10970000782909D86F290CD8632962D022D8252955
:1097100063D0582900F0888098F80030002B95D14C
:1097200097E770390829F7D801A353F821F000BF53
:10973000A3980200199702001997020039980200B5
:109740001997020017980200199702001997020052
:1097500029980200642901D06929DDD13A68D2F83C
:109760000090111D89EAE9723960A2EBE9724FF0AD
:10977000010B092A35DCD34538BFD3462CB1B9F1EA
:10978000000F01DB720700D5013CB30702D5BAF127
:10979000000F03D0F00701D44CBB0024B9F1000F37
:1097A0002DDAC9F100092D212846FFF7D6FE06F073
:1097B0000302022A04D1BAF1000F01D11CBB00241C
:1097C000CDE9004653460A2249462846FFF7DCFE0B
:1097D000A2E73B681A1D19783A602846FFF7BDFEDC
:1097E0009AE70A230BF1010BB2FBF3F2C1E7A345A1
:1097F000D4D220212846013CFFF7AFFECCE7710709
:10980000D5D52B21D0E7A345DAD230212846013C1B
:10981000FFF7A3FED2E73968CDE900460A1D3A609A
:1098200053460A220968D0E739680A1D3A60CDE933
:10983000004653461022F5E73B681A1D3A6016F0C1
:109840000106D3F8009024D1B9F1000F03D04846A7
:1098500009F0E3FA0646B4421DD809F1FF3919F8B8
:10986000011F00293FF458AF2846FFF776FEF6E7C0
:1098700028460136FFF771FE19F806100029F7D1C6
:10988000A642BFF449AF20212846013CFFF765FE00
:10989000F6E70026F0E720212846013CFFF75DFEB1
:1098A000D9E73B681A1D3A60302128461C68FFF74B
:1098B00054FE78212846FFF750FE00220823CDE908
:1098C00000322146102280E703B0BDE8F08F00BFD0
:1098D00013B50B46114680B9104B1148114AC01AF6
:1098E0000E23C0080093104B0004104940F0010003
:1098F00002F02DFA0E2002B010BD4BB9074B0848FC
:109900000B4AC01AC0080E2300930004064BECE774
:1099100003601B6802B0BDE8104018474C96030076
:10992000BC96030045980300019A03004A9803007F
:10993000799803002DE9F743DDF8288088B93E4B7C
:109940003E483F4AC01AC0080E243E4B0094000413
:109950003D4940F0010002F0FAF9204603B0BDE8AD
:10996000F0834AB9344B3548384AC01AC0080E242F
:10997000344B00940004EBE7D0F800E0BEF1000F98
:1099800009D12D4B2D48324AC01AC00808242D4B4E
:1099900000940004DCE74BB9274B28482D4AC01A35
:1099A000C0080924274B00940004D1E74568D5F886
:1099B0000490B3FBF9F509FB15354DB11E4B1F485B
:1099C000254AC01AC00809241E4B00940004BFE7B2
:1099D0008D0709D0184B1948204AC01AC008102416
:1099E000184B00940004B3E712F0030F09D0124B98
:1099F00012481B4AC01AC0081024124B00940004DD
:109A0000A6E7C568A9420DD34D1EEC180569AC4206
:109A100008D8CDF82880DEF80C40A44603B0BDE895
:109A2000F0436047044B05480E4AC01AC008102492
:109A3000044B009400048BE74C960300BC96030093
:109A400045980300EE9903004A980300C798030065
:109A50007398030086980300CD980300F7980300DD
:109A60000F99030032990300F7B580B92A4B2B48B0
:109A70002B4AC01AC0080E242A4B009400042A491D
:109A800040F0010002F063F9204603B0F0BDD0F8C9
:109A900000C0BCF1000F09D11F4B2048234AC01A57
:109AA000C00808241F4B00940004E8E74AB91A4B89
:109AB0001A481F4AC01AC00809241A4B009400040F
:109AC000DDE74568D5F800E00EF1FF350D4209D01D
:109AD000114B1248174AC01AC0081024114B0094A9
:109AE0000004CCE7C568A9420CD34D1E0EFB0254FE
:109AF0000569AC4206D8DCF81040A44603B0BDE8C6
:109B0000F0406047044B05480B4AC01AC0081024B7
:109B1000044B00940004B2E74C960300BC9603008B
:109B200045980300DB9903004A98030073980300EB
:109B300086980300599903007F99030029DF704735
:109B400028DF704770B503689E6886B004460D46EE
:109B50006EB114220021684609F02CF9A368059320
:109B6000237901952BB1012B0DD06846B04706B083
:109B700070BD01238DF8003023690293E3680393DD
:109B800063690493F1E702238DF80030E3681B0357
:109B90000293F5E70846704700207047024B187A99
:109BA000003818BF01207047982F0020034B187A07
:109BB0000122B0FA80F05A7440097047982F0020B3
:109BC00008B510461A4609F0CCF8002008BD000080
:109BD00008B514220021044809F0ECF80348FFF707
:109BE000F8FA002008BD00BF982F0020882F002021
:109BF00010B5094C094B43602046FFF737FC40B9CC
:109C000008F002FE064920741C2306488C22FFF748
:109C1000CDFA002010BD00BF982F0020149A030039
:109C2000FC2E0020882F002038B5234D234C2B7AA2
:109C30003BB923492348FFF728FB206008B9686037
:109C400038BD022324682B72237973B1012B24D0F1
:109C500020460321FFF776FF00232B726B60184923
:109C60001848BDE83840FFF73BBBD4E90523D21ABA
:109C7000B2F5805FD4E9031028BF4FF480529208F8
:109C8000012A38BF012219441844FFF757FF50B189
:109C90001128DDD101232B72D2E7D4E90303184444
:109CA000FFF74EFFF3E72B7C002BC9D1BDE838400E
:109CB000022000F009B800BF982F0020B02F00202C
:109CC000AC2F0020882F002038B5234C237A002B9E
:109CD00041D0022B09D1032830D0204B00221B6831
:109CE000E2601A793AB1012A22D0637C7BBBBDE8DD
:109CF0003840FFF799BFD3E905128D1AB5F5805F9B
:109D000094BF521902F580529A619142EDD1022816
:109D10004FF0000308BF19462372104B18BF0D21E6
:109D20001868FFF70FFF0E490E48FFF7D9FADCE776
:109D30001A6901321A615B699A42E7E7E368013305
:109D4000082B01D8E360D0E70023E360DFE7BDE83C
:109D5000384008F049BD38BD982F0020B02F0020B2
:109D6000AC2F0020882F0020831E012B01D8FFF785
:109D7000ABBF704700F0FD03012B08D1044B00225C
:109D80005A74421E504250411874FFF74DBF70473D
:109D9000982F002010B5064C201DFFF767FB28B94F
:109DA000637C1BB9BDE81040FFF73EBF10BD00BF8C
:109DB000982F00202DE9F34180460D460F4801A958
:109DC00016461F46FFF727FA0446A8B11C220021B9
:109DD00008F0F0FF2D0B0123237101A90748C4F8F7
:109DE0000080A760E5606661FFF73FFAFFF7D2FFEA
:109DF000002002B0BDE8F0810420FAE7882F00209F
:109E00002DE9F74381468846104801A917461E46AA
:109E1000FFF701FA0446B0B11C22002108F0CAFF86
:109E200000250A9BA36001A9C4E9037807482571AE
:109E3000C4F800906661FFF718FAFFF7ABFF2846F9
:109E400003B0BDE8F0830420FAE700BF882F0020AC
:109E50002DE9F84FB0F806A04579D2F800B09DF88A
:109E600028900AFB05F5043D88460BEB0301A94247
:109E700003F1040488BFA5EB030BB4FBFAF6074615
:109E80000AFB1644C2F800B04EB9AAEB04055D45C2
:109E900028BF5D46BBF1000F04D1BDE8F88F3F68D5
:109EA000013EF1E7043408EB06003C442A46B9F1D0
:109EB000000F0DD02146ABEB050B08F052FFDA4541
:109EC0002E443F6855464FF0000428BF5D46E1E749
:109ED00001462046EFE7FFF7D2BAF8B546790146CA
:109EE000721E0546002393422D6803D30024A64228
:109EF00002D8F8BD0133F6E70F682846FFF7FAFAF3
:109F000001343946F3E72DE9F843068ACD1C0746AC
:109F1000FFF7CCFA043E35440446B5FBF6F5F0B144
:109F20004FF48073EDB28380C680013D07608146A7
:109F30004FF00008A84512D23846FFF7B7FA064698
:109F400048B163790133637108F10108C9F8000071
:109F500007608146EEE72046FFF7BFFF3446204604
:109F6000BDE8F88301210430FFF768BA10B501217C
:109F700004460430FFF76EFAC0B220B92046BDE8AF
:109F80001040FFF7AABF10BD1FB503920022009238
:109F900003AAFFF75DFF05B05DF804FB1FB5039250
:109FA0000122009203AAFFF753FF05B05DF804FBFE
:109FB00041DF7047064B10B500241C70054B1C6038
:109FC000BFF35F8F0449054800F0A8F8204610BD94
:109FD000BC2F0020C02F00204C9A0300B42F00207B
:109FE00007B500230DF107008DF80730FDF7FEFFE0
:109FF000F1EE103A23F09F03E1EE103ABFF35F8FCA
:10A000000A4B4022C3F884219DF80700FEF712F89E
:10A0100008F0FAFB20B103B05DF804EBFFF7C8BF0E
:10A0200020BF40BF20BF03B05DF804FB00E100E0AB
:10A03000026813685268934291BFD01A8068013059
:10A04000801888BFC01A7047036881681A685B6807
:10A050008B4234BF01330023D31A58425841704712
:10A0600073B5002304460DF107000D468DF8073047
:10A07000FDF7BCFF2046FFF7E7FF10B1237C002B64
:10A080003BD12368A1685E685A688A4234BF0132B6
:10A0900000225A6028B11A688A4234BF0132002275
:10A0A0001A60E2686368511E072920D8DFE801F0D2
:10A0B00004101F141F1F1F182A789A552046FFF7F7
:10A0C000B7FF23689A68824200D29860002415E0A6
:10A0D0002A8823F81620F1E72A6843F82620EDE7BE
:10A0E000D5E9000103EBC603C3E90001E6E7294611
:10A0F00002FB063008F035FEE0E704249DF8070077
:10A10000FDF798FF204602B070BD836800225A60B8
:10A11000C3E904229A60DA601A6070470B684A68E3
:10A120004360934208BF0023016008BF436070474B
:10A13000436843B10268916852680B44934243609C
:10A1400004BF00234360704770B5446806460D465F
:10A15000206818B1B3682946984718B923682B605E
:10A16000256070BD2468F3E74368186808B1026889
:10A170001A6070474368186870474368186800B9E8
:10A180007047884203D102681A6001207047034675
:10A190000068F4E710B50D49A1F59472914201D819
:10A1A00000200FE08C1AE30F03EBE4035B1002EBDB
:10A1B000C30452F83330834205D802D204F10802B6
:10A1C000ECE7606810BD2146E8E700BF589F030038
:10A1D00008B5FFF7DFFF024B002808BF184608BD8F
:10A1E0001B9E03000B7B23B14B68036000230371AC
:10A1F00070470B6803600123F9E703684A688968C0
:10A2000010B5D41A8C428BBF5B1800230360026028
:10A2100098BF037110BD03680A68896810B59C1A5D
:10A220008C428BBF5B1A01230360026098BF0371ED
:10A2300010BD037910B504461BB1FFF7DEFF20689F
:10A2400010BDFFF7E8FFFAE738B5074C051E04F12B
:10A25000080318BF1C4623682BB11A6822605B688C
:10A2600028469847F7E738BDCC2F002020B9054B8A
:10A2700001225A70FFF7E8BF012802D1014A90700D
:10A28000F8E77047C42F002020B9034B01225A7011
:10A29000FFF7DABF704700BFC42F002038B50E4C5F
:10A2A0002378B3B90D486360A3602361E36000F0D5
:10A2B00035F9054608F0A8FA08B900F03BF9012382
:10A2C0002370074BD3F800340BB10123A370284649
:10A2D00038BD8525F5E700BFC42F00206DA2020020
:10A2E0000000014037B50D4C00230DF107008DF83B
:10A2F0000730FDF77BFEE368013BE360E36833B9B9
:10A30000074BD3F8005415B900F026F9A5709DF855
:10A310000700FDF78FFE03B030BD00BFC42F002043
:10A3200000000140012813B50CD0032820D038B913
:10A33000134B0122C3F88020BFF34F8FBFF36F8F01
:10A3400002B010BD0F4C00230DF107008DF807304F
:10A35000FDF74CFE23780BB9FFF7A0FFE3689DF8EB
:10A3600007000133E3600123A370FDF763FEE7E715
:10A3700000F0E0F802B0BDE81040FFF7B3BF00BF47
:10A3800000E100E0C42F00201FB500238DF8070076
:10A390000DF10F008DF80F30FDF728FE08F034FAAC
:10A3A00050B909480DF10701FFF75AFE0648FFF7BB
:10A3B0004BFE08B100F0A6FB9DF80F00FDF73AFE3A
:10A3C00005B05DF804FB00BFEC95030007B520B1B4
:10A3D00003280DD003B05DF804FB104B1B78012B54
:10A3E000F8D100F08FFB03B05DF804EB00F092BBF6
:10A3F00000230DF107008DF80730FDF7F7FD074842
:10A400000378012B05D10649013000F03BFB00F039
:10A4100067FB9DF80700FDF70DFEDBE72830002005
:10A4200089A302001FB503788DF8003043680193BB
:10A4300083688DF80830C368054A0393054B684666
:10A4400053F8213052F82110984705B05DF804FB0D
:10A450002C300020343000201FB503788DF80030F8
:10A460004368019383688DF80830C368054A0393F5
:10A47000054B684653F8213052F82110984705B033
:10A480005DF804FB2C30002034300020F0B5194B6F
:10A4900090F800C0DFF86CE043F82C20164B16460D
:10A4A0000A6943F82C204B7F0EF80C300C46074607
:10A4B0000FCC89B06D460FC594E80F0085E80F00FA
:10A4C0003B78CDF810C01EF803304BB1002E0B4A7C
:10A4D000694608BF3246381D00F072FE09B0F0BD73
:10A4E000002E074A694608BF324607F10C0000F00B
:10A4F0002BFCF3E7343000202C30002025A4020090
:10A5000059A402003C30002000F18040002382B0BA
:10A51000036003680193019B02B07047044A1379FA
:10A5200023B901211060918018467047852070473B
:10A5300040300020074B1A68D20704D4C02283F8A9
:10A54000002301221A604FF080430122C3F818252E
:10A55000704700BF00E100E04FF0804208B50223E1
:10A56000C2F808334FF48270FFF7CEFF0123D360A7
:10A57000D2F81834DB03FBD408BD00004FF0804153
:10A5800010B5D1F8003163B14FF48070FFF7BCFF14
:10A590000D4B58790122C1F8082310B95A711B6874
:10A5A00098474FF08042D2F8043163B14FF4827083
:10A5B000FFF7AAFF0223C2F80833034BBDE810409F
:10A5C0001B680120184710BD4030002000F180407A
:10A5D00000F5C040002382B0036003680193019B33
:10A5E00002B0704703681F2B83BF03F01F03036093
:10A5F00001484FF0A04070470003005007B501909C
:10A6000001A8FFF7EFFF019B00EB8300D0F80037B4
:10A6100023F44033C0F80037D0F8003743EA014153
:10A62000C0F8001703B05DF804FB0000054B4FF0C5
:10A63000FF32072843F8202084BFC01880F8582034
:10A64000704700BF4830002038B51E4C94F86A307F
:10A65000ABBB4FF6FF71FF205A09012A0CBF0A4617
:10A660004FF0FF3203F01F05EA40D20748BFE2185F
:10A6700003F1010348BF82F83000302BECD10021F8
:10A68000C8B20131FFF7D2FF0C29F9D1062200210F
:10A690000D4808F08FFB0D4BC02283F806234022A3
:10A6A0001A604FF4BE70FFF791FF094B4FF0004264
:10A6B000C3F80423012384F86A30002038BD082041
:10A6C000FCE700BF48300020AC30002000E100E093
:10A6D00000600040034B93F86A00003818BF012067
:10A6E000704700BF48300020F7B53D4F3B18044687
:10A6F00093F93030002B71DA8B78C3F34003002BD1
:10A700000BBF082500250C200820854202D104201B
:10A7100003B0F0BD57F82560013647D138196EB245
:10A7200047F8252080F8306013B97B1983F858402A
:10A730008B785A071AD4D8073AD501A80194FFF7A5
:10A7400051FF019B00EB8300D0F8003723F0020398
:10A75000C0F800372348E20804F0070C012303FA8D
:10A760000CF310F802C043EA0C03835488780B788A
:10A7700010F0020028D0AD0005F1804505F5C04578
:10A780002402D5F8102522F44F3222F44072C5F885
:10A7900010251B04D5F8102504F47C5403F4403331
:10A7A0001C431443C5F810450020B1E70135ACE760
:10A7B00001A84A780194FFF715FF019B03F5E073A8
:10A7C000920040F82320C5E7083E47FA86F797F83D
:10A7D000604044EA831387F8603099E7082097E7E0
:10A7E00048300020AC30002073B5244D2E180446AC
:10A7F00096F93020072A1DDD083A45FA82F595F8CA
:10A8000060309B09032B10D1019001A8FFF7EAFEED
:10A81000019BD0F81015D94001F00101023120460A
:10A8200002B0BDE87040FFF7E9BE012B0CBF02216A
:10A830000321F4E7D3B2072B1DD8930003F1804323
:10A8400003F5C043D3F8100540F00100C3F810052C
:10A8500002F1400040B2800080B2FFF7B7FE51B174
:10A8600096F9303055F823302BB1012303FA02F268
:10A87000034BC3F8042302B070BD00BF4830002072
:10A880000060004007B5019001A8FFF7ABFE019BF7
:10A89000D0F81005D84000F0010003B05DF804FBCB
:10A8A0002DE9FF470024CDE90244584D4FF4807252
:10A8B000012102F1804303F5C04390B21B68012BD4
:10A8C00006D1D5F804330B4202D0FFF77FFE0C43CC
:10A8D0000432B2F5907F4FEA4101EAD14B4BD3F8F5
:10A8E0007C31012B11D14FF4BE70FFF76FFE4FF09A
:10A8F000A04344F00044D3F820250292C3F8202559
:10A90000D3F820280392C3F82028E3B2D3B1404FF4
:10A9100000250126344210D0AB0003F1804303F53B
:10A92000C043D3F81005D3F8101557F8253023B1DC
:10A93000C1F30141C0F3052098470135082D4FEAC6
:10A940004606E7D1002C59DA314D324C324E4FF0E9
:10A950000008012716F9013B5A1C3CD0C3F3C20181
:10A9600004A801445FFA83F911F8081C03F03F02C0
:10A9700003F0070307FA03F319422CD001A8019250
:10A98000FFF730FE019B03F5E07350F82330C3F36B
:10A99000014ABAF1020F0CBF032102211046FFF752
:10A9A0002DFE01A80192FFF71DFE019B07FA03F39C
:10A9B000C0F82035AB1893F9303055F8233053B137
:10A9C0004FEA9911032904D0BAF1020F19D10129D4
:10A9D00001D11046984708F10108B8F1040FB9D128
:10A9E0004FF0A043D3F820250292C3F82025D4F8D5
:10A9F00020350393C4F820351343A7D104B0BDE834
:10AA0000F087BAF1030FE6D10229E1E700600040C8
:10AA10004830002000030050A8300020014B1B6884
:10AA2000184700BFB43000200E4B984237B50C4693
:10AA300002D0002003B030BD00230DF107008DF8D7
:10AA40000730FDF7D3FA084B1D7915B901221C60B8
:10AA50001A719DF80700FDF7EDFA002DE9D01120DD
:10AA6000E8E700BF00200040B4300020034B9842CC
:10AA700001BF034B00221A601A717047002000408A
:10AA8000B430002010B5124C2378FBB9114B19607B
:10AA9000037813F0010F104B1EBFD3F8042542F0CA
:10AAA0000102C3F80425D3F8002222F00102C3F802
:10AAB00000224378094A5B01DBB282F80D334FF480
:10AAC0000053136001232370002010BD8520FCE794
:10AAD000C0300020BC30002000D0004000E100E089
:10AAE000074B0022C3F8002182B0D3F80021019265
:10AAF000019A0122C3F804231A6002B0704700BF14
:10AB000000D00040024B0122C3F808235A6070476E
:10AB100000D00040084B0122C3F808235A60074BBD
:10AB20004FF40052C3F88020BFF34F8FBFF36F8FF5
:10AB3000034B00221A70704700D0004000E100E093
:10AB4000C0300020074B0022C3F8002182B0D3F8A8
:10AB500000210192019AD3F80805034B1B68C0B28B
:10AB600002B0184700D00040BC3000200023435002
:10AB700082B043580193019B02B070470A4610B55A
:10AB80004FF48E71FFF7F2FF136A9168C95C136A84
:10AB900001331362C0F81C1510BD8B690A4610B54D
:10ABA0004FF4847123B9FFF7E1FFD0F8183510BDD9
:10ABB000FFF7DCFF536AD168D0F81805C854536A10
:10ABC00001335362F3E700001FB501238DF8003015
:10ABD000044BCDE90110D3E900126846904705B057
:10ABE0005DF804FBC430002030B54D4DD5F804337A
:10ABF0009A0585B051D5D5F82431002B4DD04FF4AE
:10AC000092712846FFF7B2FF4FF40173C5F808337D
:10AC1000444B93F829200AB901226A604049022274
:10AC20008DF80020D1F88024C1F8802403929A691D
:10AC30000292DA6801920022C3E906226846D3E94B
:10AC4000001290473648D0F81C315BB1354A516943
:10AC5000136A99424DD992F82830002B49D11146F8
:10AC6000FFF78CFF2E48D0F84431002B56D04FF41C
:10AC7000A271FFF77BFF2B4B93F829200AB1012229
:10AC800002609A69002A49D0586AD96800229A61FC
:10AC900005B0BDE83040FFF797BFD5F804335B0738
:10ACA000D0D5D5F80831002BCCD01E4C1C482146FD
:10ACB000FFF773FF636AA2699A42C3D1E369E1684F
:10ACC0004BB1A3612369E3600023606AE3616362BF
:10ACD000FFF77AFFB6E794F829300BB901236B60D0
:10ACE0000F4B4FF40172C3F808230023606AA3617D
:10ACF000EEE70B484FF48E71FFF738FF5369002BD6
:10AD0000B0D051690291002391688DF80030019113
:10AD100053616846D2E900139847A3E705B030BDF8
:10AD200000200040C43000201F2886BF00F01F0014
:10AD3000044B4FF0A04300F5E070022243F82020BE
:10AD4000704700BF000300502DE9F843604D90F8B4
:10AD500004802C2303FB0853064693F82A300C4644
:10AD60009146002B40F0AF805A490068FFF75CFE27
:10AD70000746002840F0A9802268531C10D01F2AE3
:10AD800087BF554902F01F0313464FF0A041012031
:10AD9000984003F5E073C1F80805032041F823004B
:10ADA0006168481C0DD01F298BBF01F01F030B46A3
:10ADB00049484FF0A04003F5E0734FF0000C40F815
:10ADC00023C03068A369C0F8243594F814C0637DAB
:10ADD000BCF1010F4CEA0303C0F86C35C0F8141540
:10ADE000C0F80C252BD1A368591C0DD01F2B8BBF8D
:10ADF00003F01F021A4638494FF0A04102F5E072F5
:10AE00004FF0000C41F822C0E1684A1C13D01F2902
:10AE100087BF314A01F01F0C8C464FF0A0424FF023
:10AE2000010E0EFA0CFE0CF5E07CC2F808E54FF0BE
:10AE3000030E42F82CE0C0F80815C0F810352C229B
:10AE400002FB08F2AB18C3F804902369AB50B9F1C8
:10AE5000000F20D04FF48E71247FFFF787FE4FF450
:10AE6000A2713068FFF782FE32681C4BC2F80433CF
:10AE7000130B42F307326101002AC9B21EDB1848E6
:10AE8000841884F800130121520903F01F0301FA0A
:10AE900003F340F8223033680422C3F800252C2342
:10AEA00003FB08530022C3E9062283F829205A61D4
:10AEB000012283F82A203846BDE8F883094A03F0C6
:10AEC0000F03D154E7E70827F5E71127F3E700BFA1
:10AED000C4300020E9AB02000003005080000200F3
:10AEE00000E100E014ED00E02DE9F0410368057990
:10AEF000284C0022C3F800252C2202FB0542014603
:10AF00005268A2B1244AC3F808231A0B43F307334B
:10AF1000002B0CDB02F01F005B0901228240203372
:10AF20001E4840F82320BFF34F8FBFF36F8F0B688D
:10AF3000D3F80C05D3F81485D3F80865D3F8107549
:10AF40004FF0FF329042C3F81425C3F80C25C3F824
:10AF50000825C3F8102501D0FFF7E6FEB8F1FF3F42
:10AF600002D04046FFF7E0FE7A1C02D03846FFF7D9
:10AF7000DBFE731C02D03046FFF7D6FE0868FFF7F1
:10AF800075FD2C2303FB0544002384F82A306360FD
:10AF9000BDE8F081C43000208402020000E100E03E
:10AFA0000279044B2C2101FB02335869003818BF89
:10AFB00001207047C43000202DE9F84F064690F874
:10AFC000048089469246FFF7EBFF044600283CD1F7
:10AFD000204F2C2508FB057B4FF48E71CBF814A075
:10AFE000CBF80890CBF820008BF828003068FFF7EA
:10AFF000BDFD3068012383605946FFF7BFFDDBF8D4
:10B0000004305D461BBB3068DBF814402B6A9C4261
:10B0100011D83368D3F81C21002AFBD00122DA6052
:10B0200000202C2303FB087700237B61BDE8F88F09
:10B0300095F828303BB9D0F81C31002BF8D0594690
:10B04000FFF79CFDE2E70F20EBE71120EEE720463B
:10B05000ECE700BFC43000200023435082B04358C7
:10B060000193019B02B070471FB501238DF800309A
:10B07000044BCDE90110D3E900126846904705B0B2
:10B080005DF804FBF03000207FB5434AD2F824611C
:10B09000002E60D010464FF49271FFF7DDFF0223BF
:10B0A0008DF80030D2F88034C2F880340393D2F89F
:10B0B0003C350293394BDA6801920022C3E906223B
:10B0C0006846D3E9001290473348D0F8443173B151
:10B0D0004FF4A271FFF7C0FF304B9A693AB10022DA
:10B0E000C3E90622D968D0F83C05FFF7BDFF2A481E
:10B0F000D0F82031ABB14FF49071FFF7ADFF0123D1
:10B10000C360264B5A6962B1D0F84C1502910022F7
:10B1100099688DF8002001915A616846D3E90012C0
:10B1200090471D48D0F858319BB14FF4AC71FFF7F0
:10B1300093FF1A4B5A6962B1D0F84C150291002264
:10B1400099688DF8002001915A616846D3E9001290
:10B15000904704B070BDD2F81031002BB4D04FF43A
:10B1600088711046FFF778FF0C4BD2F83C059969BF
:10B170008842A9D1DC69D96864B1D2F8005225F0BF
:10B180002005C2F800521A699C61DA60DE61FFF79F
:10B190006BFF99E79C61FAE700200040F030002047
:10B1A0001F2886BF00F01F00044B4FF0A04300F59E
:10B1B000E070022243F82020704700BF00030050D7
:10B1C0002DE9F843664E90F80480242303FB0863BE
:10B1D000044693F820300D469146002B40F0BC8089
:10B1E00060490068FFF720FC0746002840F0B68061
:10B1F00029684B1C10D01F2987BF5B4A01F01F0331
:10B200000B464FF0A0420120984003F5E073C2F8CE
:10B210000805032042F823006A68501C0DD01F2A3D
:10B220008BBF02F01F0313464F484FF0A04003F5B9
:10B23000E0734FF0000C40F823C02068AB69C0F801
:10B24000243595F814C06B7DBCF1010F4CEA030363
:10B25000C0F86C35C0F80C15C0F814252BD1AB68BC
:10B26000591C0DD01F2B8BBF03F01F021A463E49FD
:10B270004FF0A04102F5E0724FF0000C41F822C0FF
:10B28000E9684A1C13D01F2987BF374A01F01F0CF9
:10B290008C464FF0A0424FF0010E0EFA0CFE0CF55A
:10B2A000E07CC2F808E54FF0030E42F82CE0C0F84D
:10B2B0000815C0F81035242202FB08F2B318C3F8B1
:10B2C00004902B69B350B9F1000F2FD04FF488715F
:10B2D0002A7FFFF7C1FE20684FF49071FFF7BCFE94
:10B2E00020684FF49271FFF7B7FE20684FF4A27107
:10B2F000FFF7B2FE4FF4AC712068FFF7ADFE236894
:10B300001A49C3F80413190B43F307335201002BF6
:10B31000D2B21CDB1648C51885F8002301225B0950
:10B3200001F01F0102FA01F140F8231023680822FE
:10B33000C3F80025242303FB08660023C6E906336F
:10B340007361012386F820303846BDE8F883094B45
:10B3500001F00F015A54E9E70827F5E71127F3E751
:10B36000F030002089B002000003005010034200BA
:10B3700000E100E014ED00E02DE9F0413D4D0679DB
:10B380000468242303FB065302465B68ABB13A4BC7
:10B39000C4F8083344F30733002B4FEA14310CDBB5
:10B3A00001F01F005B09012181402033334840F840
:10B3B0002310BFF34F8FBFF36F8FD4F8003223F009
:10B3C0002003C4F80032242303FB06539B6933B1E6
:10B3D0004FF4A2712046FFF73FFE012363604FF454
:10B3E000AC712046FFF738FE0123E360242303FB02
:10B3F0000653D4F858110029FBD0996919B1D4F833
:10B4000044110029F5D00023C4F800351368D3F89F
:10B410000C05D3F81485D3F80815D3F810754FF040
:10B42000FF329042C3F80C25C3F81425C3F8082551
:10B43000C3F8102501D0FFF7B3FEB8F1FF3F02D0EB
:10B440004046FFF7ADFE7A1C02D03846FFF7A8FE53
:10B450004B1C02D00846FFF7A3FE2046FFF706FB71
:10B46000242303FB0655002385F820306B60BDE8DC
:10B47000F08100BFF03000201003420000E100E046
:10B480000279044B242101FB02335869003818BFAC
:10B4900001207047F030002001F06043B3F1005FFD
:10B4A0002DE9F0470646884692463BD190F8049035
:10B4B000FFF7E6FF0446002836D11D4F30682425EB
:10B4C00005FB09754FF49071C5F814A0C5F8088004
:10B4D000FFF7C2FD4FF4AC713068FFF7BDFD336874
:10B4E0006A69A968C3F84415C3F8482501229A601F
:10B4F0006A68DAB9D3F82021D3F858011AB90028BC
:10B50000F8D00F2007E00028FBD10122DA60D3F841
:10B510005821002AFBD0242303FB097700237B61F9
:10B52000BDE8F0871020FBE71120F9E72046F7E798
:10B53000F0300020074B1B5C1F2B8ABF064A4FF0E0
:10B54000A04203F01F03D2F80405D840C04300F026
:10B5500001007047869F030000030050074B1B5CEF
:10B560001F2B86BF064903F01F034FF0A0410122A5
:10B5700002FA03F3C1F80C35704700BF869F030041
:10B5800000030050074B1B5C1F2B86BF064903F0CE
:10B590001F034FF0A041012202FA03F3C1F808355E
:10B5A000704700BF869F03000003005008B50020CD
:10B5B000FFF7E8FF0120FFF7E5FF0220FFF7E2FFBA
:10B5C000BDE808400320FFF7DDBF08B50020FFF706
:10B5D000C5FF0120FFF7C2FF0220FFF7BFFFBDE854
:10B5E00008400320FFF7BABF0A4B185C1F288ABF28
:10B5F000094B4FF0A04300F01F00D3F804250121B0
:10B60000814021EA02000A40C3F80805C3F80C256E
:10B61000704700BF869F030000030050074B1B5C70
:10B620001F2B8ABF064A4FF0A04203F01F03D2F837
:10B630001005D840C04300F001007047829F03000E
:10B64000000300500B2809D00C2809D0182809D075
:10B6500019280CBF03204FF0FF30704700207047BF
:10B660000120704702207047014B185C704700BFF3
:10B67000829F0300C20710B504460CD54FF0A043CB
:10B680000322C3F83427C3F83827C3F83C27C3F88C
:10B690004027FFF78BFFA3070AD54FF0A0430C22EA
:10B6A000C3F82C27C3F83027C3F86027C3F86427F2
:10B6B00010BDF0B595B01D46164608460C46FEF77F
:10B6C00051FC1A9B0D93CDE9086500252B460822F5
:10B6D00005A920460A958DF82C500C95FEF75EFCC6
:10B6E000079B0293069B03939DF814308DF811502D
:10B6F00003F00302012A1DD1BDF81420059DC3F3F8
:10B70000C203C2F383168DF81030B20008230EA9CD
:10B710002046FEF743FCC5F3952508AB009332465F
:10B7200002AB0EA9284600F0D3FB2046FEF71EFC14
:10B7300015B0F0BD022AF8D1BDF81650C3F3C2030C
:10B74000C5F389158DF810300827082D2E4628BF1F
:10B7500008263B4632460EA92046FEF71FFCAD1BCD
:10B7600008AB02AA31460EA8374400F015FC002DA4
:10B77000EBD1DAE7014B01221A70704755310020F6
:10B780007047000070B50E4D06460FCD88B06C4670
:10B790000FC495E80F00002E84E80F00094A0A48FC
:10B7A0004FF0060308BF002269460093FEF76EFEC5
:10B7B00008B1FCF72FFA054B1E7008B070BD00BF32
:10B7C0008C9F030075B70200FC2B00201431002071
:10B7D00007B5044B0093044A4023FFF76AFF03B008
:10B7E0005DF804FBEDB702001531002038B50D48B7
:10B7F0000D4C0E4D002323700378EB5CD2B263B185
:10B800000430FFF749FE08B1FCF704FA084B1A7838
:10B8100012B12378002BFBD038BD0C30FFF7CCFBE6
:10B82000F1E700BFFC2B0020553100203C30002008
:10B830001431002008B50848084A0378D35C3BB1AE
:10B840000430FFF799FDBDE808400020FFF79ABFDC
:10B850000C30FFF749FBF6E7FC2B00203C300020C2
:10B860000120FFF78FBF000008B5FFF7F9FF04487C
:10B87000042100F097FA034B01225A7108BD00BF62
:10B8800044970300102C0020037813F0040216D014
:10B8900003F00303012B03D0022B09D001207047D2
:10B8A0000A6800880232C0F3831002440A60F5E798
:10B8B0000B684288023303EB92130B60EEE71046ED
:10B8C000704700002DE9F04FDFF81CA187B00F464C
:10B8D00000230446861C0DF1070015468DF807303D
:10B8E000FCF784FBDAF804203A60DAF8083003F554
:10B8F00080739B1A0AF21C470AF583690AF21448FE
:10B90000B3421AD30020002D69D004F00F039B012D
:10B9100043F0050363F30F00DAF80430DAB20332C0
:10B9200033444AF822009DF80700CAF80430FCF7B7
:10B9300081FB012007B0BDE8F08F01213846FDF7FB
:10B940007DFD4846FDF795FD4046FDF792FDDAF88E
:10B9500008000290C0B203300AEB800002A9FFF792
:10B9600093FF029B30BBDAB20AEB8202D1680391EB
:10B970009A1C0133DBB20AEB83030292D3F80CB0BA
:10B9800001F00303012B22D0022B15D08346404641
:10B99000FDF772FD10B1029BCAF8083059463846CF
:10B9A000FDF74CFDDAF80830DAF8042003F580736F
:10B9B0009B1AA5E7D8B2CEE7BDF80E30C3F38913C2
:10B9C00003334FEA1B4B02EB93030293DFE7BDF80F
:10B9D0000C30C3F383134FEA1B4B1344F5E7A40564
:10B9E00044F0060098E700BF28320020064B0748C5
:10B9F00010B500221A70FEF76EFA044610B904481A
:10BA0000FEF783FB204610BD28320020309603004D
:10BA1000E09F030030B50A4C71B10A4A0A49121B73
:10BA2000D20800239A4201D1002030BD31F82350C2
:10BA3000854202D00133F5E7034654F83300F4E7BA
:10BA40004C96030044970300F42B0020094B013966
:10BA500003EBC000032909D8DFE801F00A0204065D
:10BA60000420704700797047407970470020704784
:10BA7000022070474C960300034BD3E90130C31AF0
:10BA800058425841704700BF283200202DE9F0414C
:10BA900086B0FFF7F1FF0546002840F0ED80774CB7
:10BAA000C4F81804BFF34F8FA3680293DBB20333CB
:10BAB00004EB830002A9FFF7E7FE029B18B1D4F85C
:10BAC0001824002A5AD0DAB2991C013304EB8202FE
:10BAD000DBB204EB8303D268DB68049302F0030358
:10BAE000022B0392029154D1BDF80E306448C3F387
:10BAF0008917502F3E4628BF502606F1080166F3ED
:10BB00008F13C1F30901ADF80E30FEF7FCF90546BD
:10BB1000002800F09C80FEF725FA0023082203A9E4
:10BB20002846FEF731FA0299CB43DBB20133C9B2A2
:10BB30000331B6EB830F4FEA830204EB810125D971
:10BB40005FFA82F80823A6EB08062846FEF71CFADF
:10BB5000F6B208F108034B4903F0FC0332462846CD
:10BB6000FEF712FA029B033703EB97070297D4F80C
:10BB70001834002B43D1D4F8106453E062689A4221
:10BB800094D8A260284606B0BDE8F081082332466A
:10BB9000E5E7012B5BD1BDF80C303948C3F38311C5
:10BBA000062928BF062161F38913023101F00F0134
:10BBB0008900ADF80C30FEF7A6F90546002846D0FE
:10BBC000FEF7D0F90023082203A92846FEF7DCF986
:10BBD0000026BDF80C20C2F38312B300964203F195
:10BBE0000803C4D202994A1CC9B20331029204EB81
:10BBF000810104222846FEF7C7F90136E9E7284605
:10BC0000FEF7B4F9FFF738FF80F00100C5B2B9E7DD
:10BC1000F3685B7923B1336829461B68304698473F
:10BC2000F3681E68002EF3D12846FEF79FF90DF148
:10BC300007008DF80760FCF7D9F9D4F818340BB970
:10BC4000029BA3609DF80700FCF7F4F9DAE7D4F84B
:10BC5000104454B90C4B0D480D49C01AC0080004DB
:10BC600040F0020000F05CF8CCE7236820469B68B7
:10BC70009847E3681C68ECE7002583E7283200203A
:10BC800030960300343200204C9603007C9603006B
:10BC9000C99F03002DE9F34704460E46924601A9C9
:10BCA000012218469946FFF70DFE1B4F10B3019D68
:10BCB0004FF00008AA1CC84508EB020123D1174821
:10BCC0000021FDF774FB80F31000000440EA1440EB
:10BCD000E4006B1C04F03804DBB2EDB244F0010464
:10BCE00007EB8303033544EA881444EA8624D860CA
:10BCF00047F825403B781BB1FFF7C8FE0028FBD171
:10BD000002B0BDE8F087C9B207EB81015AF82830CC
:10BD1000CB6008F10108CEE728320020443600202D
:10BD200000231A46FFF7B6BF07B50123019201AA07
:10BD3000FFF7B0FF03B05DF804FB07B5CDE90023C2
:10BD400002236A46FFF7A6FF03B05DF804FB1FB5A8
:10BD5000CDE90123069B039301AA0323FFF79AFF72
:10BD600005B05DF804FB1FB5CDE90023069B0293E7
:10BD7000079B03936A460423FFF78CFF05B05DF829
:10BD800004FB7FB5CDE90123089B0393099B049332
:10BD90000A9B059301AA0523FFF77CFF07B05DF816
:10BDA00004FB000030B50F4CD4F8102403460020EB
:10BDB000114631B9D96808714AB9C4F810340A601B
:10BDC00030BDC9680D79854206D00968F1E7D268AF
:10BDD00014680C601360F3E701300A28E8D14FF0D3
:10BDE000FF30EDE72832002038B5084B0125D3F8A5
:10BDF00010441D7004B938BDE3685D7123682046A6
:10BE00005B689847E3681C68F4E700BF28320020AD
:10BE100030B5C38885B004460D4633B1144A00924C
:10BE20001449154A2846FDF78AFB217A05291DD0B9
:10BE3000637A4BB1A088FFF709FE104B104953F805
:10BE400020202846FDF77BFB227A0E4BA08853F872
:10BE5000222003920021FFF7DDFD039A0A490346E1
:10BE6000284605B0BDE83040FDF769BB05B030BDE0
:10BE70000CA00300F49F0300EC9F030078A00300D4
:10BE8000D3B303009CA0030011A0030007B5034631
:10BE90000846197A052911D05B7A2BB1094A0A495B
:10BEA0000190FDF74CFB019808490190FDF747FB15
:10BEB000019803B05DF804EBFDF736BB002AF8D01B
:10BEC000F2E700BF0CA00300D3B3030009A00300F6
:10BED0002DE9F04385B01F460C9D002395F80C908A
:10BEE0002B7306460C46904629463846FFF790FFCE
:10BEF000B8F1060F09D8DFE808F00412181F28333C
:10BF0000400031462846FDF71AFB002229463846F4
:10BF1000FFF7BCFF85F80C9005B0BDE8F083226800
:10BF200031462846FDF70BFBEFE7D4E90023314605
:10BF30002846FDF704FBE8E7A36800933146D4E9FF
:10BF400000232846FDF7FBFADFE7E3680193A368C7
:10BF500000933146D4E900232846FDF7F0FAD4E7F0
:10BF600023690293E3680193A36800933146D4E9FF
:10BF700000232846FDF7E3FAC7E7636903932369C3
:10BF80000293E3680193A36800933146D4E9002348
:10BF90002846FDF7D4FAB8E708292DE9F74F80467F
:10BFA0000E4617461C463CD8002593F80C901D738E
:10BFB00019461046FFF72CFFDFF888A0DFF888B09D
:10BFC000AE4231D918F8052059462046FDF7B7FA98
:10BFD0000135082DF4D11949194DDFF870A020461C
:10BFE000FDF7ADFA4FF0000B5E4522D918F80B2093
:10BFF0007E2A05D81046019206F05AFE019A00B931
:10C000002E2251462046FDF79AFA0BF1010BBBF1A7
:10C01000080FE9D1012221463846FFF737FF84F89F
:10C020000C9003B0BDE8F08F51462046FDF787FA2B
:10C03000CEE729462046FDF782FAE6E725A0030071
:10C0400023A0030021A003001BA0030027A00300DE
:10C0500028B139B10023C1E900301846704748F2D1
:10C060001050704748F21350704730B1036848F2DF
:10C0700040508B4208BF0020704748F21050704774
:10C0800030B119B10B68934205D30A6000207047A4
:10C0900048F21350704748F2145070472DE9F041B0
:10C0A0000C4600AF80461146204615461E46FFF757
:10C0B000CFFF00BB31462046FFF7CAFFD8B922792F
:10C0C000104B53F82230CBB1B8F1000F0AD10E4912
:10C0D00031F8124034B107346A46E408A2EBC402D6
:10C0E0009546E846324629464046984718B9074BD8
:10C0F0002B60063B3360BD46BDE8F08148F203503B
:10C10000F9E700BFCCA00300B0A003007652464D73
:10C1100070B505460C461E46FFF79AFF70B9AB791D
:10C120006AB1B3420ED12979094B53F8213063B17A
:10C1300011462046984708B9064B236070BD48F267
:10C140001050FBE748F21150F8E748F20350F5E7CA
:10C1500000A103007052464D2DE9F0410D460D49F6
:10C1600004461646FFF781FF90B967683146BA79F1
:10C170002846FFF785FF58B93A79074B53F8223024
:10C1800023B129462046BDE8F041184748F2035044
:10C19000BDE8F0817052464D34A10300F0B530B1D6
:10C1A0004079B3B1C9B18AB948F2135313E01846C4
:10C1B000F7E7441E00254E5D0F5D575516550135B6
:10C1C000013CA542F7D91B1A014402448342F0D234
:10C1D0000BB148F211531846F0BD48F21053FAE77C
:10C1E0002DE9F8430D4600AF04461D492846164682
:10C1F0009846FFF73AFF48BB1A493046FFF735FF2C
:10C2000020BBD5F804907368994522D199F8052090
:10C21000396A4046FFF734FFC0B999F80430124A32
:10C2200052F82390B9F1000F16D054B90F4A32F8E2
:10C23000133033B107336A46DB08A2EBC3039D46D4
:10C240006C464346324629462046C847BD46BDE8AF
:10C25000F88348F24150F9E748F20350F6E700BF8F
:10C260007652464D7052464D68A1030098A10300D6
:10C27000F8B50A4F0A4C0B4EE41B0123E408337057
:10C280000025A54203D1022333700020F8BD57F8E2
:10C29000353098470028F9D10135F2E7449603007C
:10C2A0004C960300E0360020054B1A78022A04D091
:10C2B0001878431E5842584170470120704700BF0C
:10C2C000E036002070B506460D466A46194B9A4284
:10C2D00005D3FFF7E9FF78B94FF4054070BD164B61
:10C2E00016481749C01AC008000440F00100FFF7C3
:10C2F00017FD48F21950F1E7124C236823B1124B95
:10C300001A68124B9A420FD086B97DB9104811496C
:10C31000206000F0EDFF0028E0D10B4B0B4A1A60C3
:10C3200023680D4A1A60D9E70020D7E748F2175072
:10C33000D4E700BF00E003204C9603007C96030086
:10C34000B0A10300B04F0020CC3700206572E54B50
:10C35000E4360020D03700206169614D10B56C468D
:10C36000154B9C420FD3DAB9144B1C68144B9C42FA
:10C370001BD1E8B913481346BDE810400A460068CF
:10C38000114900F0F3BF114B11481249C01AC008FF
:10C39000000440F00100FFF7C3FC48F2195010BD43
:10C3A0000029E1D148F21050F9E748F20250F6E7CF
:10C3B00048F21750F3E700BF00E00320CC3700201D
:10C3C0006572E54BB04F0020D03700204C9603003B
:10C3D0007C960300B0A1030073B513460D460446D6
:10C3E000F8B111B3144A1168144A914220D1144E85
:10C3F00001932A460146306800F09AFF48F27152D4
:10C40000904210D1002211461046FFF7A7FF50B905
:10C41000019B30682A46214602B0BDE8704000F01A
:10C4200087BF48F2135002B070BD48F21450FAE7CB
:10C4300048F20250F7E700BFCC3700206572E54BA9
:10C44000B04F00200122FFF7C7BF0022FFF7C4BF93
:10C4500033DF704776DF704778DF70477ADF7047E9
:10C460007CDF70478FDF7047FBF7D4BB08B5002037
:10C47000FBF746F908B1FBF7CDFBFBF729FA08B14A
:10C48000FBF7C8FBFFF7E4FF18B1BDE80840FBF776
:10C49000C1BB08BD034B0448197881F00101197034
:10C4A00006F0C1B8405500208854002010B512494C
:10C4B000124C1348FDF7BDFE236881B201331148C9
:10C4C000236006F067F830F0080209D020F002027D
:10C4D000112A05D043F20142904201D0FBF79AFBAA
:10C4E000094A23685343B3F1553F084A94BF0023D8
:10C4F0000123137010BD00BF4C540020B44F002026
:10C500005C54002088540020ABAAAAAA262C002044
:10C5100008B50D490D48FDF78CFE4FF6FE72C1B20D
:10C520000B4805F0E7FD30F008020BD020F00202C6
:10C53000112A07D043F20142904203D0BDE80840DF
:10C54000FBF768BB08BD00BF00540020105400205A
:10C55000EC53002010B50388212B86B004460FD879
:10C560000F2B11D9103B112B0ED8DFE803F00F2C45
:10C570000D0D0D0D0D4F5C630D0D0D0D0D0D0D3CD5
:10C580003B2B3ED0562B3CD006B010BD354B364829
:10C590003649C01AC008000440F00300FFF7C0FB92
:10C5A0000720FBF7ADF808B1FBF734FB304BA1884F
:10C5B0003048198003F0C8FA0028E5D006B0BDE87D
:10C5C0001040FBF727BB274B2748227A2A49C01A7D
:10C5D000C008000440F00300FFF7A6FB244B4FF611
:10C5E000FF721A80D0E7002380888DF8143005A9E7
:10C5F0008DF81530FFF736FF0028C5D0FBF70AFB92
:10C60000C2E7A0881321FFF725FFD5E71648154B91
:10C610001A49C01AC008000440F0030006B0BDE883
:10C620001040FFF77DBB10480E4B1549C01AC008DB
:10C630000004F1E7437A0B4A0B481249801A627BE7
:10C640000292227B0192A27AC008C2F3C0020004C7
:10C650000092C3F38003227A40F00300FFF791FBBE
:10C6600092E700BF4C9603007C960300C9A103002B
:10C67000242C0020D8540020D4A10300EDA10300F5
:10C680000AA2030029A203000A8840F677239A42EF
:10C6900010B50C460BD1094B09484A88C01AC0088E
:10C6A00000048B88074940F00300FFF746FB214652
:10C6B0000548BDE8104005F0B9BF00BF4C96030027
:10C6C0007C9603007FA203008854002008B50378FD
:10C6D0004BB9054B3B211888FFF7BCFE18B1BDE8EC
:10C6E0000840FBF797BA08BD242C0020072808B59E
:10C6F00013D00A280DD0042819D10D4B1321188806
:10C70000FFF7A8FE30F0080311D0BDE80840FBF7A2
:10C7100081BABDE80840FFF7A9BE054B1A884FF65D
:10C72000FF739A4203D1034801F01FFCEAE708BDFA
:10C73000242C0020B84F002008B598B1032815D14B
:10C740000B4B0C480C49C01AC008000440F0030011
:10C75000FFF7E6FA0220FAF7D3FF38B1BDE8084048
:10C76000FBF758BABDE80840FFF780BE08BD00BF20
:10C770004C9603007C960300AEA2030008B51B4B49
:10C780001B78002B31D01A491A48FDF752FD81B2AF
:10C79000194805F02EFF16491648FDF74AFD81B2EB
:10C7A000154805F026FF12491248FDF742FD81B2F7
:10C7B000114805F01EFF0E490E48FDF73AFD81B203
:10C7C0000D4805F016FF0A490A48FDF732FD81B20F
:10C7D000094805F00EFF06490648FDF72AFDBDE8A9
:10C7E000084081B2044805F004BF08BD262C002093
:10C7F000E4540020F45400208854002008B5054873
:10C80000032101F06AFA18B1BDE80840FBF702BA4B
:10C8100008BD00BFB84F002010B5044604F0C4FCAA
:10C82000204604F09FFA23780C2B03D1BDE810407A
:10C83000FFF7E4BF10BDFBF7EDB9000008B580B10C
:10C840000A4B0B480B49C01AC008000440F0030013
:10C85000FFF766FA04F012F838B1BDE80840FBF7BC
:10C86000D9B9BDE80840FFF7C9BF08BD4C96030021
:10C870007C960300C0A2030080B54FF48041B6B09F
:10C880000020FFF7B3F808B1FBF7C4F9FEF7ECFF9F
:10C89000FBF77EFA08B1FBF7BDF9B64AB6480121AD
:10C8A000FBF7A8FA08B1FBF7B5F9B44AB44801217F
:10C8B000FBF7A0FA08B1FBF7ADF9B24AB248012183
:10C8C000FBF798FA08B1FBF7A5F9B04AB048012187
:10C8D000FBF790FA08B1FBF79DF9AE490320FAF790
:10C8E0001BFF08B1FBF796F90BA90020FBF700F836
:10C8F00008B1FBF78FF99DF82C40A51E6C426C41E6
:10C90000FDF758FB08B1FBF785F905F0FFFE08B10C
:10C91000FBF780F900230BA901200B9305F0C8FF5A
:10C9200008B1FBF777F90BA806F094F808B1FBF70C
:10C9300071F9112398488DF81C3006F06EFA96496B
:10C9400082B207A8FFF78CFD08B1FBF763F940F24C
:10C950004130FFF781FD08B1FBF75CF908220021A7
:10C960000BA806F027FA4FF4A073ADF82C304FF463
:10C970000273ADF82E300023ADF830300BA84FF421
:10C98000C873ADF83230FFF769FD08B1FBF742F923
:10C990008249834802F02EFE08B1FBF73BF90021E3
:10C9A000AC220BA806F006FA02238DF82C3040F2D8
:10C9B0000163ADF82E300323ADF83C30794B109372
:10C9C00001234FF496708DF8A83044F25063CDE9FE
:10C9D0002D030BA9744B7548349301F007F908B186
:10C9E000FBF718F97148012101F0FDF8704B71480F
:10C9F000029302A903F096F808B1FBF70BF90323A1
:10CA00000021102203A88DF8073006F0D3F9002387
:10CA1000039301238DF810300DF107030593664849
:10CA200040F2011303A9ADF8183005F044FD08B138
:10CA3000FBF7F0F81022002107A806F0BBF900234D
:10CA40000793012209935D485D4B8DF8202007A9CB
:10CA50000A9305F0DBFA08B1FBF7DCF8402200216D
:10CA60000BA806F0A7F90BA8564901F07CFD01239D
:10CA70000BA88DF8683005F0D3FB08B1FBF7CAF8B6
:10CA800051495248512301266427C1E900378E607D
:10CA90000E73FDF7A7FB4E494E488C224FF4967358
:10CAA000C1E9002300250A238B600D73FDF79AFB73
:10CAB00049494A480F604FF4FA73C1E901360D73D2
:10CAC000FDF790FB29461C220BA806F073F94FF4E2
:10CAD000F0234FF4A031CDE90C1303238DF8383047
