:020000022000DC
:1070000000000420757302005D7302005F730200CC
:1070100061730200637302006573020000000000E8
:107020000000000000000000000000006773020084
:1070300069730200000000006B7302006D730200B0
:10704000059702006F730200A59B02006F73020098
:107050006F7302006F730200299A02006F730200BF
:107060006F7302006F7302006F7302006F73020090
:107070006F7302006F7302006F7302006F73020080
:107080006F730200198602006F7302006F730200B3
:107090006F7302006F730200A5B402006F730200E9
:1070A0006F7302006F7302006F7302006F73020050
:1070B0006F7302006F730200000000000000000008
:1070C0006F7302006F7302006F7302006F73020030
:1070D0006F7302006F7302006F7302006F73020020
:1070E0006F7302006F7302006F73020000000000F4
:1070F000000000006F730200000000006F730200C8
:10710000000000000000000000000000000000007F
:10711000000000000000000000000000000000006F
:10712000000000000000000000000000000000005F
:10713000000000000000000000000000000000004F
:10714000000000000000000000000000000000003F
:10715000000000000000000000000000000000002F
:10716000000000000000000000000000000000001F
:10717000000000000000000000000000000000000F
:1071800000000000000000000000000000000000FF
:1071900000000000000000000000000000000000EF
:1071A00000000000000000000000000000000000DF
:1071B00000000000000000000000000000000000CF
:1071C00000000000000000000000000000000000BF
:1071D00000000000000000000000000000000000AF
:1071E000000000000000000000000000000000009F
:1071F000000000000000000000000000000000008F
:10720000354936480A1A02D0072291438D4634493F
:1072100034480A1A06D00722914381F309880222D2
:1072200082F3148830483149314A00F044F831483B
:107230003149324A00F03FF831483249324A00F0D1
:107240003AF832483249334A00F035F83248334987
:10725000334A00F030F833483349344A00F02BF811
:1072600033483449344A00F026F83448344900227F
:1072700000F02CF833483449002200F027F8334856
:107280003349091A082902DB002202604160314AB1
:1072900090471F481F49884205D00268043003B454
:1072A000904703BCF7E700208646EC46002000210B
:1072B000294A9047FEE7884207D0521A05D0037842
:1072C00001300B700131013AF9D17047884202D088
:1072D00002700130FAE770470000042000E003204C
:1072E00000000420000004202CD00200D818002048
:1072F00040190020D0730200D07302008CC102003C
:107300002CD00200D8180020D818002040C202005B
:1073100040C2020040C2020040C2020040C202005D
:1073200040C2020040C2020040C202002BD0020054
:1073300094D002004019002040190020401900207C
:107340008423002084230020842300208423002021
:10735000844300209D73020089AB0200FEE7FEE734
:10736000FEE7FEE7FEE7FEE7FEE7FEE7FEE7FEE7F5
:1073700000F002B8FFF7FCBF0F484FF00701884349
:1073800085460E4880470E48016841F4700101604F
:10739000BFF34F8FBFF36F8FFFF732BF09480A4922
:1073A0000A4A884207D0521A05D0037801300B7080
:1073B0000131013AF9D17047000004204D910200DB
:1073C00088ED00E040C20200D8180020D818002044
:1073D000F0B595B01D46164608460C4601F08AFCED
:1073E0001A9B0D93CDE9086500252B46082205A9B7
:1073F00020460A958DF82C500C9501F097FC079BC0
:107400000293069B03939DF814308DF8115003F0FE
:107410000302012A1DD1BDF81420059DC3F3C20348
:10742000C2F383168DF81030B20008230EA920464F
:1074300001F07CFCC5F3952508AB0093324602AB06
:107440000EA9284600F060FB204601F057FC15B05D
:10745000F0BD022AF8D1BDF81650C3F3C203C5F33C
:1074600089158DF810300827082D2E4628BF0826CC
:107470003B4632460EA9204601F058FCAD1B08AB36
:1074800002AA31460EA8374400F0A2FB002DEBD132
:10749000DAE70000014B01221A70704781190020C1
:1074A0007047000070B50E4D06460FCD88B06C4693
:1074B0000FC495E80F00002E84E80F00094A0A481F
:1074C0004FF0060308BF00226946009302F0A2F8BD
:1074D00008B100F04BFD054B1E7008B070BD00BF39
:1074E00040C2020095740200D81800204019002004
:1074F00007B5044B0093044A4023FFF769FF03B02C
:107500005DF804FB0D7502004119002038B50D48E7
:107510000D4C0E4D002323700378EB5CD2B263B1A7
:10752000043003F093F808B100F020FD084B1A78FE
:1075300012B12378002BFBD038BD0C3002F09CFD3B
:10754000F1E700BFD818002081190020CC1F0020CF
:107550004019002008B50848084A0378D35C3BB1BD
:10756000043002F0E3FFBDE808400020FFF79ABFB7
:107570000C3002F019FDF6E7D8180020CC1F0020CF
:10758000037813F0040216D003F00303012B03D099
:10759000022B09D0012070470A6800880232C0F32C
:1075A000831002440A60F5E70B684288023303EB5C
:1075B00092130B60EEE71046704700002DE9F04F84
:1075C000DFF81CA187B00F4600230446861C0DF18E
:1075D000070015468DF8073000F0B0FEDAF80420F9
:1075E0003A60DAF8083003F580739B1A0AF21C47F8
:1075F0000AF583690AF21448B3421AD30020002D19
:1076000069D004F00F039B0143F0050363F30F00FF
:10761000DAF80430DAB2033233444AF822009DF833
:107620000700CAF8043000F0ADFE012007B0BDE845
:10763000F08F0121384601F0A4F8484601F0B9F86E
:10764000404601F0B6F8DAF808000290C0B2033004
:107650000AEB800002A9FFF793FF029B30BBDAB26E
:107660000AEB8202D16803919A1C0133DBB20AEB68
:1076700083030292D3F80CB001F00303012B22D054
:10768000022B15D08346404601F096F810B1029BBC
:10769000CAF808305946384601F073F8DAF808306D
:1076A000DAF8042003F580739B1AA5E7D8B2CEE779
:1076B000BDF80E30C3F3891303334FEA1B4B02EBC3
:1076C00093030293DFE7BDF80C30C3F383134FEA53
:1076D0001B4B1344F5E7A40544F0060098E700BFF0
:1076E000541A002030B50A4C71B10A4A0A49121BDB
:1076F000D20800239A4201D1002030BD31F8235036
:10770000854202D00133F5E7034654F83300F4E72D
:10771000C0C1020030C20200D8180020094B013954
:1077200003EBC000032909D8DFE801F00A020406D0
:1077300004207047007970474079704700207047F7
:1077400002207047C0C10200034BD3E90130C31AC5
:1077500058425841704700BF541A00202DE9F041AB
:1077600086B0FFF7F1FF0546002840F0ED80774C2A
:10777000C4F81804BFF34F8FA3680293DBB203333E
:1077800004EB830002A9FFF7FBFE029B18B1D4F8BB
:107790001824002A5AD0DAB2991C013304EB820271
:1077A000DBB204EB8303D268DB68049302F00303CB
:1077B000022B0392029154D1BDF80E306448C3F3FA
:1077C0008917502F3E4628BF502606F1080166F360
:1077D0008F13C1F30901ADF80E3001F05CFA0546D4
:1077E000002800F09C8001F085FA0023082203A9FC
:1077F000284601F091FA0299CB43DBB20133C9B2BA
:107800000331B6EB830F4FEA830204EB810125D9E4
:107810005FFA82F80823A6EB0806284601F07CFAF6
:10782000F6B208F108034B4903F0FC033246284640
:1078300001F072FA029B033703EB97070297D4F823
:107840001834002B43D1D4F8106453E062689A4294
:1078500094D8A260284606B0BDE8F08108233246DD
:10786000E5E7012B5BD1BDF80C303948C3F3831138
:10787000062928BF062161F38913023101F00F01A7
:107880008900ADF80C3001F006FA0546002846D014
:1078900001F030FA0023082203A9284601F03CFA3F
:1078A0000026BDF80C20C2F38312B300964203F108
:1078B0000803C4D202994A1CC9B20331029204EBF4
:1078C00081010422284601F027FA0136E9E728461B
:1078D00001F014FAFFF738FF80F00100C5B2B9E7F4
:1078E000F3685B7923B1336829461B6830469847B3
:1078F000F3681E68002EF3D1284601F0FFF90DF160
:1079000007008DF8076000F019FDD4F818340BB9A2
:10791000029BA3609DF8070000F034FDDAE7D4F87D
:10792000104454B90C4B0D480D49C01AC00800044E
:1079300040F0020000F05CF8CCE7236820469B682A
:107940009847E3681C68ECE7002583E7541A002099
:10795000ACC10200601A0020C0C10200E8C10200F0
:107960007DC202002DE9F34704460E46924601A966
:10797000012218469946FFF721FE1B4F10B3019DC7
:107980004FF00008AA1CC84508EB020123D1174894
:10799000002100F0D3FE80F31000000440EA144000
:1079A000E4006B1C04F03804DBB2EDB244F00104D7
:1079B00007EB8303033544EA881444EA8624D8603D
:1079C00047F825403B781BB1FFF7C8FE0028FBD1E4
:1079D00002B0BDE8F087C9B207EB81015AF8283040
:1079E000CB6008F10108CEE7541A0020701E002079
:1079F00000231A46FFF7B6BF07B50123019201AA7B
:107A0000FFF7B0FF03B05DF804FB07B5CDE9002335
:107A100002236A46FFF7A6FF03B05DF804FB0000EF
:107A200038B5084B0125D3F810441D7004B938BD92
:107A3000E3685D71236820465B689847E3681C68CB
:107A4000F4E700BF541A002030B5C38885B004465F
:107A50000D4633B1144A00921449154A284600F0E5
:107A6000F7FE217A05291DD0637A4BB1A088FFF774
:107A700055FE104B104953F82020284600F0E8FE30
:107A8000227A0E4BA08853F8222003920021FFF7A0
:107A900029FE039A0A490346284605B0BDE830404E
:107AA00000F0D6BE05B030BDB2C202009AC20200DC
:107AB00092C2020020C30200B7C2020044C3020007
:107AC000BAC2020007B503460846197A052911D043
:107AD0005B7A2BB1094A0A49019000F0B9FE01987E
:107AE0000849019000F0B4FE019803B05DF804EB82
:107AF00000F0A3BE002AF8D0F2E700BFB2C2020035
:107B0000B7C20200FFCA02002DE9F04385B01F464C
:107B10000C9D002395F80C902B7306460C4690465E
:107B200029463846FFF790FFB8F1060F09D8DFE87D
:107B300008F00412181F283340003146284600F090
:107B400087FE002229463846FFF7BCFF85F80C90D7
:107B500005B0BDE8F08322683146284600F078FE83
:107B6000EFE7D4E900233146284600F071FEE8E74C
:107B7000A36800933146D4E90023284600F068FE4C
:107B8000DFE7E3680193A36800933146D4E900235B
:107B9000284600F05DFED4E723690293E368019371
:107BA000A36800933146D4E90023284600F050FE34
:107BB000C7E76369039323690293E3680193A368AA
:107BC00000933146D4E90023284600F041FEB8E78F
:107BD00008292DE9F74F80460E4617461C463CD82B
:107BE000002593F80C901D7319461046FFF72CFFE3
:107BF000DFF888A0DFF888B0AE4231D918F8052048
:107C00005946204600F024FE0135082DF4D11949CB
:107C1000194DDFF870A0204600F01AFE4FF0000B5F
:107C20005E4522D918F80B207E2A05D8104601920D
:107C300003F080FE019A00B92E225146204600F042
:107C400007FE0BF1010BBBF1080FE9D10122214620
:107C50003846FFF737FF84F80C9003B0BDE8F08F8B
:107C60005146204600F0F4FDCEE72946204600F0BC
:107C7000EFFDE6E7CEC20200CCC20200CAC202009B
:107C8000C4C20200D0C20200C30710B507D4F0235B
:107C9000054A4008145C23401943115410BD0901E2
:107CA000C9B20F23F4E700BFA81E002030B5094B6E
:107CB0001C78094B196800239C4202DC0022104604
:107CC00030BD11F83350854201EBC302F7D00133C8
:107CD000F2E700BF741E0020C81E002013B5044642
:107CE0000191FFF7E3FF38B143682BB101992046BA
:107CF00002B0BDE81040184702B010BD034B044865
:107D000019680022490800F02CBA00BF781E002034
:107D1000801E002010B5C0B2FFF7C8FF04460078EF
:107D200001F074FE63785A1E53425341834208D1D6
:107D3000044BD3E90023134303D1BDE81040FFF700
:107D4000DDBF10BDA01E002037B54308374AD35C05
:107D5000C2074CBF1B0903F00F0304460D46042B5A
:107D600025D8DFE803F003262F3C4000F9B10121BC
:107D7000FFF78AFF00230DF107008DF8073000F0B0
:107D8000DDFA0120A4F12003C4F12001284A20FAE1
:107D900001F100FA03F30B43A040D2E90041204374
:107DA0000B43C2E900039DF8070000F0EBFA03B0B3
:107DB00030BD002918BF0221204603B0BDE8304085
:107DC000FFF762BF49B10321FFF75EFF01212046A3
:107DD00003B0BDE83040FFF781BF0121ECE7002987
:107DE000E5D10421E8E709B10321E5E7FFF74CFFFE
:107DF00029462046FFF772FF0DF107008DF8075066
:107E000000F09CFA0120A4F12003C4F12001084AEB
:107E100020FA01F100FA03F30B43A040D2E900413C
:107E200024EA000021EA0303BBE700BFA81E0020EC
:107E3000A01E00202DE9F041124E134F002433788C
:107E4000A34208DC114BD3E90023134318D0BDE84B
:107E5000F041FFF753BF3D6805EBC40815F8340047
:107E600001F0D4FD98F801305A1E53425341181ABC
:107E70004142414115F83400FFF766FF0134DEE767
:107E8000BDE8F081741E0020C81E0020A01E002046
:107E9000092AF7B505460C4616463ED901F0DEFC28
:107EA000E8B11F4B1F481D601F4B204F1C70204B1B
:107EB000002120221E6003F0E5FD1E4B0020002162
:107EC000C3E90001013CE4B20326FF2C0DD11A4A9C
:107ED0001A48002103B0BDE8F04000F037B901F0C6
:107EE00077FC0028DDD003B0F0BD9DF8063015F812
:107EF00034008DF8046005EBC40223F007038DF80D
:107F0000063001A993788DF805303A4601F0B0FCAF
:107F1000013CE4B20028D8D0E5E70720E3E700BF42
:107F2000C81E0020A81E0020741E0020157D02001F
:107F3000781E0020A01E0020357E020064C30200CF
:107F400070B5084D084E00242B789C4201D30020C8
:107F500070BD3368012113F8340001F009FD0134CC
:107F6000F2E700BF741E0020C81E00201FB50021CC
:107F7000039001AA44F20100CDE9011100F004F8D8
:107F800005B05DF804FB000038B572B6FFF748FD98
:107F9000FFF7E4FB0028FBD1104B114C114D1249A7
:107FA000E41AE408240444F00100FFF721FDD5F8A9
:107FB000F030DB0700D500BE0C4944F00200FFF7AB
:107FC00017FDBFF34F8FEA68094B02F4E0621343D9
:107FD000EB60BFF34F8F00BFFDE700BFC0C10200E1
:107FE000E8C1020000ED00E068C3020074C30200B3
:107FF0000400FA0510B5D0E90243D1E90202A0421B
:1080000072EB03032CBF0120002010BD08B50A4805
:1080100000F0EBFA094AD2E90031C018084BD3E965
:10802000002341F10001904271EB030303D210F1F0
:10803000807041F1000108BDF4180020D01E00201E
:10804000481F002037B505460C460A4801A900F034
:1080500000FB60B10570446001A9064800F023FBF5
:1080600018B1054800F0C6FA002003B030BD042066
:10807000FBE700BF341F0020F418002038B5184B70
:108080001B78044613B90025284638BD0028FAD0CD
:10809000037F03F0FF05002BF5D0FFF7B7FFD4E90E
:1080A0000223904271EB030314D3236903B92377AE
:1080B000D4E90530984721690029E4D0237F03F0F3
:1080C000FF05002BDFD0D4E902325B1842F1000239
:1080D000C4E902320348214600F088FED4E700BF1D
:1080E000D81E002090C3020013B5114B1149186827
:1080F000019008231048582200F098FA044698B9D5
:108100000E4A0F4801A900F061F9044660B90C4815
:10811000012100F04DFA01230A4A0948194600F0EE
:10812000AFF9094B01221A70204602B010BD00BF02
:108130008CC30200DC1E0020341F0020AD81020031
:10814000F4180020FFFF7F00D81E00203AB103681A
:108150005A614A1E5142514119610020704707205F
:10816000704738B5037F04460D4683B98261FFF737
:108170004DFF2369281841F10001C4E9020103B150
:10818000256121460020BDE83840FFF75BBF002095
:1081900038BD0023014603770120FFF753BF0000DD
:1081A000014800F022BA00BFF41800202DE9F3477F
:1081B000064600F005FA40B1584AD2E9003113F101
:1081C000807341F10001C2E900310021304600F026
:1081D00006FA38B1524C236823B12068FFF74EFFEE
:1081E000002323600121304600F0F9F920B1FFF7A8
:1081F0000DFF4C4BC3E900014B48494D4B4C4C4FD4
:1082000001A900F060FA002842D1DFF82081444C37
:10821000DFF82491404600F0FFFD2368002872D06B
:108220007BB12368D0E90252D3E902138D4272EB8D
:1082300003032AD223681B7F1BB12168404600F04C
:10824000D5FD404600F0E2FDD0E9027A0546FFF791
:10825000DDFE381A6AEB010A01287AF1000345DBDA
:10826000B0F5350F40D3FFF79BFF324A02444FF47D
:1082700096030021484600F023F900283ED12368E8
:1082800013B9304600F0F4F8256002B0BDE8F0877D
:108290000378012B1DD0022B09D14FF00008204696
:1082A00000F0B4FD002836D080F81C80F7E73BB919
:1082B00041680B7F23B901230B77204600F096FD20
:1082C00001A9194800F02AFA01A9174800F0FBF9A2
:1082D00099E741682B68994202D100232B60EFE7B0
:1082E000204600F09CFDEBE7AA68C0E70021484665
:1082F00000F06BF92846FFF7C1FE01E00D28F9D028
:108300000023236086E7002BBFD1304602B0BDE8D2
:10831000F04700F0B1B801233B70D1E7D01E002038
:10832000501F0020481F0020341F002090C302006F
:10833000D81E0020FFFFB400F418002070B5EFF342
:10834000108672B60C4A946801239CB993600B4B5B
:108350000B4DD3F8801029401160C3F88050D3F83A
:10836000841051604FF0FF32C3F88420047006B9C6
:1083700062B670BD0370FAE7541F002000E100E010
:10838000FC06FFBD084B9A6810B55AB150B9EFF31F
:10839000108172B6054A1C6814605C68546098606D
:1083A00001B962B610BD00BF541F002000E100E01B
:1083B000435882B03BB10023435043580193019B83
:1083C000012002B070471846FBE70000F8B5204BCB
:1083D0004479204E43F824201F4A204B06EBC40466
:1083E0009B1A2279DB081B0432B143F002001C49BE
:1083F000FFF7FEFA0820F8BD02680C88C2F80845AD
:1084000090F904508A7804795201002DD2B219DB18
:1084100014494F1987F8002301226D0904F01F0445
:1084200002FA04F441F82540427906EBC201012426
:1084300046F832000C7143F003000B49FFF7D8FAFD
:108440000020D8E7094904F00F040A55ECE700BF03
:10845000681F0020601F0020C0C10200F8C1020098
:108460009CC3020000E100E0BEC3020014ED00E086
:10847000036801221A607047036801225A6070473E
:1084800073B501F15005AD000068ADB24FF4803412
:108490008C400026C0F80843C0F84843465101F517
:1084A000A8714559019522F07F42019D40F8212095
:1084B000C0F844430BB1C0F8044302B070BD0000E3
:1084C0002DE9F74F0D4622F07F4402684FF48037C4
:1084D00005F150068F408046B60002EB8500C2F8D9
:1084E0004873B6B2C2F80873D2F8041599464FF033
:1084F000000BD0F84035C0F8401542F806B05B1AC2
:108500009259009223F07F43012B009A4FEA850A8B
:108510000CD1264B4FF4806043F001039847D8F804
:10852000003043F806B09B590193019BD8F8001026
:10853000D1F80465C1F84473A31B23F07F43012BDA
:108540001CD11A4B05F5A875013443F0010341F81D
:1085500025404FF480609847D8F80030D3F80435B0
:108560009E4209D1D8F800300020C3F84473C3F804
:10857000047303B0BDE8F08F0D20FAE78A44C9F117
:10858000FF13CAF84045D1F80405221A013A22F037
:108590007F4203F57F439342EED3002AE2D10134B8
:1085A000CAF84045D1F804359842DAE7D0C3020052
:1085B00003680222C3F8442309B1C3F804237047B7
:1085C00000684FF48271FFF7F3BE4FF4803303FA73
:1085D00001F10368C3F84813C3F80813704750311A
:1085E0008900006889B2FFF7E3BE0368D3F8040589
:1085F0007047000090F90430002B09DB5A09012173
:1086000003F01F0301FA03F34032024941F822301C
:10861000704700BF00E100E0024B034A1B6810688E
:10862000184700BF681F0020601F002010B561B10F
:10863000B2FBF3F403FB1424A4B244B9C0E9001460
:1086400084608281C381204610BD0E20FCE7092092
:10865000FAE737B550E8013F9DB2C48925448489C3
:10866000A54228BF2D1B0489A54202BFBFF32F8F4F
:10867000002207E0C5EA030540E80154002CE9D1D7
:108680004FF001028DF803200193019A0A609DF8D2
:10869000031001F0FF0321B1006810FA82F003B06B
:1086A00030BD1846FBE70A884B889A4209D150E84A
:1086B000012FC2EA024240E80123002BF7D101203A
:1086C00070470020704737B550E8023F1FFAA3F506
:1086D000C488A54202BFBFF32F8F00220DE0C489DA
:1086E00025448489A54228BF2D1BC3EA054540E8DF
:1086F0000254002CE8D14FF001028DF803200193C1
:10870000019A0A609DF8031001F0FF0321B100688F
:1087100000EB124003B030BD1846FBE70A884B88D7
:108720009A4209D150E8022FC2EA224240E80223CD
:10873000002BF7D1012070470020704710B5034689
:1087400053E8000F0A4643E8002494F0000FF7D1E5
:1087500010BD10B5034653E8002F42EA010043E87C
:10876000000494F0000FF6D110BD10B5034653E895
:10877000000F00EA010243E8002494F0000FF6D154
:1087800010BD10B5034653E8002F02EB010043E88B
:10879000000494F0000FF6D110BD10B5034653E865
:1087A000002FA2EB010043E8000494F0000FF6D183
:1087B00010BD0121FFF7CDBF0021FFF7D6BF37B5B0
:1087C000054600240DF107008DF80740FFF7B6FDC0
:1087D0002A686B68116899420ED9481E106011F81A
:1087E000013CEC68298A01FB0344AB6811791B1A30
:1087F000DBB2994238BF13719DF80700FFF7C2FD45
:10880000204603B030BD37B5054600230DF1070003
:108810000C468DF80730FFF791FD2A681368591C44
:108820001160E968641A298AB4FBF1F41C709DF8A0
:108830000700FFF7A7FD03B030BD826810B50446FE
:108840002AB143690168006998470023A36010BDFD
:108850000EB403B5039921B104AB01AA019300F052
:1088600077F802B05DF804EB03B070470A2938B519
:1088700004460D4602D10D21FFF7F8FFA3682268D8
:10888000591CA160D554D4E901329A4204D3204640
:10889000BDE83840FFF7D1BF38BD00002DE9F84FE3
:1088A0009846DDE90A43154682460F460A464FF0D0
:1088B0000109AA420FD2C14538BFC14613F0010BCE
:1088C00001D16CB900240126B8F1010F1BD908F1C0
:1088D000FF386E43F8E709F10109B2FBF5F2E8E76A
:1088E0009B070ED5B8F1000F0CBF30262026A145FE
:1088F000E9D2013C31465046FFF7B8FF002CF6D1D3
:10890000E0E72026F3E7B7FBF6F39D42E1D9DFF875
:108910003C80B7FBF6F3504618F8031006FB1377BC
:10892000FFF7A4FF3346AB42B6FBF5F6F1D2BBF13D
:10893000000F02D00CB1A14501D3BDE8F88F202172
:108940005046013CFFF792FFF4E700BFD6C3020098
:108950002DE9F74F054617468846002900F03E816D
:1089600018F8011B49B92B7B002B00F037812846F2
:1089700003B0BDE8F04FFFF760BF252940F0B78096
:10898000002698F800302D2B424608F1010823D02C
:10899000302B24D02B2B25D000242A2B02F10101CF
:1089A00023D13B681A1D1B683A601C440A461378A1
:1089B0002E2B26D101324FF0000A104610F8011B71
:1089C000A1F1300CBCF1090F1DD80A2303FB0A13D7
:1089D000A3F1300A0246F0E746F00106D1E746F07F
:1089E0000206CEE746F00406CBE711F8013CA3F1FE
:1089F00030000928DBD80A2202FB0434303C0A4646
:108A0000CBE74FF0000A12F8011B01F0FB006828C9
:108A10009046F8D0782909D86F290CD8632962D0FC
:108A200022D8252963D0582900F0888098F8003092
:108A3000002B95D197E770390829F7D801A353F88F
:108A400021F000BFB78B02002D8A02002D8A0200A0
:108A50004D8B02002D8A02002B8B02002D8A020012
:108A60002D8A02003D8B0200642901D06929DDD1E5
:108A70003A68D2F80090111D89EAE9723960A2EBD8
:108A8000E9724FF0010B092A35DCD34538BFD346D4
:108A90002CB1B9F1000F01DB720700D5013CB3071F
:108AA00002D5BAF1000F03D0F00701D44CBB00246B
:108AB000B9F1000F2DDAC9F100092D212846FFF781
:108AC000D5FE06F00302022A04D1BAF1000F01D14B
:108AD0001CBB0024CDE9004653460A2249462846DD
:108AE000FFF7DCFEA2E73B681A1D19783A602846BA
:108AF000FFF7BCFE9AE70A230BF1010BB2FBF3F27E
:108B0000C1E7A345D4D220212846013CFFF7AEFEA1
:108B1000CCE77107D5D52B21D0E7A345DAD2302198
:108B20002846013CFFF7A2FED2E73968CDE90046AE
:108B30000A1D3A6053460A220968D0E739680A1DBF
:108B40003A60CDE9004653461022F5E73B681A1D0E
:108B50003A6016F00106D3F8009024D1B9F1000F65
:108B600003D0484602F0C1FF0646B4421DD809F1C1
:108B7000FF3919F8011F00293FF458AF2846FFF7C5
:108B800075FEF6E728460136FFF770FE19F8061065
:108B90000029F7D1A642BFF449AF20212846013C65
:108BA000FFF764FEF6E70026F0E720212846013CA7
:108BB000FFF75CFED9E73B681A1D3A603021284672
:108BC0001C68FFF753FE78212846FFF74FFE00226E
:108BD0000823CDE900322146102280E703B0BDE82A
:108BE000F08F00BF2DE9F84FB0F806A04579D2F814
:108BF00000B09DF828900AFB05F5043D88460BEB74
:108C00000301A94203F1040488BFA5EB030BB4FBE5
:108C1000FAF607460AFB1644C2F800B04EB9AAEBB2
:108C200004055D4528BF5D46BBF1000F04D1BDE8DA
:108C3000F88F3F68013EF1E7043408EB06003C443E
:108C40002A46B9F1000F0DD02146ABEB050B02F01F
:108C5000F0FEDA452E443F6855464FF0000428BF29
:108C60005D46E1E701462046EFE7F8B54679014663
:108C7000721E0546002393422D6803D30024A642AA
:108C800002D8F8BD0133F6E70F682846FFF7BBFDB1
:108C900001343946F3E72DE9F843068ACD1C07462F
:108CA000FFF78DFD043E35440446B5FBF6F5F0B103
:108CB0004FF48073EDB28380C680013D076081462A
:108CC0004FF00008A84512D23846FFF778FD064657
:108CD00048B163790133637108F10108C9F80000F4
:108CE00007608146EEE72046FFF7BFFF3446204687
:108CF000BDE8F88301210430FFF743BD10B5012121
:108D000004460430FFF749FDC0B220B92046BDE853
:108D10001040FFF7AABF10BD1FB5039200220092BA
:108D200003AAFFF75FFF05B05DF804FB1FB50392D0
:108D30000122009203AAFFF755FF05B05DF804FB7E
:108D400041DF7047064B10B500241C70054B1C60BA
:108D5000BFF35F8F0449054800F032F8204610BD8C
:108D6000741F0020781F0020F0C302006C1F002039
:108D700007B500230DF107008DF80730FFF7DEFA85
:108D8000F1EE103A23F09F03E1EE103ABFF35F8F4C
:108D90000A4B4022C3F884219DF80700FFF7F2FA3E
:108DA00002F066FB20B103B05DF804EBFFF7C8BF2B
:108DB00020BF40BF20BF03B05DF804FB00E100E02E
:108DC0000B684A684360934208BF0023016008BFF4
:108DD00043607047436843B10268916852680B442E
:108DE0009342436004BF00234360704770B54468FA
:108DF00006460D46206818B1B3682946984718B949
:108E000023682B60256070BD2468F3E74368186809
:108E100008B102681A607047436818687047436871
:108E2000186800B97047884203D102681A600120AF
:108E3000704703460068F4E710B50D49A1F5947238
:108E4000914201D800200FE08C1AE30F03EBE403FA
:108E50005B1002EBC30452F83330834205D802D2D0
:108E600004F10802ECE7606810BD2146E8E700BFA6
:108E7000FCC8020008B5FFF7DFFF024B002808BF5F
:108E8000184608BDBFC702000648074A03780749CD
:108E9000D35C012213B1043001F026BC0C3001F088
:108EA0003BB900BFFC180020CC1F0020A41F0020ED
:108EB0000648074A03780749D35C012213B10430FE
:108EC00001F0C4BB0C3001F0D7B800BFFC18002083
:108ED000CC1F0020A51F002037B50578012D0DD02F
:108EE000022D30D075B91F491F4800F0FCF800284A
:108EF00034D103B0BDE83040FFF7DABF037A1BB9C5
:108F0000FFF7C2FF03B030BD4368184C1978204604
:108F100000F0D7F880B18DF800500190144B6846EE
:108F20001B689847A168E368A2885B1A9A42E7D257
:108F3000104B01221A70E5E7A268E3689A42F1D06B
:108F40008DF80000EAE7C3688DF800500193FFF741
:108F50009BFF074B68461B689847D3E703238DF8B0
:108F60000030F6E7A51F0020941F0020801F00207E
:108F70007C1F0020901F0020F0B51F46234B89B0B6
:108F800004461A600D4600293DD08A8820480968A9
:108F900000F088F8002834D1AA89A9681D4800F09B
:108FA00081F800282DD11C4E0FCE6D460FC596E8D6
:108FB0000F0085E80F0063690693237C174A184861
:108FC0008DF81C70003B18BF01238DF81430637CB2
:108FD000002B14BF0E2300238DF81530E368029395
:108FE000A36803932368019369466368009300F0C4
:108FF00011FB30B90B4B18702368013301D0FFF718
:1090000043FF09B0F0BD0720FBE700BF7C1F002035
:10901000801F0020941F0020FCC80200D98E02008F
:10902000FC180020901F002070B5084D014608482C
:109030002E7800F058F8044636B100232B70FFF765
:1090400023FF08B1FEF792FF204670BD901F00205D
:10905000801F002010B501460E4800F032F804468B
:10906000A8B90D480D4A0378D35C63B1043001F010
:10907000E1FA60B90A49074800F035F838B9BDE8A7
:109080001040FFF715BF0C3000F0EAFFF1E7204673
:1090900010BD00BF941F0020FC180020CC1F002032
:1090A000A51F002049B152B1531E1A4007D182605A
:1090B00001608380C260104670470E20704709200F
:1090C000704710B58468C2688388121B934208D326
:1090D000C26813400268D154C3680133C3600020E2
:1090E00010BD0420FCE78268C3689A420AD08268F7
:1090F000838813400268D35C0B70836801338360FC
:10910000002070470520704710B50446C0B2FFF735
:10911000A1FF204610BD4FF08053D3F83001A0F1DD
:1091200008035842584170474FF08053D3F830211C
:10913000082A06D1D3F83431032B02D8024AD05C76
:1091400070470020704700BF1CC9020008B5FFF738
:10915000E2FF40B14FF080430022C3F80C21C3F876
:109160001021C3F83825FFF7D6FF002846D04FF06E
:109170008052614BD2F80414C3F82015D2F80814B9
:10918000C3F82415D2F80C14C3F82815D2F810141B
:10919000C3F82C15D2F81414C3F83015D2F81814EB
:1091A000C3F83415D2F81C14C3F84015D2F82014B3
:1091B000C3F84415D2F82414C3F84815D2F828147B
:1091C000C3F84C15D2F82C14C3F85015D2F830144B
:1091D000C3F85415D2F83414C3F86015D2F8381413
:1091E000C3F86415D2F83C14C3F86815D2F84014DB
:1091F000C3F86C15D2F84424C3F87025FFF794FF28
:1092000018B13E4B3E4AC3F88C26FFF78DFF18B1CC
:109210003C4BFB22C3F81825FFF786FF70B14FF0D7
:1092200080414FF08053D1F8E42ED3F8583222F029
:109230000F0203F00F031343C1F8E43EFFF774FF7E
:1092400020B1314B4FF40072C3F84026FFF763FFA3
:1092500048B14FF08043D3F80024D20744BF6FF0E9
:109260000102C3F80024294AD2F8883043F470037D
:10927000C2F88830BFF34F8FBFF36F8F4FF01023CA
:10928000D3F80022002A03DBD3F80432002B2EDAB5
:109290001F4B0122C3F80425D3F80024002AFBD079
:1092A0004FF010221221C2F80012D3F80024002A35
:1092B000FBD04FF010231222C3F80422144BD3F832
:1092C0000024002AFBD00022C3F80425D3F8002490
:1092D000002AFBD0BFF34F8F0C490E4BCA6802F433
:1092E000E0621343CB60BFF34F8F00BFFDE70A4B33
:1092F0000A4A1A6008BD00BF00C00040005000408C
:109300004881030000F000400090024000ED00E0C2
:1093100000E001400400FA05101900200090D0037D
:10932000074B1B5C1F2B8ABF064A4FF0A04203F07D
:109330001F03D2F80405D840C04300F00100704775
:1093400020C9020000030050074B1B5C1F2B86BF87
:10935000064903F01F034FF0A041012202FA03F374
:10936000C1F80C35704700BF20C90200000300504F
:10937000074B1B5C1F2B86BF064903F01F034FF0F2
:10938000A041012202FA03F3C1F80835704700BF7B
:1093900020C902000003005008B50020FFF7E8FFD5
:1093A0000120FFF7E5FF0220FFF7E2FFBDE80840DC
:1093B0000320FFF7DDBF08B50020FFF7C5FF012040
:1093C000FFF7C2FF0220FFF7BFFFBDE80840032000
:1093D000FFF7BABF0A4B185C1F288ABF094B4FF032
:1093E000A04300F01F00D3F804250121814021EAA9
:1093F00002000A40C3F80805C3F80C25704700BFF7
:1094000020C90200000300500B2809D00C2809D005
:10941000182809D019280CBF03204FF0FF307047DF
:10942000002070470120704702207047C20710B526
:1094300004460CD54FF0A0430322C3F83427C3F8E9
:109440003827C3F83C27C3F84027FFF7A5FFA30739
:109450000AD54FF0A0430C22C3F82C27C3F83027BD
:10946000C3F86027C3F8642710BD000038B5074C67
:10947000051E04F1080318BF1C4623682BB11A68A7
:1094800022605B6828469847F7E738BDB01F002088
:1094900020B9054B01225A70FFF7E8BF012802D11D
:1094A000014A9070F8E77047A81F002020B9034BCD
:1094B00001225A70FFF7DABF704700BFA81F0020D3
:1094C00038B50E4C2378B3B90D486360A3602361AF
:1094D000E36000F0E7F8054601F0CAFF08B900F0C4
:1094E000EDF801232370074BD3F800340BB10123AF
:1094F000A370284638BD8525F5E700BFA81F0020CA
:10950000919402000000014037B50D4C00230DF18D
:1095100007008DF80730FEF711FFE368013BE360B9
:10952000E36833B9074BD3F8005415B900F0D8F805
:10953000A5709DF80700FEF725FF03B030BD00BF02
:10954000A81F002000000140012813B50CD00328FB
:1095500020D038B9134B0122C3F88020BFF34F8FBE
:10956000BFF36F8F02B010BD0F4C00230DF1070049
:109570008DF80730FEF7E2FE23780BB9FFF7A0FF66
:10958000E3689DF807000133E3600123A370FEF751
:10959000F9FEE7E700F092F802B0BDE81040FFF7EF
:1095A000B3BF00BF00E100E0A81F00201FB5037893
:1095B0008DF800304368019383688DF80830C368E4
:1095C000054A0393054B684653F8213052F82110A1
:1095D000984705B05DF804FBBC1F0020C41F0020A5
:1095E0001FB503788DF800304368019383688DF8C8
:1095F0000830C368054A0393054B684653F8213089
:1096000052F82110984705B05DF804FBBC1F0020FC
:10961000C41F0020F0B5194B90F800C0DFF86CE0D3
:1096200043F82C20164B16460A6943F82C204B7F32
:109630000EF80C300C4607460FCC89B06D460FC5AE
:1096400094E80F0085E80F003B78CDF810C01EF8B5
:1096500003304BB1002E0B4A694608BF3246381D15
:1096600000F088FE09B0F0BD002E074A694608BF29
:10967000324607F10C0000F0C7FBF3E7C41F0020DF
:10968000BC1F0020AD950200E1950200CC1F002018
:1096900000F18040002382B0036003680193019BC6
:1096A00002B07047044A137923B9012110609180F8
:1096B0001846704785207047D01F0020074B1A6856
:1096C000D20704D4C02283F8002301221A604FF08D
:1096D00080430122C3F81825704700BF00E100E075
:1096E0004FF0804208B50223C2F808334FF482706D
:1096F000FFF7CEFF0123D360D2F81834DB03FBD48D
:1097000008BD00004FF0804110B5D1F8003163B1C1
:109710004FF48070FFF7BCFF0D4B58790122C1F860
:10972000082310B95A711B6898474FF08042D2F84D
:10973000043163B14FF48270FFF7AAFF0223C2F82D
:109740000833034BBDE810401B680120184710BDCB
:10975000D01F002000F1804000F5C040002382B0FF
:10976000036003680193019B02B0704703681F2BDD
:1097700083BF03F01F03036001484FF0A040704710
:109780000003005007B5019001A8FFF7EFFF019B10
:1097900000EB8300D0F8003723F44033C0F80037E3
:1097A000D0F8003743EA0141C0F8001703B05DF874
:1097B00004FB0000054B4FF0FF32072843F8202040
:1097C00084BFC01880F85820704700BFD81F002001
:1097D00038B51E4C94F86A30ABBB4FF6FF71FF20D2
:1097E0005A09012A0CBF0A464FF0FF3203F01F0549
:1097F000EA40D20748BFE21803F1010348BF82F8EC
:109800003000302BECD10021C8B20131FFF7D2FF7C
:109810000C29F9D1062200210D4802F033F90D4B35
:10982000C02283F8062340221A604FF4BE70FFF76F
:1098300091FF094B4FF00042C3F80423012384F841
:109840006A30002038BD0820FCE700BFD81F002088
:109850003C20002000E100E000600040034B93F852
:109860006A00003818BF0120704700BFD81F0020D1
:10987000F7B53D4F3B18044693F93030002B71DAB1
:109880008B78C3F34003002B0BBF082500250C2069
:109890000820854202D1042003B0F0BD57F82560AE
:1098A000013647D138196EB247F8252080F830606C
:1098B00013B97B1983F858408B785A071AD4D80704
:1098C0003AD501A80194FFF751FF019B00EB8300FB
:1098D000D0F8003723F00203C0F800372348E2082D
:1098E00004F0070C012303FA0CF310F802C043EA5A
:1098F0000C03835488780B7810F0020028D0AD0058
:1099000005F1804505F5C0452402D5F8102522F45F
:109910004F3222F44072C5F810251B04D5F81025EB
:1099200004F47C5403F440331C431443C5F810453D
:109930000020B1E70135ACE701A84A780194FFF7B0
:1099400015FF019B03F5E073920040F82320C5E763
:10995000083E47FA86F797F8604044EA831387F891
:10996000603099E7082097E7D81F00203C200020AE
:1099700073B5244D2E18044696F93020072A1DDDB4
:10998000083A45FA82F595F860309B09032B10D10F
:10999000019001A8FFF7EAFE019BD0F81015D9400D
:1099A00001F001010231204602B0BDE87040FFF72E
:1099B000E9BE012B0CBF02210321F4E7D3B2072B30
:1099C0001DD8930003F1804303F5C043D3F810057D
:1099D00040F00100C3F8100502F1400040B28000E1
:1099E00080B2FFF7B7FE51B196F9303055F8233009
:1099F0002BB1012303FA02F2034BC3F8042302B094
:109A000070BD00BFD81F00200060004007B5019066
:109A100001A8FFF7ABFE019BD0F81005D84000F07D
:109A2000010003B05DF804FB2DE9FF470024CDE9F8
:109A30000244584D4FF48072012102F1804303F536
:109A4000C04390B21B68012B06D1D5F804330B42FA
:109A500002D0FFF77FFE0C430432B2F5907F4FEA4D
:109A60004101EAD14B4BD3F87C31012B11D14FF49A
:109A7000BE70FFF76FFE4FF0A04344F00044D3F8F0
:109A800020250292C3F82025D3F820280392C3F89A
:109A90002028E3B2D3B1404F00250126344210D034
:109AA000AB0003F1804303F5C043D3F81005D3F8AE
:109AB000101557F8253023B1C1F30141C0F305203B
:109AC00098470135082D4FEA4606E7D1002C59DAB0
:109AD000314D324C324E4FF00008012716F9013B50
:109AE0005A1C3CD0C3F3C20104A801445FFA83F9B5
:109AF00011F8081C03F03F0203F0070307FA03F311
:109B000019422CD001A80192FFF730FE019B03F50A
:109B1000E07350F82330C3F3014ABAF1020F0CBFCF
:109B2000032102211046FFF72DFE01A80192FFF745
:109B30001DFE019B07FA03F3C0F82035AB1893F91B
:109B4000303055F8233053B14FEA9911032904D02E
:109B5000BAF1020F19D1012901D11046984708F135
:109B60000108B8F1040FB9D14FF0A043D3F8202574
:109B70000292C3F82025D4F820350393C4F8203589
:109B80001343A7D104B0BDE8F087BAF1030FE6D1C3
:109B90000229E1E700600040D81F002000030050C8
:109BA00038200020014B1B68184700BF44200020CC
:109BB0000E4B984237B50C4602D0002003B030BDA2
:109BC00000230DF107008DF80730FEF7B7FB084BB7
:109BD0001D7915B901221C601A719DF80700FEF766
:109BE000D1FB002DE9D01120E8E700BF00200040A4
:109BF00044200020034B984201BF034B00221A600F
:109C00001A71704700200040442000200023435078
:109C100082B043580193019B02B070470A4610B5C9
:109C20004FF48E71FFF7F2FF136A9168C95C136AF3
:109C300001331362C0F81C1510BD024608B5006858
:109C40004FF49271FFF7E2FF10684FF48471FFF751
:109C5000DDFF136801221A6008BD8B690A4610B542
:109C60004FF4847123B9FFF7D1FFD0F8183510BD38
:109C7000FFF7CCFF536AD168D0F81805C854536A6F
:109C800001335362F3E700001FB501238DF8003064
:109C9000044BCDE90110D3E900126846904705B0A6
:109CA0005DF804FB4C20002030B54D4DD5F8043351
:109CB0009A0585B051D5D5F82431002B4DD04FF4FD
:109CC00092712846FFF7A2FF4FF40173C5F80833DD
:109CD000444B93F829200AB901226A6040490222C4
:109CE0008DF80020D1F88024C1F8802403929A696D
:109CF0000292DA6801920022C3E906226846D3E99B
:109D0000001290473648D0F81C315BB1354A516992
:109D1000136A99424DD992F82830002B49D1114647
:109D2000FFF77CFF2E48D0F84431002B56D04FF47B
:109D3000A271FFF76BFF2B4B93F829200AB1012288
:109D400002609A69002A49D0586AD96800229A614B
:109D500005B0BDE83040FFF797BFD5F804335B0787
:109D6000D0D5D5F80831002BCCD01E4C1C4821464C
:109D7000FFF773FF636AA2699A42C3D1E369E1689E
:109D80004BB1A3612369E3600023606AE36163620E
:109D9000FFF77AFFB6E794F829300BB901236B601F
:109DA0000F4B4FF40172C3F808230023606AA361CC
:109DB000EEE70B484FF48E71FFF728FF5369002B35
:109DC000B0D051690291002391688DF80030019163
:109DD00053616846D2E900139847A3E705B030BD48
:109DE000002000404C2000201F2886BF00F01F00EC
:109DF000044B4FF0A04300F5E070022243F820200E
:109E0000704700BF000300502DE9F843604D90F803
:109E100004802C2303FB0853064693F82A300C4693
:109E20009146002B40F0AF805A490068FFF7C0FE12
:109E30000746002840F0A9802268531C10D01F2A32
:109E400087BF554902F01F0313464FF0A041012080
:109E5000984003F5E073C1F80805032041F823009A
:109E60006168481C0DD01F298BBF01F01F030B46F2
:109E700049484FF0A04003F5E0734FF0000C40F864
:109E800023C03068A369C0F8243594F814C0637DFA
:109E9000BCF1010F4CEA0303C0F86C35C0F814158F
:109EA000C0F80C252BD1A368591C0DD01F2B8BBFDC
:109EB00003F01F021A4638494FF0A04102F5E07244
:109EC0004FF0000C41F822C0E1684A1C13D01F2952
:109ED00087BF314A01F01F0C8C464FF0A0424FF073
:109EE000010E0EFA0CFE0CF5E07CC2F808E54FF00E
:109EF000030E42F82CE0C0F80815C0F810352C22EB
:109F000002FB08F2AB18C3F804902369AB50B9F117
:109F1000000F20D04FF48E71247FFFF777FE4FF4AF
:109F2000A2713068FFF772FE32681C4BC2F804332E
:109F3000130B42F307326101002AC9B21EDB184835
:109F4000841884F800130121520903F01F0301FA59
:109F500003F340F8223033680422C3F800252C2391
:109F600003FB08530022C3E9062283F829205A6123
:109F7000012283F82A203846BDE8F883094A03F015
:109F80000F03D154E7E70827F5E71127F3E700BFF0
:109F90004C200020A99C0200000300508000020019
:109FA00000E100E014ED00E02DE9F04103680579DF
:109FB000284C0022C3F800252C2202FB0542014652
:109FC0005268A2B1244AC3F808231A0B43F307339B
:109FD000002B0CDB02F01F005B09012282402033C2
:109FE0001E4840F82320BFF34F8FBFF36F8F0B68DD
:109FF000D3F80C05D3F81485D3F80865D3F8107599
:10A000004FF0FF329042C3F81425C3F80C25C3F873
:10A010000825C3F8102501D0FFF7E6FEB8F1FF3F91
:10A0200002D04046FFF7E0FE7A1C02D03846FFF728
:10A03000DBFE731C02D03046FFF7D6FE0868FFF740
:10A04000D9FD2C2303FB0544002384F82A306360E8
:10A05000BDE8F0814C2000208402020000E100E015
:10A060000279044B2C2101FB02335869003818BFD8
:10A07000012070474C2000202DE9F84F064690F84B
:10A08000048089469246FFF7EBFF044600283CD146
:10A09000204F2C2508FB057B4FF48E71CBF814A0C4
:10A0A000CBF80890CBF820008BF828003068FFF739
:10A0B000ADFD3068012383605946FFF7AFFDDBF843
:10A0C00004305D461BBB3068DBF814402B6A9C42B1
:10A0D00011D83368D3F81C21002AFBD00122DA60A2
:10A0E00000202C2303FB087700237B61BDE8F88F59
:10A0F00095F828303BB9D0F81C31002BF8D05946E0
:10A10000FFF78CFDE2E70F20EBE71120EEE720469A
:10A11000ECE700BF4C2000202DE9F0473A4D0779CD
:10A120002C2303FB075306465C6824B103684FF4F5
:10A130000170C3F808032C2303FB0753986950B13F
:10A14000D869002841D024B133684FF40172C3F8B4
:10A150000423112436E09A61D9605862D8612C2317
:10A1600003FB075393F829301BB910B93046FFF7AA
:10A1700064FD4FF02C0808FB075A3068DAF8043009
:10A18000002B37D14FF4A271D046FFF73FFD306866
:10A19000D0F82491D0F80831D0F84441CBB914B9A3
:10A1A000B9F1000FF3D02C2303FB07550023AB615B
:10A1B000B9F1000F24D12CBB95F829103368012286
:10A1C000B1B11A602046BDE8F0871961DA6101205B
:10A1D000C5E7B9F1000FE6D1002CE4D14146FFF705
:10A1E0003CFDDAF82430DAF818209A42CFD8DAE7C2
:10A1F0005A60E7E74FF40173C0F804330024E1E745
:10A200000324DFE70F24DDE74C2000200023435028
:10A2100082B043580193019B02B070471FB50123E0
:10A220008DF80030044BCDE90110D3E900126846E7
:10A23000904705B05DF804FB782000207FB5434AC5
:10A24000D2F82461002E60D010464FF49271FFF7CF
:10A25000DDFF02238DF80030D2F88034C2F880345C
:10A260000393D2F83C350293394BDA68019200220D
:10A27000C3E906226846D3E9001290473348D0F874
:10A28000443173B14FF4A271FFF7C0FF304B9A69AC
:10A290003AB10022C3E90622D968D0F83C05FFF79D
:10A2A000BDFF2A48D0F82031ABB14FF49071FFF7D1
:10A2B000ADFF0123C360264B5A6962B1D0F84C153B
:10A2C0000291002299688DF8002001915A61684638
:10A2D000D3E9001290471D48D0F858319BB14FF494
:10A2E000AC71FFF793FF1A4B5A6962B1D0F84C1565
:10A2F0000291002299688DF8002001915A61684608
:10A30000D3E90012904704B070BDD2F81031002B91
:10A31000B4D04FF488711046FFF778FF0C4BD2F899
:10A320003C0599698842A9D1DC69D96864B1D2F841
:10A33000005225F02005C2F800521A699C61DA60CB
:10A34000DE61FFF76BFF99E79C61FAE700200040B0
:10A35000782000201F2886BF00F01F00044B4FF01C
:10A36000A04300F5E070022243F82020704700BFB0
:10A37000000300502DE9F843664E90F80480242332
:10A3800003FB0863044693F820300D469146002BEA
:10A3900040F0BC8060490068FFF70AFC07460028CF
:10A3A00040F0B68029684B1C10D01F2987BF5B4A3C
:10A3B00001F01F030B464FF0A0420120984003F527
:10A3C000E073C2F80805032042F823006A68501CB5
:10A3D0000DD01F2A8BBF02F01F0313464F484FF0CA
:10A3E000A04003F5E0734FF0000C40F823C0206854
:10A3F000AB69C0F8243595F814C06B7DBCF1010F32
:10A400004CEA0303C0F86C35C0F80C15C0F81425ED
:10A410002BD1AB68591C0DD01F2B8BBF03F01F0233
:10A420001A463E494FF0A04102F5E0724FF0000C91
:10A4300041F822C0E9684A1C13D01F2987BF374A58
:10A4400001F01F0C8C464FF0A0424FF0010E0EFAA7
:10A450000CFE0CF5E07CC2F808E54FF0030E42F864
:10A460002CE0C0F80815C0F81035242202FB08F2D1
:10A47000B318C3F804902B69B350B9F1000F2FD073
:10A480004FF488712A7FFFF7C1FE20684FF4907166
:10A49000FFF7BCFE20684FF49271FFF7B7FE20680B
:10A4A0004FF4A271FFF7B2FE4FF4AC712068FFF7D2
:10A4B000ADFE23681A49C3F80413190B43F307339D
:10A4C0005201002BD2B21CDB1648C51885F80023B8
:10A4D00001225B0901F01F0102FA01F140F823108B
:10A4E00023680822C3F80025242303FB0866002301
:10A4F000C6E906337361012386F820303846BDE88B
:10A50000F883094B01F00F015A54E9E70827F5E7F2
:10A510001127F3E7782000203DA20200000300503D
:10A520001003420000E100E014ED00E02DE9F041ED
:10A530003D4D06790468242303FB065302465B68FD
:10A54000ABB13A4BC4F8083344F30733002B4FEA5E
:10A5500014310CDB01F01F005B0901218140203325
:10A56000334840F82310BFF34F8FBFF36F8FD4F8F9
:10A57000003223F02003C4F80032242303FB0653E7
:10A580009B6933B14FF4A2712046FFF73FFE0123D0
:10A5900063604FF4AC712046FFF738FE0123E3609F
:10A5A000242303FB0653D4F858110029FBD09969E2
:10A5B00019B1D4F844110029F5D00023C4F80035AE
:10A5C0001368D3F80C05D3F81485D3F80815D3F81D
:10A5D00010754FF0FF329042C3F80C25C3F81425D4
:10A5E000C3F80825C3F8102501D0FFF7B3FEB8F172
:10A5F000FF3F02D04046FFF7ADFE7A1C02D038463E
:10A60000FFF7A8FE4B1C02D00846FFF7A3FE20462A
:10A61000FFF7F0FA242303FB0655002385F82030CA
:10A620006B60BDE8F08100BF78200020100342007D
:10A6300000E100E00279044B242101FB0233586958
:10A64000003818BF012070477820002001F06043D7
:10A65000B3F1005F2DE9F0470646884692463BD1AC
:10A6600090F80490FFF7E6FF0446002836D11D4F0E
:10A670003068242505FB09754FF49071C5F814A0C6
:10A68000C5F80880FFF7C2FD4FF4AC713068FFF7E2
:10A69000BDFD33686A69A968C3F84415C3F8482545
:10A6A00001229A606A68DAB9D3F82021D3F85801F8
:10A6B0001AB90028F8D00F2007E00028FBD10122AA
:10A6C000DA60D3F85821002AFBD0242303FB097752
:10A6D00000237B61BDE8F0871020FBE71120F9E73C
:10A6E0002046F7E778200020F8B501F06043B3F189
:10A6F000005F04460F465ED10379304D242101FBF3
:10A700000351496821B100684FF40476C0F808632A
:10A71000242000FB03539E6956B1D869002839D024
:10A7200021B123684FF40472C3F80423112030E0F0
:10A730009A61DF60DE6120684FF48871FFF766FD83
:10A7400020684FF4A271FFF761FD2368C3F83475E8
:10A75000C3F8382516BB01221A602479242202FB93
:10A76000045252680ABBD3F81011D3F84421D3F82D
:10A770002401114302D10028F5D00A46242303FB0B
:10A7800004550023984218BF03209A42AB6118BFBA
:10A790000F20F8BD1F61DA610126CCE7D3F8002253
:10A7A00042F02002C3F80022D7E74FF40472C3F846
:10A7B00004230020EDE71020EBE700BF7820002005
:10A7C0000220FEF707BE00002DE9F04780460D4647
:10A7D000FEF71AFE0328044610D8012D10D0022DD2
:10A7E00030D05DB91A48FDF7D4FC1A4B04EB440293
:10A7F00013449D78184B1B5DAB4219D0BDE8F08720
:10A80000144E00EB4003F218F55C5378470053B147
:10A81000DFF84C900E484A464FF48041FDF7A1FC0A
:10A8200008B989F8008027443E440B4BB2781A558A
:10A83000002DE3D0094B1B68002BDFD02846BDE874
:10A84000F047184700EB4004024804446578EFE7FE
:10A85000C020002000210020192100201421002008
:10A860009C20002000780221FFF7AEBF08B5094BFD
:10A870001B7853B10020FEF77BFD0120FEF778FD29
:10A88000BDE808400320FEF773BDBDE80840FEF7B1
:10A8900083BD00BF9D200020F8B57A4C2378054683
:10A8A0001BB100232370FFF7E1FF172D00F2878013
:10A8B000DFE805F00C1717425364757F878C878C8F
:10A8C000949999999999C3C8D0D8E3E3FFF7CEFF3B
:10A8D0006D48FDF75EFC6D4B002204461A70204661
:10A8E000F8BD0020FEF71CFDF0B10020FEF740FD92
:10A8F000022D0CBF4FF4E1644FF47A64634B1D707A
:10A9000000254FF400464FF47A7029464FF4FA625E
:10A910000023E4FB060100F017FF2A460146BDE8CC
:10A92000F8405948FDF71DBCFEF70EFD022D0CBF87
:10A93000C8244FF4C874E1E70020FEF7F1FC40B1F1
:10A940000020FEF715FD4FF44874504B03221A7097
:10A95000D6E7FEF7F9FCC824F7E70020FEF7E0FC95
:10A9600038B10020FEF704FD4FF47A64474B04220F
:10A97000EDE7FEF7E9FC4FF4C874F7E70020FEF7B7
:10A98000CFFC48B10020FEF7F3FC404B05221A70C3
:10A9900040F6CD410022C2E7FEF7D6FCF5E70020E5
:10A9A000FEF718FD394B06221A70002240F266614C
:10A9B000B5E70020FEF7C8FC344B07221A700024CC
:10A9C0008DE701202070FEF705FDEEE701202070E5
:10A9D000FEF700FD00224FF40051A0E7FEF7EBFC6C
:10A9E0002A4B0C22EAE72A482A4EFDF7D2FBD5F182
:10A9F000110504461CD0D8B9012D13D0C8204543F9
:10AA000021464FF400474FF47A704FF4FA62002366
:10AA1000C5FB070100F098FE224601461C48FDF7E1
:10AA2000A0FB04460220FEF78FFC0123337056E79B
:10AA30000220FEF79DFC0023F8E7FFF717FF134BFA
:10AA40001222BBE7FFF712FF0020FEF77DFC0F4B41
:10AA50001322B3E7FFF70AFF0120FEF775FC0B4B4B
:10AA60001422ABE7FFF702FF0020FEF76DFC012088
:10AA7000FEF76AFC054B1522A0E7FEF79CFC034B92
:10AA80001D709CE710210020E020002018210020EC
:10AA9000A02000209D200020044B1B68DB0703D56D
:10AAA000034B1878FFF7F8BE704700BF0C21002059
:10AAB00018210020044B1B6813F0010301D0FFF79D
:10AAC000EBBE1846704700BF0C21002038B51C4B68
:10AAD00018601C4B10F00204054619601AD01A4B7E
:10AAE0001A480E221A700F22DA7010229A7111225F
:10AAF0005A72042140F23332FDF7CAF9044648B9CC
:10AB0000FDF71EFA044628B90146114A1148FDF71F
:10AB10001DFB0446EB0711D50120FEF787FC6CB93D
:10AB200021460D4A0D48FDF711FB044630B9BDE83A
:10AB300038400B4A0B480121FDF708BB204638BDC1
:10AB40000C210020142100200021002048C902000F
:10AB500065A802006CC9020099AA020070C902002F
:10AB6000C1A7020068C9020072DF704773DF704737
:10AB70007CDF70470378022B02D14068FDF7F6B9FD
:10AB8000012BFAD0704700002DE9F047A94BB2B075
:10AB90000DAA03F11805174618685968144603C42E
:10ABA0000833AB422246F7D11988A34D9B78218008
:10ABB000A370012000238DF84F30FEF737FC0FCD36
:10ABC00007AC0FC495E8030084E80300FDF78CFA96
:10ABD00008B1FDF7CBF900210120FFF777FF08B19D
:10ABE000FDF7C4F9FEF7AEF808B1FDF7BFF900F0C4
:10ABF00001FC08B1FDF7BAF9002323A90120239332
:10AC000000F084FC08B1FDF7B1F923A800F02EFD97
:10AC100008B1FDF7ABF9894B894A23934FF4807350
:10AC2000CDE925232493874A072323A907A8FEF704
:10AC3000A3F908B1FDF79AF9112383488DF8003084
:10AC400000F053FF804982B26846FFF791FF08B1D8
:10AC5000FDF78CF91C2000F073FE7C4EDFF824A277
:10AC600030607B48DFF82092DFF8208200F0B0FEF1
:10AC7000504600F0ADFE484600F0AAFE404600F007
:10AC8000A7FE744800F0A4FE3D46002423A8FEF76A
:10AC9000CBF90028FAD19DF88C3005F8013B452B03
:10ACA00004D0572B02D001341B2CEFD19DF8363045
:10ACB000B02B40F008819DF83930272B40F00381FC
:10ACC0009DF83C302E2B40F0FE809DF83E30222B2C
:10ACD00040F0F9809DF83F304E2B02D0532B40F0CE
:10ACE000F2809DF840302C2B40F0ED809DF84130F3
:10ACF000202B40F0E8809DF84430B02B40F0CB8012
:10AD00009DF84730272B40F0C6809DF84A302E2B07
:10AD100040F0C1809DF84C30222B40F0BC809DF863
:10AD20004D30452B40F0B4804B48376000F050FE6A
:10AD300031684A484A4D00F04BFE5923002404274D
:10AD4000ADF804304FF01808336803933C2200211B
:10AD500014A8ADF8088000F095FE0DEB07033C2227
:10AD6000214623A81D938DF850408DF8537000F0B4
:10AD700089FE02234246214628468DF88C3000F099
:10AD800081FEA023AB6033682F706C602C75AC81A2
:10AD9000002B00F09C801A5D12B101342F2CFAD1E7
:10ADA000173CADF814402F4C5922ADF81020224624
:10ADB0001833069352F8041B04AB14A82C9300F02C
:10ADC00005F908B1FDF7D2F8274AA16823A800F0D9
:10ADD000FDF808B1FDF7CAF8214A22492348FFF7D8
:10ADE000C3FE08B1FDF7C2F8214B22482249C01A20
:10ADF000C008000440F00300FCF7FAFD1F4800F013
:10AE0000E7FD1F4800F0E4FD184B01211878FFF71B
:10AE1000ADFE08B1FDF7AAF80220FFF74BFE08B11E
:10AE2000FDF7A4F8FCF79AFC0028FBD1FDF7A0FF82
:10AE3000F8E700BF04CB020020CB02007A210020FB
:10AE40007A22002075AB020074C902002021002084
:10AE500082C90200A0CA02009BC90200ADC2020062
:10AE6000242100201419002020190020241900207A
:10AE7000C0C10200E8C10200BDCA0200D4CA02007B
:10AE8000ECCA020028CA020044CA020079CA0200C1
:10AE9000572B3FF449AF9DF84530B02B13D19DF8A7
:10AEA0004830272B0FD19DF84B302E2B0BD19DF81E
:10AEB0004D30222B07D19DF84E30452B3FF434AF57
:10AEC000572B3FF431AF034800F082FDD0E61C461B
:10AED00066E700BFCBC902006DDF704779DF7047BE
:10AEE0007DDF704764DF70472DE9F04F85B00025A6
:10AEF0000E9CBDF83CB0B4F800A001910746904606
:10AF00001E46A9463A884A450DDC45B12388013BD7
:10AF1000A3EB0A039BB2FF2B3AD806F80A300020B5
:10AF200005B0BDE8F08F7A6852F82900039000223E
:10AF30000DF10B0103A8FFF7D5FF0028F0D19DF814
:10AF40000B20424521D12288002D14BF0020022071
:10AF500002EB0801014459451ADC3DB9013292B2B5
:10AF6000019B2280B35422880132228022880DF175
:10AF70000B01324403A8FFF7B5FF0028D0D1218888
:10AF80009DF80B200A442280012509F10109B9E747
:10AF90000C20C5E72DE9F341089FBDF82480154634
:10AFA000CDE90078022204461E46FFF79DFF50B906
:10AFB0003346102229462046CDE9087802B0BDE884
:10AFC000F041FFF791BF02B0BDE8F0812DE9F04FED
:10AFD00000231788138090F82D3085B006460D4663
:10AFE000144653B3082F01D80C2027E102A8FFF71D
:10AFF00073FF002840F0228123880822EA54238826
:10B0000001339BB21B222380EA542088013080B296
:10B01000208006220DF10901284400F00AFD238852
:10B020009DF8082006339BB212F0FE0218BF0122E1
:10B030002380EA54238801332380B378FBB123882B
:10B040000433BB42D0D802A8FFF748FF002840F0E5
:10B05000F58023880322EA54238801339BB2192206
:10B060002380EA542388BDF8082001339BB2E918F5
:10B070002380EA54120A4A70238802332380F2782C
:10B080009AB12388D91CB942AED80221E954238849
:10B0900001339BB201212380E95423880B449BB2E6
:10B0A0002380EA5423880B4423807268AAB1238842
:10B0B000D91CB94298D8022192F90020E95423887A
:10B0C00001339BB20A212380E954238801339BB2C8
:10B0D0002380EA542388013323803389002B40F0F6
:10B0E000A180338A5BB1CDE900472B4607220321BB
:10B0F00006F11000FFF74EFF002840F09F80338BD1
:10B100005BB1CDE900472B461522142106F118004A
:10B11000FFF740FF002840F09180326A002A40F09B
:10B120009080D6F82480B8F1000F30D0B8F8043001
:10B130002188981C8A1C0244BA423FF655AFFE286B
:10B140003FF652AF03336B54238801339BB2FF2287
:10B150002380EA54238801339BB22380B8F800206F
:10B16000EA54E918120A4A702088023080B220801E
:10B17000B8F804205AB1D8F8081000296BD0284438
:10B1800000F057FC2388B8F804201344238096F875
:10B190002C30002B40F09880307800284ED0338837
:10B1A000012B58D0228802F1020CBC453FF61CAF9F
:10B1B000012805D17378023313449F42FFF414AF82
:10B1C000023FBF1ABFB202A905EB0C00ADF8087030
:10B1D000FFF786FE90BB3178BDF80830022900F0F9
:10B1E000B98072789A4202D39F4280F0B1800129DF
:10B1F00040F0B280974293B2C0F0AE80ADF8083014
:10B200000821BDF80830FE2B3FF6EEAE2288013350
:10B21000AB542288013292B22280A954228813446E
:10B2200023800BE0CDE900472B460622022106F1E0
:10B230000800FFF7AFFE00283FF453AF05B0BDE8AC
:10B24000F08FB4F800C00CF10603BB423FF6CCAE61
:10B250001188052901D80720F0E76FF4486E01EB4B
:10B260000E039BB24FF27D3E7345F4D95388052BF4
:10B27000F1D96FF44860181880B27045EBD94FF6D9
:10B28000FF70814201D09942E5D8052305F80C30C2
:10B29000238801339BB212212380E9542388013390
:10B2A0009BB223801188E954E818090A4170238869
:10B2B00002339BB223805288EA54E918120A4A707A
:10B2C0002388023323802CE7B36A002BC3D04FF0CE
:10B2D00000084FF00C0A4FF0160BB16A5FFA88F2C3
:10B2E0000AFB02F201EB0209B9F80430981CFE28AF
:10B2F0003FF67AAE208803332B54238801339BB268
:10B30000238005F803B0238801339BB223808A5A37
:10B31000EA54E918120A4A702088023080B220806C
:10B32000B9F804205AB1D9F80810002993D028445C
:10B3300000F07FFB2388B9F804201344238096F89B
:10B340002C2008F101085FFA88F39A42C5D823E758
:10B35000092156E79F42FBD2ADF8087050E710DF95
:10B360007047000013B5044609496846FDF728FDFB
:10B37000019808B902B010BDD0E9002120469047DD
:10B3800018B16846FDF726FDF2E71120F2E700BF8D
:10B3900044CB020013B5044607496846FDF710FD8B
:10B3A000019B0BB902B010BD2046D3E900219047A4
:10B3B0006846FDF70FFDF3E75CCB02000B4991F8FF
:10B3C00016335A09EC231341DB0706D5084B9A685C
:10B3D0003AB94FF480030B60704742F20200FCF769
:10B3E000C5BD1A6842F480021A60704700E100E0AF
:10B3F000541F0020F7B5194F3C7864BB184E012547
:10B4000020463570FFF7AEFF112821D02046FFF708
:10B41000C1FF144B8DF80340186801900DF1030033
:10B42000FCF78CFF104901A8FFF799FF0446B0FA1A
:10B4300080F0400938709DF80300FCF7A3FF3CB989
:10B440000A4B34701C70FFF7B9FF2846FFF7A2FFC4
:10B45000204603B0F0BD0824FAE700BF7B2300209C
:10B460007A23002040CB0200897F02007C23002049
:10B47000014B1878704700BF7B23002007B50849AF
:10B480006846FDF79DFC019B13B903B05DF804FB12
:10B49000D3E9002090476846FDF79CFCF3E700BF26
:10B4A00050CB0200FFF7EABF60DF704769DF7047EB
:10B4B00061DF704730B5134B1B7891B0FBB1124D73
:10B4C00034240DF1020103A8ADF80240FFF7F0FFAC
:10B4D00070B9294601A8FDF773FC029B002BF0D040
:10B4E00003A8D3E90021904701A8FDF773FCF4E716
:10B4F000052804D011B0BDE83040FCF737BD11B0CD
:10B5000030BD00BF7D230020A0CD020030B5054630
:10B5100085B00C46002900F097804C4B0B600C2244
:10B52000002101A800F0AEFA01238DF80630226850
:10B530008DF80450062301A92020ADF80830FFF74C
:10B54000B5FF60B1FDF796FC414B424902464248C7
:10B550001B1ADB081B0443F00100FCF74DFA0C2218
:10B56000002101A800F08EFA002322688DF8053032
:10B5700001A94020ADF80630FFF798FF60B1FDF754
:10B5800079FC334B3549024633481B1ADB081B0450
:10B5900043F00100FCF730FA0C22002101A800F072
:10B5A00071FA002322688DF8043001A90120FFF709
:10B5B0007DFF60B1FDF75EFC254B29490246264818
:10B5C0001B1ADB081B0443F00100FCF715FA0C22E0
:10B5D000002101A800F056FAF8232268019301A97E
:10B5E000A120FFF763FF60B1FDF744FC184B1D4934
:10B5F000024619481B1ADB081B0443F00100FCF744
:10B60000FBF90C22002101A800F03CFA9DF804305F
:10B6100022686FF3000301A9A0208DF80430FFF722
:10B6200045FF034668B1FDF725FC094B0E4902466C
:10B6300009481B1ADB081B0443F00100FCF7DCF986
:10B640000023184605B030BD0E23FAE7D8180020B5
:10B6500010C2020068CB0200C0C10200AECB0200E3
:10B66000FACB020046CC020097CC020073B5054627
:10B670000668FFF719FF2B68B34204461DD91A4824
:10B680001A4B1B491B1ADB081B0443F002000190F4
:10B69000FCF7AEF92B68174901983246FCF7B5F96B
:10B6A0004FF080532A68D3F80C31134901989B025C
:10B6B00003F100539A1AFCF79FF92CB90F4B0122A2
:10B6C0001A70204602B070BD2046FDF7D3FB074B31
:10B6D0000B49024604481B1ADB081B0443F0010017
:10B6E000FCF78AF9EDE700BFC0C1020010C20200FA
:10B6F000EACC020019CD02004ACD02007D230020D1
:10B7000074CD02004BDF70471FB50E4C01A8FFF748
:10B71000F9FF70B9214602A8FDF752FB039B002BED
:10B72000F4D00198D3E90021904702A8FDF752FB1D
:10B73000F4E7052804D004B0BDE81040FCF716BCBF
:10B7400004B010BDB8CD020053EA020C61D02DE95F
:10B75000F04BB3FA83F51E0007BFB2FA82F502FA86
:10B7600005F403FA05F41646C5F120051EBF22FABA
:10B7700005F73C43203556EA044C4FEA144418BF01
:10B780000134A3464FF00009C846904271EB030C08
:10B7900039D3094207BFB0FA80F700FA07F6B1FAC9
:10B7A00081F701FA07F6C7F120071EBF20FA07FC50
:10B7B00046EA0C062037B6FBFBFC7F1B103F07F068
:10B7C0001F04C4F120060CFA04F42CFA06F644BF58
:10B7D00034460026202FA4BF2646002454EA060C37
:10B7E00008BF012418EB040849EB0609A4FB027CFE
:10B7F000C01B06FB02CC04FB03CC71EB0C01904296
:10B8000071EB030CC5D20B46024649464046BDE8E3
:10B81000F08BB2FBF3F200007F2805D8034B185CD5
:10B82000034B5B5C1840704700207047D0CD02008E
:10B8300050CE0200A0F16103192B98BF2038704749
:10B84000A0F14103192B98BF203070477F2805D8FD
:10B85000034B185C034B5B5C18407047002070473B
:10B86000D0CD020050CE0200A0F16103192B98BF89
:10B8700020387047A0F14103192B98BF2030704742
:10B880007F299ABF017001206FF02E0070475AB1D6
:10B890000A787F2A0AD800B1026000211960596035
:10B8A000501A18BF01207047002070476FF02E001B
:10B8B000704710B504460846A2684AB1236861681B
:10B8C00003F1010C8C4508BF00208B4208D2D054F4
:10B8D000E3682BB121686268914201D22146984702
:10B8E00023680133236010BD70B54C1E09D4164681
:10B8F000C5B229463046FFF7DCFF013CB4F1FF3FFB
:10B90000F7D170BD10F0100F08D108B510F4007F0A
:10B9100014BF30202020FFF7E7FF08BD704700006C
:10B9200008B5034B5B689B681B68984708BD00BF60
:10B930002819002008B50921FFF7F2FF08BD000013
:10B9400038B5204B204A9B1A102B39D9044600F0F9
:10B9500019FC04F1130020F00F021C4B186858B3B7
:10B960004FF0FF340025294611E041B103680B6018
:10B97000044644F8042B00F006FC204638BD01685C
:10B98000124B1960F4E70368014653B11846436847
:10B990009342EAD09342F6D9A3423CBF1C460546E7
:10B9A000F1E74DB16B689B1A6B60A31AEC18EA5073
:10B9B00000F0E9FB0434E0E700F0E5FB0024DCE7FD
:10B9C0000024DAE784430020842300203C1900206F
:10B9D0000FB410B586B008AB53F8044B05930023A1
:10B9E00003936FF000430293084B049300F0CCFBE9
:10B9F000059A214601A800F0A9F8044600F0C5FB0D
:10BA0000204606B0BDE8104004B07047099102001E
:10BA1000037853B159B10144034613F8012F12B111
:10BA20008B42FAD10B46181A70470346FBE70346D0
:10BA3000F9E7844640EA010313F0030F18D1844666
:10BA4000202A0BD32DE9F007B1E8F807A0E8F807A2
:10BA5000A2F12002202AF7D2BDE8F007042A07D37A
:10BA600051F8043B40F8043BA2F10402042AF7D247
:10BA7000002A05D011F8013B00F8013B013AF9D149
:10BA8000604670478446002A2DD010F0030F04D082
:10BA900000F8011B013A26D0F7E7C9B241EA0121BB
:10BAA00041EA0141202A12D3A2F120022DE9F0033C
:10BAB0000B460C460D460E460F4688468946A0E8C2
:10BAC000FA03203AFBD2BDE8F00320320BD0042A5F
:10BAD00005D340F8041B043A05D0042AF9D200F833
:10BAE000011B013AFBD16046704700F1010110F0E3
:10BAF000030F11D010F8012B002A23D010F0030FF0
:10BB00000AD010F8012B002A1CD010F0030F03D02C
:10BB100010F8012B002A15D02DE970004FF00132EA
:10BB20004FF0803350F8044BA4EB020525EA0405DE
:10BB30001D4000D1F6E7A0F1040070BC10F8012B05
:10BB4000002AFBD1A0EB0100704700002DE9F04F67
:10BB500089B007460392002303600C4614F8011BCA
:10BB6000002900F0FC82DFF818B5EBE2002507E0C1
:10BB70005E2868D145F4805501E045F040051C463B
:10BB8000234613F8010B3028F2D81F2837D9A0F12B
:10BB90002002102A33D801A151F822F07BBB020009
:10BBA000FFBB0200FFBB0200E1BB0200FFBB0200C3
:10BBB000FFBB0200FFBB0200E7BB0200FFBB0200AD
:10BBC000FFBB0200FFBB0200EDBB0200FFBB020097
:10BBD000F3BB0200FFBB0200FFBB0200F9BB020087
:10BBE00045F08005CBE745F40045C8E745F0200562
:10BBF000C5E745F01005C2E745F40075BFE72A2800
:10BC000021D1039A111D0391D2F800A0BAF1000FBF
:10BC1000BCBFCAF1000A45F010051878A31C2AEA37
:10BC2000EA7A2E2826D00021742847D07A2845D0D9
:10BC30006C2800F0A8804C2800F0AB80682800F049
:10BC4000B8801C463DE0A0F13002D2B2092A88BF7C
:10BC50004FF0000AE3D84FF0000A0AEB8A0A3038A6
:10BC600000EB4A0A13F8010BA0F13002D2B2092A04
:10BC7000F3D9D4E718782A280AD1039A111D039121
:10BC80001168587802330029CEDB45F48075CBE784
:10BC90000133A0F13002D2B2092A88BF0021F4D8C2
:10BCA000002101EB8101303800EB410113F8010B59
:10BCB000A0F13002D2B2092AF3D9E4E71C4614F805
:10BCC000010B002800F05782A0F12503DBB2532BB3
:10BCD00062D8A0F12503532B5ED8DFE813F076007D
:10BCE0005D005D005D005D005D005D005D005D006C
:10BCF0005D005D005D005D005D005D005D005D005C
:10BD00005D005D005D005D005D005D005D005D004B
:10BD10005D005D005D005D005D005D005D005D003B
:10BD20005D005D005D005D005D005D005D005D002B
:10BD30005D005D005D005D005D005D005D005D001B
:10BD40005D005D00EC005D005D005D005D005D007C
:10BD50005D005D005D005D005D007B0021015D0018
:10BD60005D005D005D0021015D005D005D005D0026
:10BD700095000F01D2005D005D00A6005D001A0174
:10BD80005D005D00EE001C4614F8010B45F0010556
:10BD900097E745F001051C46B54B1E68002E00F0E4
:10BDA000CE8103AB0193009153462A463946B047F2
:10BDB000C5E11878682803D05C1C45F0040580E7CD
:10BDC00045F008059C1C58787BE725213846FFF78D
:10BDD00070FDB4E1039B1A1D03921E780AF1FF3A2D
:10BDE0003A4651462846FFF78DFD31463846FFF763
:10BDF00060FDA94619F0100F00F0A1813A465146A6
:10BE00002020FFF771FD9AE115F0080F06D03A687F
:10BE1000039B191D03911B681A7090E1039B1A1D67
:10BE200003921B683A681A6089E1039B1A1D03920A
:10BE3000D3F800808F4BB8F1000F08BF98464646F4
:10BE400025F4007915F4807F16D04046FFF7E0FD19
:10BE50000546AAEB050A3A4651464846FFF752FD09
:10BE6000002DC7D016F8011B3846FFF722FDA8EBBE
:10BE70000603EB42F6D1BDE74046FFF736FE054626
:10BE8000E7E7039B1A1D03921B6815F0800F0CBF98
:10BE90000026232645F4807508211A46002B00F061
:10BEA0002A8105AB4FF0000805F4005CA646604609
:10BEB0008C460146D2E045F4005515F0800F1BD0AA
:10BEC00043F2780643F25803782818BF1E4615F44B
:10BED000807F01D025F4007515F4804F32D0039B8C
:10BEE0001A1D03921B6815F0040F1FD01BB2002B04
:10BEF00020DA5B422D262DE00026E8E715F0800FC2
:10BF00000CBF0026302615F4807FE5D025F400759F
:10BF1000E2E715F4807F07D025F400750026DBE703
:10BF200045F480450026D7E70026D5E715F0080F31
:10BF3000DDD0DBB215F0200F61D115F0400F18BF36
:10BF4000202607E0039B1A1D03921B6815F0040FBF
:10BF500050D09BB215F4807F14BF25F400750121E9
:10BF60005838202800F2AF8001A252F820F000BF1C
:10BF70009BBE0200C7C00200C7C00200C7C00200CB
:10BF8000C7C00200C7C00200C7C00200C7C002008D
:10BF9000C7C00200C7C00200C7C00200C7C002007D
:10BFA0002BC00200C7C00200C7C00200C7C0020009
:10BFB000C7C002002BC00200C7C00200C7C00200F9
:10BFC000C7C00200C7C00200C7C0020003C0020011
:10BFD0009BBE0200C7C00200C7C00200C7C002006B
:10BFE000C7C002002BC00200C7C00200C7C00200C9
:10BFF0009BBE020015F0080FACD0DBB2AAE72B26DF
:10C00000A8E71A464FF00008002B5ED005A84FF0B5
:10C01000000803F00703303300F8013B08F1010882
:10C02000D2081346002AF4D14FE018464FF000081A
:10C03000002B4AD04FF0000805F4004E4FF02C09B9
:10C0400073468E4619462FE002F00F000A4C205C22
:10C0500003F8010B08F10108120906D00029F3D0FA
:10C0600002F00F00054C205CF2E7744661462CE0BC
:10C070008023002024D0020004D0020014D002004B
:10C08000CDCCCCCC08AB03EB080CABFB0032D20818
:10C0900002EB8203A0EB430330330CF80C3C08F1B5
:10C0A000010809280DD910460029EBD008F0030338
:10C0B000032BE7D108AB434403F80C9C08F10108BB
:10C0C000E0E7714601E04FF00008A1EB080121EA2A
:10C0D000E179AAEB090AAAEB080AFF2E0ED9AAF108
:10C0E000020AC6F307213846FFF7E3FBF1B23846F0
:10C0F000FFF7DFFB04E04FF00008E6E7002E3DD13C
:10C100003A4651462846FFF7FDFB3A46494630205D
:10C11000FFF7EAFBB8F1000F0EDD0DF1140908F18D
:10C12000FF38C84498F8001046463846FFF7C1FB70
:10C13000C14508F1FF38F5D115F0100F09D114F8F9
:10C14000011B61B125293FF411AD3846FFF7B1FB62
:10C15000F5E73A4651462020FFF7C6FBEFE7BB68FC
:10C160002BB13A6879688A423CBF002199543868FB
:10C1700009B0BDE8F08F4FF0FF30F9E70AF1FF3A60
:0CC18000B4E700BF70477047704770477D
:08C18C00AD9402000000000068
:08C194004995020000000000C3
:10C19C00B5B402000000000009B702000000000066
:10C1AC00841900204C1A0020541A00208C190020ED
:04C1BC001800000067
:10C1C0002AC902000000000030C90200000000007F
:10C1D00037C90200000000003BC902000000000057
:10C1E00040C90200000000008EC2020000000303EC
:10C1F00058C302000000000081C3020000000000DC
:10C2000024C902000000000038CB02000000030334
:10C2100091CD020000000303ACCD02000000030337
:10C22000E6C3020000000000FCC3020000000000A2
:10C2300060C20200000000006CC20200EC18002086
:10C24000FFFFFFFFFFFFFFFFFFFFFFFFFFFFFFFFFE
:10C2500000000000000000000000D6010601000000
:10C26000F174020055750200A174020075617274C8
:10C270005F6C6F675F6261636B656E6400426163F0
:10C280006B656E647320666C7573686564006170BD
:10C2900070001B5B313B33316D0025734C6F67734E
:10C2A0002064726F70706564202825642925730DE1
:10C2B0000A001B5B306D002573003C25733E202572
:10C2C000733A2000202530327800202020007C00A6
:10C2D0002563001B5B313B33306D001B5B313B330F
:10C2E000326D001B5B313B33336D001B5B313B33E5
:10C2F000346D001B5B313B33356D001B5B313B33D1
:10C30000366D001B5B313B33376D007761726E69B0
:10C310006E6700696E666F00646562756700000095
:10C32000B2C20200D3C2020092C20200DBC202000B
:10C33000E3C20200EBC20200F3C20200FBC2020031
:10C3400003C30200000000006EC302000BC3020022
:10C3500013C3020018C302006170705F62757474C9
:10C360006F6E0000801E0020466174616C20657253
:10C37000726F720053797374656D207265736574A2
:10C38000006170705F74696D6572000001000600E5
:10C3900000000000CC1E0020F57F02005254432014
:10C3A000696E7374616E636520616C726561647936
:10C3B00020696E697469616C697A65642E005254F3
:10C3C000433A20696E697469616C697A65642E000C
:10C3D0000338FDD870473031323334353637383989
:10C3E0004142434445467077725F6D676D7400004B
:10C3F00094C1020094C1020004000000736F7274C3
:10C400006C697374004E52465F5355434345535312
:10C41000004E52465F4552524F525F5356435F485B
:10C42000414E444C45525F4D495353494E47004E8F
:10C4300052465F4552524F525F534F465444455601
:10C440004943455F4E4F545F454E41424C45440081
:10C450004E52465F4552524F525F494E5445524EDE
:10C46000414C004E52465F4552524F525F4E4F5F15
:10C470004D454D004E52465F4552524F525F4E4F12
:10C48000545F464F554E44004E52465F4552524F00
:10C49000525F4E4F545F535550504F5254454400D5
:10C4A0004E52465F4552524F525F494E56414C499B
:10C4B000445F504152414D004E52465F4552524FEB
:10C4C000525F494E56414C49445F535441544500D4
:10C4D0004E52465F4552524F525F494E56414C496B
:10C4E000445F4C454E475448004E52465F455252B9
:10C4F0004F525F494E56414C49445F464C41475369
:10C50000004E52465F4552524F525F494E56414C83
:10C5100049445F44415441004E52465F4552524F98
:10C52000525F444154415F53495A45004E52465F61
:10C530004552524F525F54494D454F5554004E524B
:10C54000465F4552524F525F4E554C4C004E52463C
:10C550005F4552524F525F464F5242494444454E06
:10C56000004E52465F4552524F525F494E56414C23
:10C5700049445F41444452004E52465F4552524F37
:10C58000525F42555359004E52465F4552524F52E8
:10C590005F434F4E4E5F434F554E54004E52465FE1
:10C5A0004552524F525F5245534F555243455300E7
:10C5B0004E52465F4552524F525F4D4F44554C4587
:10C5C0005F4E4F545F494E495449414C495A454486
:10C5D000004E52465F4552524F525F4D555445589A
:10C5E0005F494E49545F4641494C4544004E5246CE
:10C5F0005F4552524F525F4D555445585F4C4F4323
:10C600004B5F4641494C4544004E52465F455252AD
:10C610004F525F4D555445585F554E4C4F434B5FFD
:10C620004641494C4544004E52465F4552524F5296
:10C630005F4D555445585F434F4E445F494E4954F2
:10C640005F4641494C4544004E52465F4552524F69
:10C65000525F4D4F44554C455F414C524541445902
:10C660005F494E495449414C495A4544004E52464F
:10C670005F4552524F525F53544F524147455F46B8
:10C68000554C4C004E52465F4552524F525F4150FE
:10C69000495F4E4F545F494D504C454D454E5445B2
:10C6A00044004E52465F4552524F525F46454154F8
:10C6B0005552455F4E4F545F454E41424C454400F4
:10C6C0004E52465F4552524F525F494F5F50454E62
:10C6D00044494E47004E52465F4552524F525F44C6
:10C6E00052565F5457495F4552525F4F564552521A
:10C6F000554E004E52465F4552524F525F4452567D
:10C700005F5457495F4552525F414E41434B004E83
:10C7100052465F4552524F525F4452565F545749FA
:10C720005F4552525F444E41434B004E52465F4577
:10C7300052524F525F424C455F495053505F5258DE
:10C740005F504B545F5452554E4341544544004E44
:10C7500052465F4552524F525F424C455F495053DB
:10C76000505F4348414E4E454C5F414C5245414419
:10C77000595F455849535453004E52465F455252F3
:10C780004F525F424C455F495053505F4C494E4BAE
:10C790005F444953434F4E4E4543544544004E5227
:10C7A000465F4552524F525F424C455F495053508D
:10C7B0005F504545525F52454A45435445440055F4
:10C7C0006E6B6E6F776E206572726F7220636F642E
:10C7D000650000000000000005C402000100000028
:10C7E00011C40200020000002FC402000300000078
:10C7F00050C402000400000063C4020005000000F1
:10C8000074C402000600000088C402000700000093
:10C81000A0C4020008000000B8C402000900000023
:10C82000D0C402000A000000E9C402000B000000AE
:10C8300001C502000C00000018C502000D00000038
:10C840002CC502000E0000003EC502000F000000D3
:10C850004DC502001000000061C50200110000007B
:10C8600078C502001200000087C502001300000016
:10C870009CC5020080000000B0C5020081000000DD
:10C88000D1C5020082000000EDC502008300000057
:10C8900009C602008400000027C6020085000000CF
:10C8A00048C60200860000006DC60200900000002D
:10C8B00084C6020091000000A2C60200920000009F
:10C8C000C0C6020000820000D5C60200018200003E
:10C8D000F3C60200028200000FC7020000840000BD
:10C8E0002BC70200018400004FC702000284000031
:10C8F00079C70200038400009EC70200FFFFFFFF0C
:10C90000FFFFFFFFFFFFFFFFFFFFFFFF0000000033
:10C91000000000000000D601060100000100000038
:10C920000D0E0F10636C6F636B00434C4F434B0055
:10C930004750494F544500505253005541525400FE
:10C9400055415254450000000B000300C9A70200E6
:10C950000C000300C9A7020018000300C9A70200C9
:10C9600019000300C9A70200A0200020C020002059
:10C97000E0200020436F6D6F64756C655F546173D8
:10C980006B000D0A55415254206D6F64756C652023
:10C99000737461727465642E0D0A000D0A596F7507
:10C9A000206861766520656E7465726564207468C0
:10C9B0006520666F6C6C6F77696E6720636F6F724E
:10C9C00064696E617465733A0D0A000A475053201A
:10C9D000636F6F7264696E61746573206172652044
:10C9E0006E6F7420696E70757474656420636F7205
:10C9F000726563746C792E20506C65617365206775
:10CA000069766520616E20696E707574206163635C
:10CA10006F7264696E6720746F2074686520666F3A
:10CA2000726D61742E0D0A00456E74657220746813
:10CA3000652047505320636F6F7264696E6174653F
:10CA4000730D0A00416363657074656420666F72DC
:10CA50006D6174206973204444B04D4D2753532EAB
:10CA600053224E2F532C20444444B04D4D27535352
:10CA70002E5322452F570D0A00416E206578616DB7
:10CA8000706C65206F6620746865206578706563DA
:10CA900074656420666F726D61742069730D0A009D
:10CAA0003539B032342734302E35224E2C203234F2
:10CAB000B034342733312E3322450D0A00426561EC
:10CAC000636F6E206D6F64756C6520737461727432
