:1000000000000420750300005D0300005F03000092
:1000100061030000630300006503000000000000AE
:100020000000000000000000000000006703000066
:1000300069030000000000006B0300006D03000076
:100040006F0300006F0300006F0300006F030000E8
:100050006F0300006F030000C90700006F0300007A
:100060006F0300006F0300006F0300006F030000C8
:100070006F0300006F0300006F0300006F030000B8
:100080006F0300006F0300006F0300006F030000A8
:100090006F0300006F0300006F0300006F03000098
:1000A0006F0300006F0300006F0300006F03000088
:1000B0006F0300006F03000000000000000000005C
:1000C0006F0300006F0300006F0300006F03000068
:1000D0006F0300006F0300006F0300006F03000058
:1000E0006F0300006F0300006F03000000000000BA
:1000F000000000006F030000000000006F0300001C
:1001000000000000000000000000000000000000EF
:1001100000000000000000000000000000000000DF
:1001200000000000000000000000000000000000CF
:1001300000000000000000000000000000000000BF
:1001400000000000000000000000000000000000AF
:10015000000000000000000000000000000000009F
:10016000000000000000000000000000000000008F
:10017000000000000000000000000000000000007F
:10018000000000000000000000000000000000006F
:10019000000000000000000000000000000000005F
:1001A000000000000000000000000000000000004F
:1001B000000000000000000000000000000000003F
:1001C000000000000000000000000000000000002F
:1001D000000000000000000000000000000000001F
:1001E000000000000000000000000000000000000F
:1001F00000000000000000000000000000000000FF
:10020000354936480A1A02D0072291438D463449AF
:1002100034480A1A06D00722914381F30988022242
:1002200082F3148830483149314A00F044F83148AB
:100230003149324A00F03FF831483249324A00F041
:100240003AF832483249334A00F035F832483349F7
:10025000334A00F030F833483349344A00F02BF881
:1002600033483449344A00F026F8344834490022EF
:1002700000F02CF833483449002200F027F83348C6
:100280003349091A082902DB002202604160314A21
:1002900090471F481F49884205D00268043003B4C4
:1002A000904703BCF7E700208646EC46002000217B
:1002B000294A9047FEE7884207D0521A05D00378B2
:1002C00001300B700131013AF9D17047884202D0F8
:1002D00002700130FAE770470000042000E00320BC
:1002E0000000042000000420100C0000000000208A
:1002F00004000020D0030000D0030000060C000022
:10030000100C00000000002000000020080C00007D
:10031000080C0000080C0000080C0000080C00008D
:10032000080C0000080C0000080C00000F0C000076
:10033000140C000004000020040000200400002031
:1003400060000020600000206000002060000020AD
:10035000602000209D03000035090000FEE7FEE755
:10036000FEE7FEE7FEE7FEE7FEE7FEE7FEE7FEE765
:1003700000F002B8FFF7FCBF0F484FF007018843B9
:1003800085460E4880470E48016841F470010160BF
:10039000BFF34F8FBFF36F8FFFF732BF09480A4992
:1003A0000A4A884207D0521A05D0037801300B70F0
:1003B0000131013AF9D1704700000420CD09000055
:1003C00088ED00E0080C0000000000200000002084
:1003D0001FB50021039001AA44F20100CDE90111EB
:1003E00000F004F805B05DF804FB000072B6094B9C
:1003F000D3F8F020D20700D500BEBFF34F8FD968E5
:10040000054A01F4E0610A43DA60BFF34F8F00BF91
:10041000FDE700BF00ED00E00400FA0500F18040B8
:1004200000F5C040002382B0036003680193019B84
:1004300002B0704703681F2B83BF03F01F030360E4
:1004400001484FF0A04070470003005007B50190ED
:1004500001A8FFF7EFFF019B00EB8300D0F8003706
:1004600023F44033C0F80037D0F8003743EA0141A5
:10047000C0F8001703B05DF804FB0000054B4FF017
:10048000FF32072843F8202084BFC01880F84C2092
:10049000704700BF0400002038B51E4C94F85B3054
:1004A000ABBB4FF6FF71FF205A09012A0CBF0A4669
:1004B0004FF0FF3203F01F05EA40D20748BFE218B1
:1004C00003F1010348BF82F82400302BECD1002156
:1004D000C8B20131FFF7D2FF0929F9D10622002164
:1004E0000D4800F05DFB0D4BC02283F8062340222F
:1004F0001A604FF4BE70FFF791FF094B4FF00042B6
:10050000C3F80423012384F85B30002038BD0820A1
:10051000FCE700BF040000205900002000E100E0DB
:100520000060004037B5354B1A18044692F9240094
:10053000013061D18878002852D01846002250F846
:10054000045B013546D1181980F82420002043F8B7
:100550002200920002F1804202F5C0420B78D2F8EC
:100560001055487825F499151B04000525F4F85515
:1005700000F4801003F44033C2F810550343200206
:10058000D2F8105500F47C5003432B43C2F81035C9
:100590004A780194012A01A826D1FFF74BFF019B5D
:1005A0009A40C0F8082501A80194FFF743FF019B7A
:1005B000134903F5E073032240F8232024FA02F2E2
:1005C000012304F0070003FA00F08B5C1843885401
:1005D000002003E00132082AB1D1042003B030BD6D
:1005E000FE2382F82430D3E7FFF724FF019A01238A
:1005F0009340C0F80C35D6E70820EFE70400002050
:100600005900002007B5019001A8FFF713FF0199D9
:10061000D0F8043501228A4022EA03011340C0F8D1
:100620000815C0F80C3503B05DF804FBF7B53D4F75
:100630003B18044693F92430002B71DA8B78C3F30E
:100640004003002B0BBF0825002509200820854208
:1006500002D1042003B0F0BD57F82560013647D120
:1006600038196EB247F8252080F8246013B97B1939
:1006700083F84C408B785A071AD4D8073AD501A88A
:100680000194FFF7D7FE019B00EB8300D0F8003701
:1006900023F00203C0F800372348E20804F0070CF7
:1006A000012303FA0CF310F802C043EA0C0383544D
:1006B00088780B7810F0020028D0AD0005F1804555
:1006C00005F5C0452402D5F8102522F44F3222F456
:1006D0004072C5F810251B04D5F8102504F47C548D
:1006E00003F440331C431443C5F810450020B1E720
:1006F0000135ACE701A84A780194FFF79BFE019B06
:1007000003F5E073920040F82320C5E7083E47FA5E
:1007100086F797F8544044EA831387F8543099E7F2
:10072000082097E7040000205900002073B5244DED
:100730002E18044696F92420072A1DDD083A45FAAA
:1007400082F595F854309B09032B10D1019001A834
:10075000FFF770FE019BD0F81015D94001F00101A0
:100760000231204602B0BDE87040FFF76FBE012B9A
:100770000CBF02210321F4E7D3B2072B1DD893004D
:1007800003F1804303F5C043D3F8100540F00100A6
:10079000C3F8100502F1400040B2800080B2FFF7BC
:1007A0003DFE51B196F9243055F823302BB1012389
:1007B00003FA02F2034BC3F8042302B070BD00BF7A
:1007C00004000020006000402DE9FF410024CDE935
:1007D0000244534D4FF48072012102F1804303F52E
:1007E000C04390B21B68012B06D1D5F804330B42ED
:1007F00002D0FFF713FE0C430432B2F5907F4FEAAC
:100800004101EAD1464BD3F87C31012B11D14FF491
:10081000BE70FFF703FE4FF0A04344F00044D3F84E
:1008200020250292C3F82025D3F820280392C3F88C
:100830002028E3B2D3B13B4F01260025344210D02B
:10084000AB0003F1804303F5C043D3F81005D3F8A0
:10085000101557F8253023B1C1F30141C0F305202D
:1008600098470135082D4FEA4606E7D1002C4EDAAD
:100870002C4F2D4E97F954305A1C3AD0C3F3C20175
:1008800004A80144DAB211F8081C03F03F04012562
:1008900003F0070305FA03F319422AD001A80194D3
:1008A000FFF7C8FD019B03F5E07350F82330C3F355
:1008B0000148B8F1020F0CBF032102212046FFF7C7
:1008C000C5FD01A80194FFF7B5FD019B9D403B19B3
:1008D000C0F8205593F9243057F823304BB19109D3
:1008E000032904D0B8F1020F14D1012901D1204607
:1008F00098474FF0A043D3F820250292C3F8202553
:10090000D6F820350393C6F820351343B2D104B08E
:10091000BDE8F081B8F1030FEBD10229E6E700BF93
:100920000060004004000020000300500D20FFF78D
:1009300069BE000007B5FFF7AFFD08B1FFF748FD3E
:1009400001238DF80030694600230D208DF8013019
:100950008DF80230FFF7E6FD08B1FFF739FD0B4BCC
:100960001A889B78ADF804208DF80630084A0323D6
:1009700001A90B208DF80530FFF758FE08B1FFF7ED
:1009800027FD01210B20FFF7D1FEFEE7080C000038
:100990002D0900004FF08053D3F83001A0F1080377
:1009A00058425841704700004FF08053D3F830212F
:1009B000082A06D1D3F83431032B02D8024AD05C7E
:1009C00070470020704700BF0B0C000008B5FFF710
:1009D000E1FF40B14FF080430022C3F80C21C3F87F
:1009E0001021C3F83825FFF7D5FF002846D04FF077
:1009F0008052614BD2F80414C3F82015D2F80814C1
:100A0000C3F82415D2F80C14C3F82815D2F8101422
:100A1000C3F82C15D2F81414C3F83015D2F81814F2
:100A2000C3F83415D2F81C14C3F84015D2F82014BA
:100A3000C3F84415D2F82414C3F84815D2F8281482
:100A4000C3F84C15D2F82C14C3F85015D2F8301452
:100A5000C3F85415D2F83414C3F86015D2F838141A
:100A6000C3F86415D2F83C14C3F86815D2F84014E2
:100A7000C3F86C15D2F84424C3F87025FFF794FF2F
:100A800018B13E4B3E4AC3F88C26FFF78DFF18B1D4
:100A90003C4BFB22C3F81825FFF786FF70B14FF0DF
:100AA00080414FF08053D1F8E42ED3F8583222F031
:100AB0000F0203F00F031343C1F8E43EFFF774FF86
:100AC00020B1314B4FF40072C3F84026FFF762FFAC
:100AD00048B14FF08043D3F80024D20744BF6FF0F1
:100AE0000102C3F80024294AD2F8883043F4700385
:100AF000C2F88830BFF34F8FBFF36F8F4FF01023D2
:100B0000D3F80022002A03DBD3F80432002B2EDABC
:100B10001F4B0122C3F80425D3F80024002AFBD080
:100B20004FF010221221C2F80012D3F80024002A3C
:100B3000FBD04FF010231222C3F80422144BD3F839
:100B40000024002AFBD00022C3F80425D3F8002497
:100B5000002AFBD0BFF34F8F0C490E4BCA6802F43A
:100B6000E0621343CB60BFF34F8F00BFFDE70A4B3A
:100B70000A4A1A6008BD00BF00C000400050004093
:100B80004881030000F000400090024000ED00E0CA
:100B900000E001400400FA05000000200090D003AE
:100BA0008446002A2DD010F0030F04D000F8011B5A
:100BB000013A26D0F7E7C9B241EA012141EA0141F1
:100BC000202A12D3A2F120022DE9F0030B460C4695
:100BD0000D460E460F4688468946A0E8FA03203A9D
:100BE000FBD2BDE8F00320320BD0042A05D340F835
:100BF000041B043A05D0042AF9D200F8011B013A7B
:060C0000FBD160467047C5
:070C080003000201000000DF
:040C10000090D0037D
:040000030000037581
:00000001FF
