:020000022000DC
:1070000000000420757302005D7302005F730200CC
:1070100061730200637302006573020000000000E8
:107020000000000000000000000000006773020084
:1070300069730200000000006B7302006D730200B0
:1070400049AB02006F730200E9AF02006F730200E8
:107050006F7302006F7302006DAE02006F73020067
:107060006F7302006F7302006F7302006F73020090
:107070006F7302006F7302006F7302006F73020080
:107080006F730200E18602006F7302006F730200EB
:107090006F7302006F730200F50803006F73020044
:1070A0006F7302006F7302006F7302006F73020050
:1070B0006F7302006F730200000000000000000008
:1070C0006F7302006F7302006F7302006F73020030
:1070D0006F7302006F7302006F7302006F73020020
:1070E0006F7302006F7302006F73020000000000F4
:1070F000000000006F730200000000006F730200C8
:10710000000000000000000000000000000000007F
:10711000000000000000000000000000000000006F
:10712000000000000000000000000000000000005F
:10713000000000000000000000000000000000004F
:10714000000000000000000000000000000000003F
:10715000000000000000000000000000000000002F
:10716000000000000000000000000000000000001F
:10717000000000000000000000000000000000000F
:1071800000000000000000000000000000000000FF
:1071900000000000000000000000000000000000EF
:1071A00000000000000000000000000000000000DF
:1071B00000000000000000000000000000000000CF
:1071C00000000000000000000000000000000000BF
:1071D00000000000000000000000000000000000AF
:1071E000000000000000000000000000000000009F
:1071F000000000000000000000000000000000008F
:10720000354936480A1A02D0072291438D4634493F
:1072100034480A1A06D00722914381F309880222D2
:1072200082F3148830483149314A00F044F831483B
:107230003149324A00F03FF831483249324A00F0D1
:107240003AF832483249334A00F035F83248334987
:10725000334A00F030F833483349344A00F02BF811
:1072600033483449344A00F026F83448344900227F
:1072700000F02CF833483449002200F027F8334856
:107280003349091A082902DB002202604160314AB1
:1072900090471F481F49884205D00268043003B454
:1072A000904703BCF7E700208646EC46002000210B
:1072B000294A9047FEE7884207D0521A05D0037842
:1072C00001300B700131013AF9D17047884202D088
:1072D00002700130FAE770470000042000E003204C
:1072E00000000420000004208434030074220020E5
:1072F000D0220020D0730200D0730200AC0E030035
:10730000843403007422002074220020241003001F
:107310002410030024100300241003002410030091
:1073200024100300241003002410030082340300FF
:10733000E0340300D0220020D0220020D022002000
:107340005435002054350020543500205435002099
:10735000545500209D7302005DC10200FEE7FEE768
:10736000FEE7FEE7FEE7FEE7FEE7FEE7FEE7FEE7F5
:1073700000F002B8FFF7FCBF0F484FF00701884349
:1073800085460E4880470E48016841F4700101604F
:10739000BFF34F8FBFF36F8FFFF732BF09480A4922
:1073A0000A4A884207D0521A05D0037801300B7080
:1073B0000131013AF9D17047000004205DA50200B7
:1073C00088ED00E0101003006022002074220020ED
:1073D000F0B595B01D46164608460C4602F0CEFFA5
:1073E0001A9B0D93CDE9086500252B46082205A9B7
:1073F00020460A958DF82C500C9502F0DBFF079B78
:107400000293069B03939DF814308DF8115003F0FE
:107410000302012A1DD1BDF81420059DC3F3C20348
:10742000C2F383168DF81030B20008230EA920464F
:1074300002F0C0FFC5F3952508AB0093324602ABBE
:107440000EA9284600F0C4FB204602F09BFF15B0B1
:10745000F0BD022AF8D1BDF81650C3F3C203C5F33C
:1074600089158DF810300827082D2E4628BF0826CC
:107470003B4632460EA9204602F09CFFAD1B08ABEE
:1074800002AA31460EA8374400F006FC002DEBD1CD
:10749000DAE70000014B01221A7070471123002027
:1074A0007047000070B50E4D06460FCD88B06C4693
:1074B0000FC495E80F00002E84E80F00094A0A481F
:1074C0004FF0060308BF00226946009303F0C4FA98
:1074D00008B100F0AFFD054B1E7008B070BD00BFD5
:1074E000241003009574020074220020D022002092
:1074F00007B5044B0093044A4023FFF769FF03B02C
:107500005DF804FB0D750200D122002038B50D484E
:107510000D4C0E4D002323700378EB5CD2B263B1A7
:10752000043004F02BFA08B100F084FD084B1A78FF
:1075300012B12378002BFBD038BD0C3003F0AEFF26
:10754000F1E700BF7422002011230020A02B0020AF
:10755000D022002008B50848084A0378D35C3BB124
:10756000043004F07BF9BDE808400020FFF79ABF23
:107570000C3003F02BFFF6E774220020A02B002034
:107580000120FFF78FBF000008B5FFF7F9FF04489F
:10759000042100F087FA034B01225A7108BD00BF95
:1075A0000010030088220020037813F0040216D094
:1075B00003F00303012B03D0022B09D001207047F5
:1075C0000A6800880232C0F3831002440A60F5E7BB
:1075D0000B684288023303EB92130B60EEE7104610
:1075E000704700002DE9F04FDFF81CA187B00F466F
:1075F00000230446861C0DF1070015468DF8073060
:1076000000F000FFDAF804203A60DAF8083003F5F9
:1076100080739B1A0AF21C470AF583690AF2144820
:10762000B3421AD30020002D69D004F00F039B0150
:1076300043F0050363F30F00DAF80430DAB20332E3
:1076400033444AF822009DF80700CAF8043000F0DD
:10765000FDFE012007B0BDE8F08F0121384602F0A1
:10766000F9F8484602F011F9404602F00EF9DAF84E
:1076700008000290C0B203300AEB800002A9FFF7B5
:1076800093FF029B30BBDAB20AEB8202D16803910E
:107690009A1C0133DBB20AEB83030292D3F80CB0DD
:1076A00001F00303012B22D0022B15D08346404664
:1076B00002F0EEF810B1029BCAF80830594638467D
:1076C00002F0C8F8DAF80830DAF8042003F580731D
:1076D0009B1AA5E7D8B2CEE7BDF80E30C3F38913E5
:1076E00003334FEA1B4B02EB93030293DFE7BDF832
:1076F0000C30C3F383134FEA1B4B1344F5E7A40587
:1077000044F0060098E700BFE4230020064B07483A
:1077100010B500221A7002F0EAFD044610B90448C0
:1077200002F092FE204610BDE4230020240F030047
:107730007810030030B50A4C71B10A4A0A49121B8D
:10774000D20800239A4201D1002030BD31F82350E5
:10775000854202D00133F5E7034654F83300F4E7DD
:10776000380F03000010030074220020094B013978
:1077700003EBC000032909D8DFE801F00A02040680
:1077800004207047007970474079704700207047A7
:1077900002207047380F0300034BD3E90130C31AAE
:1077A00058425841704700BFE42300202DE9F041C2
:1077B00086B0FFF7F1FF0546002840F0ED80774CDA
:1077C000C4F81804BFF34F8FA3680293DBB20333EE
:1077D00004EB830002A9FFF7E7FE029B18B1D4F87F
:1077E0001824002A5AD0DAB2991C013304EB820221
:1077F000DBB204EB8303D268DB68049302F003037B
:10780000022B0392029154D1BDF80E306448C3F3A9
:107810008917502F3E4628BF502606F1080166F30F
:107820008F13C1F30901ADF80E3002F078FD054663
:10783000002800F09C8002F0A1FD0023082203A98B
:10784000284602F0ADFD0299CB43DBB20133C9B249
:107850000331B6EB830F4FEA830204EB810125D994
:107860005FFA82F80823A6EB0806284602F098FD86
:10787000F6B208F108034B4903F0FC0332462846F0
:1078800002F08EFD029B033703EB97070297D4F8B3
:107890001834002B43D1D4F8106453E062689A4244
:1078A00094D8A260284606B0BDE8F081082332468D
:1078B000E5E7012B5BD1BDF80C303948C3F38311E8
:1078C000062928BF062161F38913023101F00F0157
:1078D0008900ADF80C3002F022FD0546002846D0A4
:1078E00002F04CFD0023082203A9284602F058FDAF
:1078F0000026BDF80C20C2F38312B300964203F1B8
:107900000803C4D202994A1CC9B20331029204EBA3
:1079100081010422284602F043FD0136E9E72846AA
:1079200002F030FDFFF738FF80F00100C5B2B9E783
:10793000F3685B7923B1336829461B683046984762
:10794000F3681E68002EF3D1284602F01BFD0DF1EE
:1079500007008DF8076000F055FDD4F818340BB916
:10796000029BA3609DF8070000F070FDDAE7D4F8F1
:10797000104454B90C4B0D480D49C01AC0080004FE
:1079800040F0020000F05CF8CCE7236820469B68DA
:107990009847E3681C68ECE7002583E7E4230020B0
:1079A000240F0300F0230020380F0300600F0300B2
:1079B000611003002DE9F34704460E46924601A9E3
:1079C000012218469946FFF70DFE1B4F10B3019D8B
:1079D0004FF00008AA1CC84508EB020123D1174844
:1079E000002101F0F0FE80F31000000440EA144092
:1079F000E4006B1C04F03804DBB2EDB244F0010487
:107A000007EB8303033544EA881444EA8624D860EC
:107A100047F825403B781BB1FFF7C8FE0028FBD193
:107A200002B0BDE8F087C9B207EB81015AF82830EF
:107A3000CB6008F10108CEE7E423002000280020F5
:107A400000231A46FFF7B6BF07B50123019201AA2A
:107A5000FFF7B0FF03B05DF804FB07B5CDE90023E5
:107A600002236A46FFF7A6FF03B05DF804FB1FB5CB
:107A7000CDE90123069B039301AA0323FFF79AFF95
:107A800005B05DF804FB1FB5CDE90023069B02930A
:107A9000079B03936A460423FFF78CFF05B05DF84C
:107AA00004FB000030B50F4CD4F81024034600202E
:107AB000114631B9D96808714AB9C4F810340A605E
:107AC00030BDC9680D79854206D00968F1E7D268F2
:107AD00014680C601360F3E701300A28E8D14FF016
:107AE000FF30EDE7E423002038B5084B0125D3F83B
:107AF00010441D7004B938BDE3685D7123682046E9
:107B00005B689847E3681C68F4E700BFE423002043
:107B100030B5C38885B004460D4633B1144A00928F
:107B20001449154A284601F016FF217A05291DD06F
:107B3000637A4BB1A088FFF719FE104B104953F838
:107B40002020284601F007FF227A0E4BA08853F828
:107B5000222003920021FFF7EDFD039A0A49034614
:107B6000284605B0BDE8304001F0F5BE05B030BD97
:107B7000A41003008C1003008410030010110300F4
:107B8000A727030034110300A910030007B503461B
:107B90000846197A052911D05B7A2BB1094A0A499E
:107BA000019001F0D8FE01980849019001F0D3FE40
:107BB000019803B05DF804EB01F0C2BE002AF8D0D2
:107BC000F2E700BFA4100300A7270300A1100300E1
:107BD0002DE9F04385B01F460C9D002395F80C90CD
:107BE0002B7306460C46904629463846FFF790FF11
:107BF000B8F1060F09D8DFE808F00412181F28337F
:107C000040003146284601F0A6FE002229463846AB
:107C1000FFF7BCFF85F80C9005B0BDE8F083226843
:107C20003146284601F097FEEFE7D4E900233146BC
:107C3000284601F090FEE8E7A36800933146D4E9B6
:107C40000023284601F087FEDFE7E3680193A3687D
:107C500000933146D4E90023284601F07CFED4E7A6
:107C600023690293E3680193A36800933146D4E942
:107C70000023284601F06FFEC7E763690393236979
:107C80000293E3680193A36800933146D4E900238B
:107C9000284601F060FEB8E708292DE9F74F804635
:107CA0000E4617461C463CD8002593F80C901D73D1
:107CB00019461046FFF72CFFDFF888A0DFF888B0E0
:107CC000AE4231D918F805205946204601F043FE4E
:107CD0000135082DF4D11949194DDFF870A020465F
:107CE00001F039FE4FF0000B5E4522D918F80B2049
:107CF0007E2A05D81046019209F010F8019A00B9C1
:107D00002E225146204601F026FE0BF1010BBBF15D
:107D1000080FE9D1012221463846FFF737FF84F8E2
:107D20000C9003B0BDE8F08F5146204601F013FEE1
:107D3000CEE72946204601F00EFEE6E7BD1003001F
:107D4000BB100300B9100300B3100300BF10030001
:107D5000C30710B507D4F023054A4008145C23403C
:107D60001943115410BD0901C9B20F23F4E700BF34
:107D7000D028002030B5094B1C78094B1968002326
:107D80009C4202DC0022104630BD11F8335085427F
:107D900001EBC302F7D00133F2E700BF9C280020BB
:107DA000F028002013B504460191FFF7E3FF38B136
:107DB00043682BB10199204602B0BDE81040184736
:107DC00002B010BD034B044819680022490800F0B6
:107DD0002CBA00BFA0280020A828002010B5C0B2EF
:107DE000FFF7C8FF0446007803F032F863785A1EA4
:107DF00053425341834208D1044BD3E90023134338
:107E000003D1BDE81040FFF7DDBF10BDC82800203A
:107E100037B54308374AD35CC2074CBF1B0903F090
:107E20000F0304460D46042B25D8DFE803F0032694
:107E30002F3C4000F9B10121FFF78AFF00230DF12B
:107E400007008DF8073000F0DDFA0120A4F12003CF
:107E5000C4F12001284A20FA01F100FA03F30B4390
:107E6000A040D2E9004120430B43C2E900039DF842
:107E7000070000F0EBFA03B030BD002918BF022163
:107E8000204603B0BDE83040FFF762BF49B103218F
:107E9000FFF75EFF0121204603B0BDE83040FFF749
:107EA00081BF0121ECE70029E5D10421E8E709B110
:107EB0000321E5E7FFF74CFF29462046FFF772FF55
:107EC0000DF107008DF8075000F09CFA0120A4F195
:107ED0002003C4F12001084A20FA01F100FA03F35B
:107EE0000B43A040D2E9004124EA000021EA030349
:107EF000BBE700BFD0280020C82800202DE9F041B2
:107F0000124E134F00243378A34208DC114BD3E9FF
:107F10000023134318D0BDE8F041FFF753BF3D687D
:107F200005EBC40815F8340002F092FF98F8013010
:107F30005A1E53425341181A4142414115F8340028
:107F4000FFF766FF0134DEE7BDE8F0819C280020E2
:107F5000F0280020C8280020092AF7B505460C465D
:107F600016463ED902F09CFEE8B11F4B1F481D602B
:107F70001F4B204F1C70204B002120221E6008F058
:107F800032FF1E4B00200021C3E90001013CE4B296
:107F90000326FF2C0DD11A4A1A48002103B0BDE870
:107FA000F04000F037B902F035FE0028DDD003B014
:107FB000F0BD9DF8063015F834008DF8046005EB2F
:107FC000C40223F007038DF8063001A993788DF8D9
:107FD00005303A4602F06EFE013CE4B20028D8D0EB
:107FE000E5E70720E3E700BFF0280020D0280020C5
:107FF0009C280020DD7D0200A0280020C828002049
:10800000FD7E02005411030070B5084D084E002497
:108010002B789C4201D3002070BD3368012113F8F6
:10802000340002F0C7FE0134F2E700BF9C280020B4
:10803000F02800201FB50021039001AA44F201009E
:10804000CDE9011100F004F805B05DF804FB000073
:1080500038B572B6FFF748FDFFF7A8FB0028FBD143
:10806000104B114C114D1249E41AE408240444F059
:108070000100FFF7E5FCD5F8F030DB0700D500BEC6
:108080000C4944F00200FFF7DBFCBFF34F8FEA68B6
:10809000094B02F4E0621343EB60BFF34F8F00BF64
:1080A000FDE700BF380F0300600F030000ED00E0A4
:1080B00058110300641103000400FA0510B5D0E95B
:1080C0000243D1E90202A04272EB03032CBF01205C
:1080D000002010BD08B50A4800F0EBFA094AD2E9C1
:1080E0000031C018084BD3E9002341F10001904250
:1080F00071EB030303D210F1807041F1000108BD60
:1081000090220020F82800207029002037B505466D
:108110000C460A4801A901F08AFA60B10570446072
:1081200001A9064801F0ADFA18B1054800F0C6FAF9
:10813000002003B030BD0420FBE700BF5C29002015
:108140009022002038B5184B1B78044613B900253F
:10815000284638BD0028FAD0037F03F0FF05002B26
:10816000F5D0FFF7B7FFD4E90223904271EB030388
:1081700014D3236903B92377D4E9053098472169DB
:108180000029E4D0237F03F0FF05002BDFD0D4E9E2
:1081900002325B1842F10002C4E902320348214670
:1081A00002F071F9D4E700BF00290020801103001C
:1081B00013B5114B11491868019008231048582233
:1081C00001F000FA044698B90E4A0F4801A900F0E0
:1081D00061F9044660B90C48012100F04DFA012311
:1081E0000A4A0948194600F0AFF9094B01221A70F2
:1081F000204602B010BD00BF7C11030004290020FE
:108200005C2900207582020090220020FFFF7F0081
:10821000002900203AB103685A614A1E5142514177
:108220001961002070470720704738B5037F044666
:108230000D4683B98261FFF74DFF2369281841F18C
:108240000001C4E9020103B1256121460020BDE817
:108250003840FFF75BBF002038BD0023014603779D
:108260000120FFF753BF0000014800F022BA00BF11
:10827000902200202DE9F347064600F005FA40B1B0
:10828000584AD2E9003113F1807341F10001C2E98B
:1082900000310021304600F006FA38B1524C236814
:1082A00023B12068FFF74EFF0023236001213046F1
:1082B00000F0F9F920B1FFF70DFF4C4BC3E90001C5
:1082C0004B48494D4B4C4C4F01A901F0EAF90028AD
:1082D00042D1DFF82081444CDFF82491404602F07F
:1082E000E8F82368002872D07BB12368D0E90252F5
:1082F000D3E902138D4272EB03032AD223681B7F5A
:108300001BB12168404602F0BEF8404602F0CBF8AF
:10831000D0E9027A0546FFF7DDFE381A6AEB010A5A
:1083200001287AF1000345DBB0F5350F40D3FFF7A4
:108330009BFF324A02444FF496030021484600F066
:1083400023F900283ED1236813B9304600F0F4F831
:10835000256002B0BDE8F0870378012B1DD0022B09
:1083600009D14FF00008204602F09DF8002836D0D1
:1083700080F81C80F7E73BB941680B7F23B90123E4
:108380000B77204602F07FF801A9194801F0B4F9F3
:1083900001A9174801F085F999E741682B689942CE
:1083A00002D100232B60EFE7204602F085F8EBE7CF
:1083B000AA68C0E70021484600F06BF92846FFF79D
:1083C000C1FE01E00D28F9D00023236086E7002BD1
:1083D000BFD1304602B0BDE8F04700F0B1B801238C
:1083E0003B70D1E7F8280020782900207029002070
:1083F0005C2900208011030000290020FFFFB40049
:108400009022002070B5EFF3108672B60C4A946883
:1084100001239CB993600B4B0B4DD3F8801029407E
:108420001160C3F88050D3F8841051604FF0FF32D0
:10843000C3F88420047006B962B670BD0370FAE711
:108440007C29002000E100E0FC06FFBD084B9A6893
:1084500010B55AB150B9EFF3108172B6054A1C68D5
:1084600014605C685460986001B962B610BD00BFCA
:108470007C29002000E100E0435882B03BB100239A
:10848000435043580193019B012002B070471846A6
:10849000FBE70000F8B5204B4479204E43F8242038
:1084A0001F4A204B06EBC4049B1A2279DB081B04ED
:1084B00032B143F002001C49FFF7C2FA0820F8BDB0
:1084C00002680C88C2F8084590F904508A7804794B
:1084D0005201002DD2B219DB14494F1987F800233D
:1084E00001226D0904F01F0402FA04F441F825404A
:1084F000427906EBC201012446F832000C7143F0C8
:1085000003000B49FFF79CFA0020D8E7094904F063
:108510000F040A55ECE700BF9029002088290020AD
:10852000380F0300700F03008C11030000E100E01E
:10853000AE11030014ED00E0036801221A607047D9
:10854000036801225A60704773B501F15005AD0010
:108550000068ADB24FF480348C400026C0F8084368
:10856000C0F84843465101F5A8714559019522F0DC
:108570007F42019D40F82120C0F844430BB1C0F870
:10858000044302B070BD00002DE9F74F0D4622F004
:108590007F4402684FF4803705F150068F408046D3
:1085A000B60002EB8500C2F84873B6B2C2F8087391
:1085B000D2F8041599464FF0000BD0F84035C0F8BA
:1085C000401542F806B05B1A9259009223F07F439F
:1085D000012B009A4FEA850A0CD1264B4FF480609C
:1085E00043F001039847D8F8003043F806B09B5990
:1085F0000193019BD8F80010D1F80465C1F84473C9
:10860000A31B23F07F43012B1CD11A4B05F5A87542
:10861000013443F0010341F825404FF4806098474E
:10862000D8F80030D3F804359E4209D1D8F800308C
:108630000020C3F84473C3F8047303B0BDE8F08F9F
:108640000D20FAE78A44C9F1FF13CAF84045D1F872
:108650000405221A013A22F07F4203F57F43934238
:10866000EED3002AE2D10134CAF84045D1F80435EE
:108670009842DAE7C011030003680222C3F84423DA
:1086800009B1C3F80423704700684FF48271FFF703
:10869000F3BE4FF4803303FA01F10368C3F84813C3
:1086A000C3F80813704750318900006889B2FFF79A
:1086B000E3BE0368D3F804057047000090F9043066
:1086C000002B09DB5A09012103F01F0301FA03F310
:1086D0004032024941F82230704700BF00E100E01B
:1086E000024B034A1B681068184700BF90290020FE
:1086F0008829002070B5064D0646002455F8043B35
:108700000BB1304698470134042CF7D170BD00BF3F
:10871000A02900204388033300EB830399420BD345
:1087200082884FF6FF739A4208D0038833B180687D
:10873000431C58425841704702207047012070473F
:10874000033080B240F2FE33984230B51FD8134B4D
:108750001A783AB91C895D892C440444A4B2B4F552
:10876000806F0AD91A7DAAB99A8BDC8B2244024405
:1087700092B2B2F5806F0DD801220A8014461422FD
:1087800002FB04335A8910445881002030BD48F25E
:108790000860FBE748F20660F8E700BFD429002034
:1087A0000B4A0C495388142000FB0311CB6833B9E2
:1087B0000420496810700122074801F061BB074995
:1087C0000523137002238B80012209680023F3E73D
:1087D000B8290020D4290020602200209C2A0020F3
:1087E00007B5002305490093054A09680548082391
:1087F00001F0ACFA03B05DF804FB00BF9C2A002036
:10880000D41103006022002007B500230146009325
:10881000034A0448082301F099FA03B05DF804FB09
:10882000CC1103006022002013B500230C460093F6
:108830000146084A0848042301F088FA38B9074B72
:10884000142101FB043101230B7402B010BD48F266
:108850000D60FAE7C811030060220020D42900202F
:1088600037B50A480A4B42689C8819685388032523
:10887000033305709BB2002000909B0001EB840144
:10888000044801F063FA03B030BD00BFB8290020EE
:108890009C2A00206022002010B50146044800F008
:1088A000C6FE1C220446002108F09DFA204610BD99
:1088B000882A002068B10268084B9A4209D14068B2
:1088C000074B984207D00133984214BF0320012080
:1088D0007047032070470020704700BFDEC0ADDE48
:1088E000FE011EF12DE9F0410D460223154F2B80AC
:1088F000164600F5805100F108044FF001088C4243
:108900000ED2236801330BD02046FFF703FF48B196
:108910000EB186F80080022809D14FF480632B80C5
:10892000BDE8F081A3683A68934200D93B602B8888
:108930006288033313442B806388033304EB83047E
:10894000DDE700BFCC29002038B5144B14220D46BA
:1089500002FB00302B68446804F58051A3B15C88A9
:10896000033403EB84048C4215D22368013312D004
:108970002046FFF7CFFE012808D002280BD00028A0
:10898000F1D12C60012038BD0834ECE76388033353
:1089900004EB8304E7E70020F5E700BFD4290020BB
:1089A000426873B504460D466AB3234BD9688A42C0
:1089B00029D31B699A4226D812F0030323D11F49F9
:1089C0000089098988421ED12068916888421AD19D
:1089D0001B4841688A4203D901F580518A420DD370
:1089E00081698A420CD901F580518A4208D201225C
:1089F0002A80B3FA83F0400902B070BD1A46F7E747
:108A000048F20963F5E700262E800196288801A91F
:108A1000FFF79AFF30B92B8801339BB2012B2B80D3
:108A2000F3D9E9E7019B226899689142EED163602E
:108A3000024B1B892381DFE760220020B829002038
:108A4000D42900202DE9F8431C461D4B1B7806460F
:108A50000F46154673B382B37CB3DFF86C804FF0DA
:108A60001409A388012B02D948F2096020E009FB10
:108A700003F318F803302BB9A0882146FFF764FFF1
:108A800020B92060A3880133A380EAE723681EB1E0
:108A9000998832889142EFD11FB119883A88914262
:108AA000EAD19A68C5E90023064B1B892B81002077
:108AB000BDE8F88348F20160FAE748F20460F7E79E
:108AC000B0290020B8290020D429002008B5074B80
:108AD0005888191DFFF738FF18B1BDE80840FFF7A7
:108AE000BFBEBDE80840FFF75BBE00BFB82900204D
:108AF0002DE9F047A24FDFF8AC8288B006463B680C
:108B000023B9A048414600F0CCFD38603D68297883
:108B10004B1E052B07D8DFE813F020007A007A00FF
:108B20000C010C01640148F20E641422002103A818
:108B300008F059F941F61D539C4208BF00243B68D8
:108B400004941A78023A042A00F20282DFE812F052
:108B5000E301EF011102190220022EB18A4B00221B
:108B60005A604FF40644E0E72B79032B1CD8DFE86A
:108B700003F014022A35854A1378022B1AD0137D8C
:108B8000022B4FF0010317D114214B43D1180020C1
:108B9000D0544868FFF738FE03E001232B71FFF73C
:108BA0001FFE002800F0BF80774B00225A6048F279
:108BB0000D64BAE70023E7E7734A1370002353609C
:108BC00041F61D54B1E772497248002302222B710D
:108BD0008A800968012201F053F9E2E76C4C002613
:108BE0002E712068FFF710FE6B4BDFF8A0C15B8889
:108BF0002568142253430CEB03020CF80360516800
:108C00005560A588158102222160A280C9E7B5F8C8
:108C100014A0AA7DDFF87491AEB1022AEB8806D9C0
:108C2000142101FB0A91DA1C088902440A811422EA
:108C300002FB0A99C3F57F43B9F80A20FD331344B8
:108C4000A9F80A308DE7142303FB0A9318895C689E
:108C500004EB8004062A69D8DFE802F0274E364488
:108C60001D5A040041F61D54AA7DEB88022A06D93C
:108C7000142101FB0A91DA1C088902440A8114229A
:108C800002FB0A99C3F57F43B9F80A20FD33134468
:108C9000A9F80A3049E74148414900234360AB69DC
:108CA0000360FFF77DFE00285BD00223AB75002335
:108CB00000930423EA182146364801F047F80028BB
:108CC00031D048F20D64CFE72B69002B14BF03238A
:108CD0000123AB750023009305F10C02042304F17A
:108CE0000801E9E70123AB750022EB8800922A69AD
:108CF0009B0004F10C01DFE703290CBF05230623C9
:108D0000AB7500230093042305F10802E118D3E7B3
:108D10000623AB75224B1988204B5868FFF784FD5A
:108D200004460028A0D108B0BDE8F08748F20E64E0
:108D30009AE7002E7FF415AF2B79012B34D0022B4C
:108D40003FF43EAF002B7FF4EEAE02232B710DF10A
:108D50000A01EB68039303A8CDE90466FFF720FE40
:108D600010B948F20964E0E60498BDF80A10838857
:108D7000EB8003882B81FFF757FD044627E000BFF7
:108D8000D0290020882A0020B0290020D4290020E2
:108D90009C2A002060220020B8290020942900206D
:108DA000A82A0020C82900207B4B03AA3146A81D11
:108DB000FFF748FE784B044668B999880498FFF796
:108DC00033FD044648F209639C423FF4F9AE002C9F
:108DD0007FF4ABAEA7E708223146184608F003F847
:108DE000F0E7002E7FF4BDAE6C4B1A7BB2B11E7360
:108DF0001A78013A062A3FF696AE01A151F822F000
:108E0000AB8E0200D18E0200EF8E0200F58E0200C2
:108E1000278B0200FB8E02000D8F02001A78072AB2
:108E2000E6D801A151F822F0498E0200F18D02002E
:108E3000F18D02006F8E0200838E0200A78E020069
:108E4000A78E02006B8E02001A89554901321A81E1
:108E500000225A801A730A78B2FA82F252099A7280
:108E60000A7DB2FA82F25209DA72012207E04D4914
:108E700058688A884088033202448A8002221A7025
:108E8000B6E75C88464A4749142505FB0422086872
:108E9000546850608888108102200C60888000210E
:108EA00011740622EBE70722E9E79A7A32B9DA7AF7
:108EB0008AB900221A705A805A6081E63849002225
:108EC0009A72CA68002AF2D1097C0029EFD05A8030
:108ED000FFF7FCFD51E70022DA72314A116A0029DE
:108EE000E7D192F82420002AE3D00122EFE7FFF730
:108EF000B7FC42E7FFF754FC3FE75A88284B1421A0
:108F000001FB02335868FFF77FFC36E700225A6006
:108F1000FFF766FC31E701228DF80C201A89ADF8C5
:108F200018209A88DB68ADF81A20059310E0022219
:108F30008DF80C201A89ADF818209A88ADF81A20FF
:108F4000DA689B7D05929A1F534253418DF81C307D
:108F500003A8FFF7CFFB0026414613483E6000F010
:108F6000CBFB1248012100F081FC00287FF4C7AD43
:108F7000D9E603228DF80C20DA88ADF818201A897A
:108F8000D0E704228DF80C20DB88ADF81830DFE73D
:108F900005238DF80C30DBE7AC2A0020B82900202F
:108FA000D42900209C2A0020882A0020982A00200A
:108FB0004068FFF79DBD000008B50548012100F09D
:108FC0003DFC18B9BDE80840FFF792BD08BD00BFE1
:108FD000982A00202DE9F3419846374B1B78064626
:108FE0000D46002B5CD000295DD009884FF6FF7339
:108FF00099425BD06B88002B58D06B689B0758D187
:109000004AB92F890DF102013846FFF799FB30B1BB
:1090100002B0BDE8F08113885788ADF8023001A88E
:10902000FFF73AFC044660B9BDF80220234B142137
:1090300001FB023358890338C01B588148F207608E
:10904000E6E780F8008000238375BDF80230838254
:109050006B68036101211A4800F0FCFB2B88238117
:10906000B8F1030F6B88A38004BF0423A3754FF0EE
:10907000000508BF3368E06008BFA3611148E780BE
:10908000658101A900F0FDFA36B1E36833600E4B4B
:1090900075601B89B5723381FFF78EFF0020B7E73B
:1090A00048F20160B4E748F20460B1E748F20360B7
:1090B000AEE748F20260ABE7B0290020D4290020D7
:1090C000CC290020882A0020B829002008B50346B2
:1090D00007480268042A08D00168064A42F821308D
:1090E000012100F0B7FB002008BD48F20B60FBE750
:1090F000A42A0020A02900202DE9F04F89B01422D5
:10910000002103A807F06FFE7A4B1B7803F0FF0BDA
:109110003BB103A8FFF7EEFA0027384609B0BDE8D7
:10912000F08F744B181D00F0ADFB0028F4D1DBF874
:10913000F83FDFF8E0A15C1C08BF4FF010234FF0B0
:10914000805208BF5B6911695269581C08BF02FB55
:1091500001F3CAF810306849A3F540530022504685
:10916000CAF80C3000F0C0FD07460028D5D11C23FA
:1091700062496348DFF8A0918C2200F023FA0323B0
:10918000B8463D4601933C46DAF80C60464430460A
:10919000FFF790FB012862D0032817D000283DD1AB
:1091A00058494FF0140C0CFB04FC01EB0C0201F8C5
:1091B0000C0056600CF110020CF1080C0A44304609
:1091C0006144FFF78FFB45F0020545E03268531C10
:1091D00002D04D4B9A4234D1321D06F580511068B1
:1091E00001302ED104329142F9D1D9F800203AB998
:1091F0000222C9F80060A9F804204FF0010B0BE02F
:10920000142262433F4B0220991898543F4A4E6003
:10921000548001340881A4B245F0010508F5805856
:10922000B8F5405FB0D1019B012B98BF0025EDB28E
:10923000022D03D0062D32D0002D39D148F20A6715
:109240006BE7019B2F495A1E93B214226243881880
:1092500001934660032088540134A4B2DEE7BBF1D9
:10926000000F0DD0274B1422624399180220985406
:10927000D9F800204A60254A088154800134A4B2FC
:1092800000222349C9F800603046FFF72BFBB9F8EC
:109290000420022A0CBF042208221543BEE7154A07
:1092A0000123137003A800235360FFF723FA34E768
:1092B00002A8FFF7F1FAC8B10123013D03700A2D9E
:1092C00009D8DFE805F006080608070807080F11A7
:1092D0000F000023037102A9094800F0D2F9FFF73B
:1092E0006BFE1AE70323F5E70223F3E748F207676B
:1092F00013E700BFB0290020C8130300FC29002099
:10930000882A0020D4290020DEC0ADDEB829002044
:10931000A02A0020602200209C2A002073B50D4660
:109320000446C8B1C1B10DF10601FFF739FBB0B178
:10933000BDF806300B486668142202FB03000121C9
:109340000C3000F087FA63682E600C336B600123E9
:10935000A372002002B070BD48F20460FAE748F240
:109360000960F7E7D429002013B50446A8B10DF130
:109370000601FFF715FB98B1BDF806200B4B142131
:1093800001FB0233DA6872B1A27A62B1DA680020B6
:10939000013ADA60A07202B010BD48F20460FAE748
:1093A00048F20960F7E748F20560F4E7D4290020A5
:1093B00002230022FFF70EBE18B103230022FFF79D
:1093C00009BE48F204607047114B1B7813B5044680
:1093D000ABB14FF6FF73984214D001A8FFF75CFAC7
:1093E00098B10523037001230371C48001A90948C2
:1093F00000F047F9FFF7E0FD002002B010BD48F291
:109400000160FAE748F20360F7E748F20760F4E723
:10941000B0290020882A00200F4B1B7807B5A3B184
:1094200001A8FFF739FA98B10623037001A90B4888
:1094300000F027F90A4B1A780AB101221A73FFF7D4
:10944000BBFD002003B05DF804FB48F20160F9E7C2
:1094500048F20760F6E700BFB0290020882A002004
:10946000B829002007B5ADF80600ADF804100DF1DD
:10947000060001A9FFF7E6FA03B05DF804FB07B5A3
:109480001346ADF806000A4600200DF10601FFF76D
:10949000D9FA03B05DF804FB07B51346ADF8060032
:1094A0000A460DF106000021FFF7CCFA03B05DF883
:1094B00004FB20B119B103680B600020704748F22B
:1094C000046070472DE9F84F3C4B1B780446002B95
:1094D0006DD000286ED0DFF8E8901222002107F04E
:1094E00082FC032323804FF0000A4F4614264FF0DE
:1094F0000108D9F80410B9F80AB0B9F808500846BC
:10950000FFF7D8F9032808BF2388628804BF03F156
:10951000FF33238006FB0A735D44DB6813446380DA
:1095200023899B446389A4F808B0ADB22B446381BE
:10953000C5F58065A389ADB2AB4238BFA58101F105
:10954000080501F58051A94229D92B68013326D09D
:109550002846FFF7DFF801280AD0022815D0002896
:10956000F1D1A3880133A3800AE04FF0010AC0E7DC
:10957000E3880133E380E3896A8803331344E3819A
:109580006B88033305EB8305DDE7E38884F81080FF
:109590004D1BE189013301EBA501E380E18109F174
:1095A0001409BAF1000FE0D00020BDE8F88F48F2AE
:1095B0000160FAE748F20460F7E700BFB029002035
:1095C000D429002010B561B1B2FBF3F403FB1424DD
:1095D000A4B244B9C0E9001484608281C3812046EA
:1095E00010BD0E20FCE70920FAE782B050E8022FF8
:1095F000C188B2EB324F4FF0000317BF92B241EA7D
:10960000014142EA014104E04268B2EB324F08BF37
:10961000012340E80212002AE8D18DF807309DF8B6
:109620000730002B0CBF1120002002B0704737B567
:1096300050E8013F9DB2C48925448489A54228BFD2
:109640002D1B0489A54202BFBFF32F8F002207E024
:10965000C5EA030540E80154002CE9D14FF00102AE
:109660008DF803200193019A0A609DF8031001F020
:10967000FF0321B1006810FA82F003B030BD184634
:10968000FBE70A884B889A4209D150E8012FC2EAC9
:10969000024240E80123002BF7D10120704700204F
:1096A000704737B550E8023F1FFAA3F5C488A542BA
:1096B00002BFBFF32F8F00220DE0C48925448489A7
:1096C000A54228BF2D1BC3EA054540E80254002CE3
:1096D000E8D14FF001028DF803200193019A0A604E
:1096E0009DF8031001F0FF0321B1006800EB124068
:1096F00003B030BD1846FBE70A884B889A4209D16F
:1097000050E8022FC2EA224240E80223002BF7D1A0
:10971000012070470020704701F01F024B09012112
:10972000914000EB830000F065B84B0910B501F0E3
:109730001F040121A14000EB830000F04FF8E0403E
:1097400000F0010010BD01F01F0301229A404B09F7
:1097500000EB8300D14300F065B84B0901F01F0115
:1097600050F82300C84000F0010070472DE9F04791
:109770004F1E7F0980460E460137002558F82540C8
:1097800008EB8509E44394FAA4F4B4FA84F44FEAAC
:10979000451A202C06D10135AF42EFD83446204679
:1097A000BDE8F0875444A642F5D921464046FFF76C
:1097B000BCFF0028F3D0D9F80040E44394FAA4F4A5
:1097C000B4FA84F4E5E710B5034653E8000F0A46FF
:1097D00043E8002494F0000FF7D110BD10B5034604
:1097E00053E8000F40EA010243E8002494F0000F20
:1097F000F6D110BD10B5034653E8002F42EA010030
:1098000043E8000494F0000FF6D110BD10B50346F4
:1098100053E8000F00EA010243E8002494F0000F2F
:10982000F6D110BD10B5034653E8002F02EA01003F
:1098300043E8000494F0000FF6D110BD10B50346C4
:1098400053E8000F00EB010243E8002494F0000FFE
:10985000F6D110BD10B5034653E8002F02EB01000E
:1098600043E8000494F0000FF6D110BD10B5034694
:1098700053E8002FA2EB010043E8000494F0000F2E
:10988000F6D110BD0121FFF7A9BF0121FFF7B2BF3B
:109890000021FFF7BBBF10B590B1D0E901230168EB
:1098A0009B1ADBB20A60013BDBB2FF2B026802D1DC
:1098B0000020107110BD11684C1C14600B70F2E791
:1098C0000E20F7E737B5054600240DF107008DF8A7
:1098D0000740FEF797FD2A686B68116899420ED918
:1098E000481E106011F8013CEC68298A01FB034412
:1098F000AB6811791B1ADBB2994238BF13719DF81E
:109900000700FEF7A3FD204603B030BD37B505467E
:1099100000230DF107000C468DF80730FEF772FDAD
:109920002A681368591C1160E968641A298AB4FB13
:10993000F1F41C709DF80700FEF788FD03B030BD00
:10994000826810B504462AB14369016800699847E6
:109950000023A36010BD0EB403B5039921B104AB7D
:1099600001AA019300F076F802B05DF804EB03B0B1
:1099700070470A2938B504460D4602D10D21FFF77C
:10998000F8FFA3682268591CA160D554D4E90132BC
:109990009A4204D32046BDE83840FFF7D1BF38BD16
:1099A0002DE9F84F9846DDE90A43154682460F46F1
:1099B0000A464FF00109AA420FD2C14538BFC1463D
:1099C00013F0010B01D16CB900240126B8F1010F8D
:1099D0001BD908F1FF386E43F8E709F10109B2FB22
:1099E000F5F2E8E79B070ED5B8F1000F0CBF302663
:1099F0002026A145E9D2013C31465046FFF7B9FF88
:109A0000002CF6D1E0E72026F3E7B7FBF6F39D4202
:109A1000E1D9DFF83C80B7FBF6F3504618F80310A5
:109A200006FB1377FFF7A5FF3346AB42B6FBF5F60F
:109A3000F1D2BBF1000F02D00CB1A14501D3BDE8BA
:109A4000F88F20215046013CFFF793FFF4E700BF59
:109A5000DC1103002DE9F74F05461746884600291B
:109A600000F03E8118F8011B49B92B7B002B00F058
:109A70003781284603B0BDE8F04FFFF761BF2529C5
:109A800040F0B780002698F800302D2B424608F1B0
:109A9000010823D0302B24D02B2B25D000242A2BB7
:109AA00002F1010123D13B681A1D1B683A601C4476
:109AB0000A4613782E2B26D101324FF0000A1046A9
:109AC00010F8011BA1F1300CBCF1090F1DD80A23BD
:109AD00003FB0A13A3F1300A0246F0E746F0010641
:109AE000D1E746F00206CEE746F00406CBE711F8D0
:109AF000013CA3F130000928DBD80A2202FB043420
:109B0000303C0A46CBE74FF0000A12F8011B01F087
:109B1000FB0068289046F8D0782909D86F290CD81E
:109B2000632962D022D8252963D0582900F0888083
:109B300098F80030002B95D197E770390829F7D8AD
:109B400001A353F821F000BFBB9C0200319B02002F
:109B5000319B0200519C0200319B02002F9C0200AD
:109B6000319B0200319B0200419C0200642901D01C
:109B70006929DDD13A68D2F80090111D89EAE972AD
:109B80003960A2EBE9724FF0010B092A35DCD345AD
:109B900038BFD3462CB1B9F1000F01DB720700D5F5
:109BA000013CB30702D5BAF1000F03D0F00701D48E
:109BB0004CBB0024B9F1000F2DDAC9F100092D21A9
:109BC0002846FFF7D6FE06F00302022A04D1BAF1B6
:109BD000000F01D11CBB0024CDE9004653460A22E8
:109BE00049462846FFF7DCFEA2E73B681A1D1978B4
:109BF0003A602846FFF7BDFE9AE70A230BF1010BF6
:109C0000B2FBF3F2C1E7A345D4D220212846013CA0
:109C1000FFF7AFFECCE77107D5D52B21D0E7A345E1
:109C2000DAD230212846013CFFF7A3FED2E739689B
:109C3000CDE900460A1D3A6053460A220968D0E77A
:109C400039680A1D3A60CDE9004653461022F5E70F
:109C50003B681A1D3A6016F00106D3F8009024D133
:109C6000B9F1000F03D0484607F0F0F80646B442B9
:109C70001DD809F1FF3919F8011F00293FF458AF29
:109C80002846FFF776FEF6E728460136FFF771FE15
:109C900019F806100029F7D1A642BFF449AF2021D8
:109CA0002846013CFFF765FEF6E70026F0E7202195
:109CB0002846013CFFF75DFED9E73B681A1D3A6074
:109CC000302128461C68FFF754FE78212846FFF70C
:109CD00050FE00220823CDE900322146102280E701
:109CE00003B0BDE8F08F00BF13B50B46114680B935
:109CF000104B1148114AC01A0E23C0080093104B94
:109D00000004104940F00100FDF7B1FE0E2002B042
:109D100010BD4BB9074B08480B4AC01AC0080E23A8
:109D200000930004064BECE703601B6802B0BDE83B
:109D300010401847380F0300880F0300EC11030090
:109D4000A8130300F1110300201203002DE9F743CB
:109D5000DDF8288088B93E4B3E483F4AC01AC0080B
:109D60000E243E4B009400043D4940F00100FDF7F5
:109D70007EFE204603B0BDE8F0834AB9344B354837
:109D8000384AC01AC0080E24344B00940004EBE794
:109D9000D0F800E0BEF1000F09D12D4B2D48324A1A
:109DA000C01AC00808242D4B00940004DCE74BB90E
:109DB000274B28482D4AC01AC0080924274B009475
:109DC0000004D1E74568D5F80490B3FBF9F509FB29
:109DD00015354DB11E4B1F48254AC01AC00809242D
:109DE0001E4B00940004BFE78D0709D0184B19489B
:109DF000204AC01AC0081024184B00940004B3E78E
:109E000012F0030F09D0124B12481B4AC01AC008A7
:109E10001024124B00940004A6E7C568A9420DD394
:109E20004D1EEC180569AC4208D8CDF82880DEF844
:109E30000C40A44603B0BDE8F0436047044B05481E
:109E40000E4AC01AC0081024044B009400048BE78B
:109E5000380F0300880F0300EC1103009513030073
:109E6000F11103006E1203001A1203002D120300F9
:109E7000741203009E120300B6120300D9120300ED
:109E8000F7B580B92A4B2B482B4AC01AC0080E24BC
:109E90002A4B009400042A4940F00100FDF7E7FD39
:109EA000204603B0F0BDD0F800C0BCF1000F09D1CE
:109EB0001F4B2048234AC01AC00808241F4B009497
:109EC0000004E8E74AB91A4B1A481F4AC01AC008EA
:109ED00009241A4B00940004DDE74568D5F800E03A
:109EE0000EF1FF350D4209D0114B1248174AC01A26
:109EF000C0081024114B00940004CCE7C568A942A7
:109F00000CD34D1E0EFB02540569AC4206D8DCF89A
:109F10001040A44603B0BDE8F0406047044B05483C
:109F20000B4AC01AC0081024044B00940004B2E786
:109F3000380F0300880F0300EC11030082130300A5
:109F4000F11103001A1203002D1203000013030085
:109F50002613030029DF704728DF704770B50368B8
:109F60009E6886B004460D466EB1142200216846F4
:109F700006F039FFA3680593237901952BB1012BD6
:109F80000DD06846B04706B070BD01238DF8003093
:109F900023690293E368039363690493F1E702235F
:109FA0008DF80030E3681B030293F5E7084670471D
:109FB00000207047024B187A003818BF0120704704
:109FC000502B0020034B187A0122B0FA80F05A740B
:109FD00040097047502B002008B510461A4606F07D
:109FE000D9FE002008BD000008B514220021044855
:109FF00006F0F9FE0348FFF7F8FA002008BD00BF9D
:10A00000502B0020402B002010B5094C094B436019
:10A010002046FFF737FC40B906F052FC0649207491
:10A020001C2306488C22FFF7CDFA002010BD00BF8C
:10A03000502B0020BC130300B42A0020402B00202A
:10A0400038B5234D234C2B7A3BB923492348FFF7DE
:10A0500028FB206008B9686038BD022324682B7291
:10A06000237973B1012B24D020460321FFF776FF1B
:10A0700000232B726B6018491848BDE83840FFF781
:10A080003BBBD4E90523D21AB2F5805FD4E90310B3
:10A0900028BF4FF480529208012A38BF0122194488
:10A0A0001844FFF757FF50B11128DDD101232B725F
:10A0B000D2E7D4E903031844FFF74EFFF3E72B7C04
:10A0C000002BC9D1BDE83840022000F009B800BF1C
:10A0D000502B0020682B0020642B0020402B0020F8
:10A0E00038B5234C237A002B41D0022B09D1032809
:10A0F00030D0204B00221B68E2601A793AB1012A65
:10A1000022D0637C7BBBBDE83840FFF799BFD3E921
:10A1100005128D1AB5F5805F94BF521902F5805271
:10A120009A619142EDD102284FF0000308BF194611
:10A130002372104B18BF0D211868FFF70FFF0E494F
:10A140000E48FFF7D9FADCE71A6901321A615B6938
:10A150009A42E7E7E3680133082B01D8E360D0E7D0
:10A160000023E360DFE7BDE8384006F099BB38BD67
:10A17000502B0020682B0020642B0020402B002057
:10A18000831E012B01D8FFF7ABBF704700F0FD0322
:10A19000012B08D1044B00225A74421E50425041F8
:10A1A0001874FFF74DBF7047502B002010B5064CB8
:10A1B000201DFFF767FB28B9637C1BB9BDE8104081
:10A1C000FFF73EBF10BD00BF502B00202DE9F3412B
:10A1D00080460D460F4801A916461F46FFF727FA8D
:10A1E0000446A8B11C22002106F0FDFD2D0B012321
:10A1F000237101A90748C4F80080A760E560666183
:10A20000FFF73FFAFFF7D2FF002002B0BDE8F08170
:10A210000420FAE7402B00202DE9F74381468846C9
:10A22000104801A917461E46FFF701FA0446B0B1CF
:10A230001C22002106F0D7FD00250A9BA36001A97E
:10A24000C4E9037807482571C4F800906661FFF7F8
:10A2500018FAFFF7ABFF284603B0BDE8F0830420EF
:10A26000FAE700BF402B00202DE9F84FB0F806A018
:10A270004579D2F800B09DF828900AFB05F5043D19
:10A2800088460BEB0301A94203F1040488BFA5EB48
:10A29000030BB4FBFAF607460AFB1644C2F800B0FB
:10A2A0004EB9AAEB04055D4528BF5D46BBF1000F22
:10A2B00004D1BDE8F88F3F68013EF1E7043408EBB4
:10A2C00006003C442A46B9F1000F0DD02146ABEB05
:10A2D000050B06F05FFDDA452E443F6855464FF00A
:10A2E000000428BF5D46E1E701462046EFE7FFF79F
:10A2F000D2BAF8B546790146721E0546002393424C
:10A300002D6803D30024A64202D8F8BD0133F6E736
:10A310000F682846FFF7FAFA01343946F3E72DE9CA
:10A32000F843068ACD1C0746FFF7CCFA043E3544B5
:10A330000446B5FBF6F5F0B14FF48073EDB28380BF
:10A34000C680013D076081464FF00008A84512D243
:10A350003846FFF7B7FA064648B1637901336371AF
:10A3600008F10108C9F8000007608146EEE72046C1
:10A37000FFF7BFFF34462046BDE8F88301210430D3
:10A38000FFF768BA10B5012104460430FFF76EFAF2
:10A39000C0B220B92046BDE81040FFF7AABF10BDEB
:10A3A0001FB503920022009203AAFFF75DFF05B0DC
:10A3B0005DF804FB1FB503920122009203AAFFF788
:10A3C00053FF05B05DF804FB41DF7047064B10B545
:10A3D00000241C70054B1C60BFF35F8F04490548C7
:10A3E00000F03BF8204610BD742B0020782B002095
:10A3F000F41303006C2B002007B500230DF10700B8
:10A400008DF80730FDF7FEFFF1EE103A23F09F03C1
:10A41000E1EE103ABFF35F8F0A4B4022C3F884216C
:10A420009DF80700FEF712F806F04AFA20B103B0D3
:10A430005DF804EBFFF7C8BF20BF40BF20BF03B0EB
:10A440005DF804FB00E100E0836800225A60C3E984
:10A4500004229A60DA601A6070470B684A684360A9
:10A46000934208BF0023016008BF43607047436800
:10A4700043B10268916852680B449342436004BF41
:10A4800000234360704770B5446806460D46206857
:10A4900018B1B3682946984718B923682B6025601E
:10A4A00070BD2468F3E74368186808B102681A6051
:10A4B00070474368186870474368186800B9704768
:10A4C000884203D102681A60012070470346006881
:10A4D000F4E7000010B50D49A1F59472914201D83E
:10A4E00000200FE08C1AE30F03EBE4035B1002EB98
:10A4F000C30452F83330834205D802D204F1080273
:10A50000ECE7606810BD2146E8E700BF00190300D2
:10A5100008B5FFF7DFFF024B002808BF184608BD4B
:10A52000C31703004FF08053D3F83001A0F10803A4
:10A5300058425841704700004FF08053D3F8302103
:10A54000082A06D1D3F83431032B02D8024AD05C52
:10A5500070470020704700BF0019030008B5FFF7DF
:10A56000E1FF40B14FF080430022C3F80C21C3F853
:10A570001021C3F83825FFF7D5FF002846D04FF04B
:10A580008052614BD2F80414C3F82015D2F8081495
:10A59000C3F82415D2F80C14C3F82815D2F81014F7
:10A5A000C3F82C15D2F81414C3F83015D2F81814C7
:10A5B000C3F83415D2F81C14C3F84015D2F820148F
:10A5C000C3F84415D2F82414C3F84815D2F8281457
:10A5D000C3F84C15D2F82C14C3F85015D2F8301427
:10A5E000C3F85415D2F83414C3F86015D2F83814EF
:10A5F000C3F86415D2F83C14C3F86815D2F84014B7
:10A60000C3F86C15D2F84424C3F87025FFF794FF03
:10A6100018B13E4B3E4AC3F88C26FFF78DFF18B1A8
:10A620003C4BFB22C3F81825FFF786FF70B14FF0B3
:10A6300080414FF08053D1F8E42ED3F8583222F005
:10A640000F0203F00F031343C1F8E43EFFF774FF5A
:10A6500020B1314B4FF40072C3F84026FFF762FF80
:10A6600048B14FF08043D3F80024D20744BF6FF0C5
:10A670000102C3F80024294AD2F8883043F4700359
:10A68000C2F88830BFF34F8FBFF36F8F4FF01023A6
:10A69000D3F80022002A03DBD3F80432002B2EDA91
:10A6A0001F4B0122C3F80425D3F80024002AFBD055
:10A6B0004FF010221221C2F80012D3F80024002A11
:10A6C000FBD04FF010231222C3F80422144BD3F80E
:10A6D0000024002AFBD00022C3F80425D3F800246C
:10A6E000002AFBD0BFF34F8F0C490E4BCA6802F40F
:10A6F000E0621343CB60BFF34F8F00BFFDE70A4B0F
:10A700000A4A1A6008BD00BF00C000400050004067
:10A710004881030000F000400090024000ED00E09E
:10A7200000E001400400FA05982200200090D003C8
:10A73000074B1B5C1F2B8ABF064A4FF0A04203F059
:10A740001F03D2F80405D840C04300F00100704751
:10A750000819030000030050074B1B5C1F2B86BF2A
:10A76000064903F01F034FF0A041012202FA03F350
:10A77000C1F80C35704700BF0819030000030050F2
:10A78000074B1B5C1F2B86BF064903F01F034FF0CE
:10A79000A041012202FA03F3C1F80835704700BF57
:10A7A000081903000003005008B50020FFF7E8FF78
:10A7B0000120FFF7E5FF0220FFF7E2FFBDE80840B8
:10A7C0000320FFF7DDBF08B50020FFF7C5FF01201C
:10A7D000FFF7C2FF0220FFF7BFFFBDE808400320DC
:10A7E000FFF7BABF0A4B185C1F288ABF094B4FF00E
:10A7F000A04300F01F00D3F804250121814021EA85
:10A8000002000A40C3F80805C3F80C25704700BFD2
:10A810000819030000030050074B1B5C1F2B8ABF65
:10A82000064A4FF0A04203F01F03D2F81005D840AB
:10A83000C04300F0010070470419030000030050FA
:10A840000B2809D00C2809D0182809D019280CBFCA
:10A8500003204FF0FF307047002070470120704701
:10A8600002207047014B185C704700BF04190300B9
:10A87000C20710B504460CD54FF0A0430322C3F81D
:10A880003427C3F83827C3F83C27C3F84027FFF71D
:10A890008BFFA3070AD54FF0A0430C22C3F82C2747
:10A8A000C3F83027C3F86027C3F8642710BD000041
:10A8B00038B5074C051E04F1080318BF1C46236871
:10A8C0002BB11A6822605B6828469847F7E738BDC5
:10A8D000842B002020B9054B01225A70FFF7E8BFF6
:10A8E000012802D1014A9070F8E770477C2B0020C4
:10A8F00020B9034B01225A70FFF7DABF704700BF3F
:10A900007C2B002038B50E4C2378B3B90D4863601A
:10A91000A3602361E36000F0E7F8054605F0D0FF8F
:10A9200008B900F0EDF801232370074BD3F8003489
:10A930000BB10123A370284638BD8525F5E700BF7C
:10A940007C2B0020D5A802000000014037B50D4C3B
:10A9500000230DF107008DF80730FDF753FDE36884
:10A96000013BE360E36833B9074BD3F8005415B9F2
:10A9700000F0D8F8A5709DF80700FDF767FD03B05B
:10A9800030BD00BF7C2B002000000140012813B522
:10A990000CD0032820D038B9134B0122C3F88020F3
:10A9A000BFF34F8FBFF36F8F02B010BD0F4C00236A
:10A9B0000DF107008DF80730FDF724FD23780BB962
:10A9C000FFF7A0FFE3689DF807000133E360012370
:10A9D000A370FDF73BFDE7E700F092F802B0BDE899
:10A9E0001040FFF7B3BF00BF00E100E07C2B002068
:10A9F0001FB503788DF800304368019383688DF8A4
:10AA00000830C368054A0393054B684653F8213064
:10AA100052F82110984705B05DF804FB902B0020F8
:10AA2000982B00201FB503788DF800304368019300
:10AA300083688DF80830C368054A0393054B684660
:10AA400053F8213052F82110984705B05DF804FB07
:10AA5000902B0020982B0020F0B5194B90F800C0E7
:10AA6000DFF86CE043F82C20164B16460A6943F8D1
:10AA70002C204B7F0EF80C300C4607460FCC89B0CB
:10AA80006D460FC594E80F0085E80F003B78CDF8C0
:10AA900010C01EF803304BB1002E0B4A694608BFA8
:10AAA0003246381D00F0FEFD09B0F0BD002E074A09
:10AAB000694608BF324607F10C0000F0B7FBF3E728
:10AAC000982B0020902B0020F1A9020025AA02005B
:10AAD000A02B002000F18040002382B003600368B7
:10AAE0000193019B02B07047044A137923B90121F5
:10AAF000106091801846704785207047A42B002075
:10AB0000074B1A68D20704D4C02283F8002301221D
:10AB10001A604FF080430122C3F81825704700BF28
:10AB200000E100E04FF0804208B50223C2F808338C
:10AB30004FF48270FFF7CEFF0123D360D2F81834B0
:10AB4000DB03FBD408BD00004FF0804110B5D1F805
:10AB5000003163B14FF48070FFF7BCFF0D4B5879A3
:10AB60000122C1F8082310B95A711B6898474FF0A9
:10AB70008042D2F8043163B14FF48270FFF7AAFF2C
:10AB80000223C2F80833034BBDE810401B680120C4
:10AB9000184710BDA42B002000F1804000F5C040F4
:10ABA000002382B0036003680193019B02B07047E9
:10ABB00003681F2B83BF03F01F03036001484FF09E
:10ABC000A04070470003005007B5019001A8FFF7AF
:10ABD000EFFF019B00EB8300D0F8003723F44033F4
:10ABE000C0F80037D0F8003743EA0141C0F8001739
:10ABF00003B05DF804FB0000054B4FF0FF3207285F
:10AC000043F8202084BFC01880F85820704700BF48
:10AC1000AC2B002038B51E4C94F86A30ABBB4FF615
:10AC2000FF71FF205A09012A0CBF0A464FF0FF327C
:10AC300003F01F05EA40D20748BFE21803F1010301
:10AC400048BF82F83000302BECD10021C8B201316E
:10AC5000FFF7D2FF0C29F9D1062200210D4806F09A
:10AC6000C2F80D4BC02283F8062340221A604FF42D
:10AC7000BE70FFF791FF094B4FF00042C3F8042369
:10AC8000012384F86A30002038BD0820FCE700BFAB
:10AC9000AC2B0020102C002000E100E00060004000
:10ACA000034B93F86A00003818BF0120704700BFBB
:10ACB000AC2B0020F7B53D4F3B18044693F93030DC
:10ACC000002B71DA8B78C3F34003002B0BBF0825F0
:10ACD00000250C200820854202D1042003B0F0BDDD
:10ACE00057F82560013647D138196EB247F825204C
:10ACF00080F8306013B97B1983F858408B785A0775
:10AD00001AD4D8073AD501A80194FFF751FF019B47
:10AD100000EB8300D0F8003723F00203C0F80037BF
:10AD20002348E20804F0070C012303FA0CF310F89F
:10AD300002C043EA0C03835488780B7810F00200B9
:10AD400028D0AD0005F1804505F5C0452402D5F8B1
:10AD5000102522F44F3222F44072C5F810251B044E
:10AD6000D5F8102504F47C5403F440331C431443F9
:10AD7000C5F810450020B1E70135ACE701A84A78D5
:10AD80000194FFF715FF019B03F5E073920040F873
:10AD90002320C5E7083E47FA86F797F8604044EA63
:10ADA000831387F8603099E7082097E7AC2B0020E1
:10ADB000102C002073B5244D2E18044696F930202F
:10ADC000072A1DDD083A45FA82F595F860309B099F
:10ADD000032B10D1019001A8FFF7EAFE019BD0F8E8
:10ADE0001015D94001F001010231204602B0BDE842
:10ADF0007040FFF7E9BE012B0CBF02210321F4E7ED
:10AE0000D3B2072B1DD8930003F1804303F5C04351
:10AE1000D3F8100540F00100C3F8100502F140001E
:10AE200040B2800080B2FFF7B7FE51B196F93030E2
:10AE300055F823302BB1012303FA02F2034BC3F878
:10AE4000042302B070BD00BFAC2B002000600040A6
:10AE500007B5019001A8FFF7ABFE019BD0F81005E4
:10AE6000D84000F0010003B05DF804FB2DE9FF4776
:10AE70000024CDE90244584D4FF48072012102F1C3
:10AE8000804303F5C04390B21B68012B06D1D5F86F
:10AE900004330B4202D0FFF77FFE0C430432B2F5BD
:10AEA000907F4FEA4101EAD14B4BD3F87C31012B23
:10AEB00011D14FF4BE70FFF76FFE4FF0A04344F086
:10AEC0000044D3F820250292C3F82025D3F8202887
:10AED0000392C3F82028E3B2D3B1404F00250126E6
:10AEE000344210D0AB0003F1804303F5C043D3F8E4
:10AEF0001005D3F8101557F8253023B1C1F30141DF
:10AF0000C0F3052098470135082D4FEA4606E7D1E2
:10AF1000002C59DA314D324C324E4FF000080127E7
:10AF200016F9013B5A1C3CD0C3F3C20104A80144EA
:10AF30005FFA83F911F8081C03F03F0203F00703DE
:10AF400007FA03F319422CD001A80192FFF730FE53
:10AF5000019B03F5E07350F82330C3F3014ABAF1C3
:10AF6000020F0CBF032102211046FFF72DFE01A89E
:10AF70000192FFF71DFE019B07FA03F3C0F820358D
:10AF8000AB1893F9303055F8233053B14FEA99118B
:10AF9000032904D0BAF1020F19D1012901D11046B9
:10AFA000984708F10108B8F1040FB9D14FF0A04358
:10AFB000D3F820250292C3F82025D4F82035039336
:10AFC000C4F820351343A7D104B0BDE8F087BAF127
:10AFD000030FE6D10229E1E700600040AC2B00201E
:10AFE000000300500C2C0020014B1B68184700BFC9
:10AFF000182C00200E4B984237B50C4602D000208A
:10B0000003B030BD00230DF107008DF80730FDF7C8
:10B01000F9F9084B1D7915B901221C601A719DF8C8
:10B020000700FDF713FA002DE9D01120E8E700BF73
:10B0300000200040182C0020034B984201BF034B16
:10B0400000221A601A71704700200040182C00205E
:10B050000023435082B043580193019B02B07047D4
:10B060000A4610B54FF48E71FFF7F2FF136A91682C
:10B07000C95C136A01331362C0F81C1510BD8B69DB
:10B080000A4610B54FF4847123B9FFF7E1FFD0F8F9
:10B09000183510BDFFF7DCFF536AD168D0F81805EA
:10B0A000C854536A01335362F3E700001FB501230C
:10B0B0008DF80030044BCDE90110D3E90012684649
:10B0C000904705B05DF804FB202C002030B54D4DB5
:10B0D000D5F804339A0585B051D5D5F82431002B25
:10B0E0004DD04FF492712846FFF7B2FF4FF4017331
:10B0F000C5F80833444B93F829200AB901226A6045
:10B10000404902228DF80020D1F88024C1F8802423
:10B1100003929A690292DA6801920022C3E9062238
:10B120006846D3E9001290473648D0F81C315BB12D
:10B13000354A5169136A99424DD992F82830002B4B
:10B1400049D11146FFF78CFF2E48D0F84431002B2F
:10B1500056D04FF4A271FFF77BFF2B4B93F82920B9
:10B160000AB1012202609A69002A49D0586AD96856
:10B1700000229A6105B0BDE83040FFF797BFD5F8CF
:10B1800004335B07D0D5D5F80831002BCCD01E4C4A
:10B190001C482146FFF773FF636AA2699A42C3D134
:10B1A000E369E1684BB1A3612369E3600023606A4E
:10B1B000E3616362FFF77AFFB6E794F829300BB9D1
:10B1C00001236B600F4B4FF40172C3F80823002377
:10B1D000606AA361EEE70B484FF48E71FFF738FF0A
:10B1E0005369002BB0D051690291002391688DF80A
:10B1F0000030019153616846D2E900139847A3E7F4
:10B2000005B030BD00200040202C00201F2886BF44
:10B2100000F01F00044B4FF0A04300F5E070022245
:10B2200043F82020704700BF000300502DE9F84389
:10B23000604D90F804802C2303FB0853064693F8D6
:10B240002A300C469146002B40F0AF805A490068E6
:10B25000FFF7D0FE0746002840F0A9802268531C63
:10B2600010D01F2A87BF554902F01F0313464FF025
:10B27000A0410120984003F5E073C1F808050320C0
:10B2800041F823006168481C0DD01F298BBF01F0D5
:10B290001F030B4649484FF0A04003F5E0734FF001
:10B2A000000C40F823C03068A369C0F8243594F836
:10B2B00014C0637DBCF1010F4CEA0303C0F86C3588
:10B2C000C0F81415C0F80C252BD1A368591C0DD05B
:10B2D0001F2B8BBF03F01F021A4638494FF0A041C5
:10B2E00002F5E0724FF0000C41F822C0E1684A1C00
:10B2F00013D01F2987BF314A01F01F0C8C464FF035
:10B30000A0424FF0010E0EFA0CFE0CF5E07CC2F8E4
:10B3100008E54FF0030E42F82CE0C0F80815C0F81D
:10B3200010352C2202FB08F2AB18C3F804902369F5
:10B33000AB50B9F1000F20D04FF48E71247FFFF78E
:10B3400087FE4FF4A2713068FFF782FE32681C4B13
:10B35000C2F80433130B42F307326101002AC9B269
:10B360001EDB1848841884F800130121520903F0E9
:10B370001F0301FA03F340F8223033680422C3F8B4
:10B3800000252C2303FB08530022C3E9062283F87F
:10B3900029205A61012283F82A203846BDE8F88323
:10B3A000094A03F00F03D154E7E70827F5E711270F
:10B3B000F3E700BF202C0020CDB0020000030050B6
:10B3C0008000020000E100E014ED00E02DE9F04112
:10B3D00003680579284C0022C3F800252C2202FBC3
:10B3E000054201465268A2B1244AC3F808231A0B49
:10B3F00043F30733002B0CDB02F01F005B09012233
:10B40000824020331E4840F82320BFF34F8FBFF304
:10B410006F8F0B68D3F80C05D3F81485D3F8086543
:10B42000D3F810754FF0FF329042C3F81425C3F8DB
:10B430000C25C3F80825C3F8102501D0FFF7E6FE58
:10B44000B8F1FF3F02D04046FFF7E0FE7A1C02D081
:10B450003846FFF7DBFE731C02D03046FFF7D6FEFE
:10B460000868FFF7E9FD2C2303FB0544002384F85B
:10B470002A306360BDE8F081202C002084020200A5
:10B4800000E100E00279044B2C2101FB02335869F2
:10B49000003818BF01207047202C00202DE9F84FFC
:10B4A000064690F8048089469246FFF7EBFF044673
:10B4B00000283CD1204F2C2508FB057B4FF48E71D2
:10B4C000CBF814A0CBF80890CBF820008BF828001C
:10B4D0003068FFF7BDFD3068012383605946FFF7F0
:10B4E000BFFDDBF804305D461BBB3068DBF8144061
:10B4F0002B6A9C4211D83368D3F81C21002AFBD058
:10B500000122DA6000202C2303FB087700237B61F3
:10B51000BDE8F88F95F828303BB9D0F81C31002BE6
:10B52000F8D05946FFF79CFDE2E70F20EBE711202A
:10B53000EEE72046ECE700BF202C0020002343501C
:10B5400082B043580193019B02B070471FB501239D
:10B550008DF80030044BCDE90110D3E900126846A4
:10B56000904705B05DF804FB4C2C00207FB5434AA2
:10B57000D2F82461002E60D010464FF49271FFF78C
:10B58000DDFF02238DF80030D2F88034C2F8803419
:10B590000393D2F83C350293394BDA6801920022CA
:10B5A000C3E906226846D3E9001290473348D0F831
:10B5B000443173B14FF4A271FFF7C0FF304B9A6969
:10B5C0003AB10022C3E90622D968D0F83C05FFF75A
:10B5D000BDFF2A48D0F82031ABB14FF49071FFF78E
:10B5E000ADFF0123C360264B5A6962B1D0F84C15F8
:10B5F0000291002299688DF8002001915A616846F5
:10B60000D3E9001290471D48D0F858319BB14FF450
:10B61000AC71FFF793FF1A4B5A6962B1D0F84C1521
:10B620000291002299688DF8002001915A616846C4
:10B63000D3E90012904704B070BDD2F81031002B4E
:10B64000B4D04FF488711046FFF778FF0C4BD2F856
:10B650003C0599698842A9D1DC69D96864B1D2F8FE
:10B66000005225F02005C2F800521A699C61DA6088
:10B67000DE61FFF76BFF99E79C61FAE7002000406D
:10B680004C2C00201F2886BF00F01F00044B4FF0F9
:10B69000A04300F5E070022243F82020704700BF6D
:10B6A000000300502DE9F843664E90F804802423EF
:10B6B00003FB0863044693F820300D469146002BA7
:10B6C00040F0BC8060490068FFF794FC0746002802
:10B6D00040F0B68029684B1C10D01F2987BF5B4AF9
:10B6E00001F01F030B464FF0A0420120984003F5E4
:10B6F000E073C2F80805032042F823006A68501C72
:10B700000DD01F2A8BBF02F01F0313464F484FF086
:10B71000A04003F5E0734FF0000C40F823C0206810
:10B72000AB69C0F8243595F814C06B7DBCF1010FEE
:10B730004CEA0303C0F86C35C0F80C15C0F81425AA
:10B740002BD1AB68591C0DD01F2B8BBF03F01F02F0
:10B750001A463E494FF0A04102F5E0724FF0000C4E
:10B7600041F822C0E9684A1C13D01F2987BF374A15
:10B7700001F01F0C8C464FF0A0424FF0010E0EFA64
:10B780000CFE0CF5E07CC2F808E54FF0030E42F821
:10B790002CE0C0F80815C0F81035242202FB08F28E
:10B7A000B318C3F804902B69B350B9F1000F2FD030
:10B7B0004FF488712A7FFFF7C1FE20684FF4907123
:10B7C000FFF7BCFE20684FF49271FFF7B7FE2068C8
:10B7D0004FF4A271FFF7B2FE4FF4AC712068FFF78F
:10B7E000ADFE23681A49C3F80413190B43F307335A
:10B7F0005201002BD2B21CDB1648C51885F8002375
:10B8000001225B0901F01F0102FA01F140F8231047
:10B8100023680822C3F80025242303FB08660023BD
:10B82000C6E906337361012386F820303846BDE847
:10B83000F883094B01F00F015A54E9E70827F5E7AF
:10B840001127F3E74C2C00206DB5020000030050D7
:10B850001003420000E100E014ED00E02DE9F041AA
:10B860003D4D06790468242303FB065302465B68BA
:10B87000ABB13A4BC4F8083344F30733002B4FEA1B
:10B8800014310CDB01F01F005B09012181402033E2
:10B89000334840F82310BFF34F8FBFF36F8FD4F8B6
:10B8A000003223F02003C4F80032242303FB0653A4
:10B8B0009B6933B14FF4A2712046FFF73FFE01238D
:10B8C00063604FF4AC712046FFF738FE0123E3605C
:10B8D000242303FB0653D4F858110029FBD099699F
:10B8E00019B1D4F844110029F5D00023C4F800356B
:10B8F0001368D3F80C05D3F81485D3F80815D3F8DA
:10B9000010754FF0FF329042C3F80C25C3F8142590
:10B91000C3F80825C3F8102501D0FFF7B3FEB8F12E
:10B92000FF3F02D04046FFF7ADFE7A1C02D03846FA
:10B93000FFF7A8FE4B1C02D00846FFF7A3FE2046E7
:10B94000FFF77AFB242303FB0655002385F82030FC
:10B950006B60BDE8F08100BF4C2C0020100342005A
:10B9600000E100E00279044B242101FB0233586915
:10B97000003818BF012070474C2C002001F06043B4
:10B98000B3F1005F2DE9F0470646884692463BD169
:10B9900090F80490FFF7E6FF0446002836D11D4FCB
:10B9A0003068242505FB09754FF49071C5F814A083
:10B9B000C5F80880FFF7C2FD4FF4AC713068FFF79F
:10B9C000BDFD33686A69A968C3F84415C3F8482502
:10B9D00001229A606A68DAB9D3F82021D3F85801B5
:10B9E0001AB90028F8D00F2007E00028FBD1012267
:10B9F000DA60D3F85821002AFBD0242303FB09770F
:10BA000000237B61BDE8F0871020FBE71120F9E7F8
:10BA10002046F7E74C2C00201F288ABF094B4FF027
:10BA2000A04300F01F0003EB8000D0F8003723F4A0
:10BA30004033C0F80037D0F8003743EA0141C0F87E
:10BA400000177047000300500220FEF7CBBE000035
:10BA50002DE9F04780460D46FEF7F2FE0328044626
:10BA600010D8012D10D0022D30D05DB91A48FCF746
:10BA7000F4FB1A4B04EB440213449D78184B1B5DF6
:10BA8000AB4219D0BDE8F087144E00EB4003F2182A
:10BA9000F55C5378470053B1DFF84C900E484A46A6
:10BAA0004FF48041FCF7C1FB08B989F800802744B6
:10BAB0003E440B4BB2781A55002DE3D0094B1B685E
:10BAC000002BDFD02846BDE8F047184700EB4004C4
:10BAD000024804446578EFE7982C0020D82C002019
:10BAE000F12C0020EC2C0020702C0020007802218A
:10BAF000FFF7AEBF08B5094B1B7853B10020FEF726
:10BB00003FFE0120FEF73CFEBDE808400320FEF7A3
:10BB100037BEBDE80840FEF747BE00BF712C0020CD
:10BB2000F8B57A4C237805461BB100232370FFF744
:10BB3000E1FF172D00F28780DFE805F00C171742B0
:10BB40005364757F878C878C949999999999C3C808
:10BB5000D0D8E3E3FFF7CEFF6D48FCF77EFB6D4BDB
:10BB6000002204461A702046F8BD0020FEF7E0FDD2
:10BB7000F0B10020FEF704FE022D0CBF4FF4E1648B
:10BB80004FF47A64634B1D7000254FF400464FF468
:10BB90007A7029464FF4FA620023E4FB060104F0B0
:10BBA000FDFF2A460146BDE8F8405948FCF73DBB79
:10BBB000FEF7D2FD022D0CBFC8244FF4C874E1E794
:10BBC0000020FEF7B5FD40B10020FEF7D9FD4FF48F
:10BBD0004874504B03221A70D6E7FEF7BDFDC82407
:10BBE000F7E70020FEF7A4FD38B10020FEF7C8FDFE
:10BBF0004FF47A64474B0422EDE7FEF7ADFD4FF4B6
:10BC0000C874F7E70020FEF793FD48B10020FEF767
:10BC1000B7FD404B05221A7040F6CD410022C2E725
:10BC2000FEF79AFDF5E70020FEF7DCFD394B062212
:10BC30001A70002240F26661B5E70020FEF78CFD25
:10BC4000344B07221A7000248DE701202070FEF784
:10BC5000C9FDEEE701202070FEF7C4FD00224FF47D
:10BC60000051A0E7FEF7AFFD2A4B0C22EAE72A4875
:10BC70002A4EFCF7F2FAD5F1110504461CD0D8B9CA
:10BC8000012D13D0C820454321464FF400474FF4FF
:10BC90007A704FF4FA620023C5FB070104F07EFFBF
:10BCA000224601461C48FCF7C0FA04460220FEF773
:10BCB00053FD0123337056E70220FEF761FD002398
:10BCC000F8E7FFF717FF134B1222BBE7FFF712FF4E
:10BCD0000020FEF741FD0F4B1322B3E7FFF70AFFE9
:10BCE0000120FEF739FD0B4B1422ABE7FFF702FFF3
:10BCF0000020FEF731FD0120FEF72EFD054B152239
:10BD0000A0E7FEF760FD034B1D709CE7E82C0020C8
:10BD1000B82C0020F02C0020782C0020712C002062
:10BD2000044B1B68DB0703D5034B1878FFF7F8BEFD
:10BD3000704700BFE42C0020F02C0020032801D81D
:10BD4000FEF76ABD00207047044B1B6813F0010327
:10BD500001D0FFF7E5BE1846704700BFE42C002075
:10BD600038B51C4B18601C4B10F0020405461960D6
:10BD70001AD01A4B1A480E221A700F22DA701022AB
:10BD80009A7111225A72042140F23332FCF7E4F81E
:10BD9000044648B9FCF738F9044628B90146114A67
:10BDA0001148FCF737FA0446EB0711D50120FEF7DE
:10BDB0005FFD6CB921460D4A0D48FCF72BFA04468D
:10BDC00030B9BDE838400B4A0B480121FCF722BAD4
:10BDD000204638BDE42C0020EC2C0020D82C00207C
:10BDE00030190300EDBA02005419030021BD02000E
:10BDF0005819030049BA020050190300032811D84A
:10BE0000012A0AD101290FD100F10E02D2B20D4B45
:10BE100000EB40001A54002070470129F7D0022996
:10BE200004D049B1072070470022F8E7054B00EB2A
:10BE3000400018444270EEE7024B00EB400018440B
:10BE40008270E8E7D82C0020032808B506D8FEF752
:10BE500009FD0321FFF7E0FD002008BD0620FCE7F7
:10BE600008B5012202210020FFF7C8FF08B107280A
:10BE700010D1072202210120FFF7C0FF08B10728D7
:10BE800008D100210A220846FFF7B8FF10B10728A1
:10BE900008BF002008BD00000388102B10B502D099
:10BEA000112B1ED010BD1A4C2168B1B901220846D1
:10BEB000FFF7A4FF08B1072824D10722022101209F
:10BEC000FFF79CFF08B107281CD1042202210020A3
:10BED000FFF794FF08B1072814D1236801332360CA
:10BEE000E0E70B4A1368013B1360002BDAD1FFF740
:10BEF000B7FF0028D6D0074B1B68002BD2D0BDE877
:10BF000010401847034B1B68002BE6D09847E4E726
:10BF1000FC2C0020F82C002008B50020FFF794FF2F
:10BF200008B1062806D10120FFF78EFF10B10628C0
:10BF300008BF002008BD00000D4B10B518600C466E
:10BF400029B10120FFF7FAFE40B102232370094B0B
:10BF50001B6853B9BDE81040FFF782BFFFF7EEFE44
:10BF600008B10B23F2E72070F1E7002010BD00BFFD
:10BF7000F82C0020FC2C002076DF70477ADF704719
:10BF80007CDF70478FDF704733DF7047FCF752B8B4
:10BF900008B50020FFF7D8FE08B1FCF74BF8FFF713
:10BFA000BBFF08B1FCF746F8FFF7EEFF18B1BDE89C
:10BFB0000840FCF73FB808BD0388212B13B50446A1
:10BFC00039D005D8102B19D0112B0AD002B010BDD2
:10BFD0003B2B01D0562BF9D1A0881321FFF7CCFFC2
:10BFE00022E01C4B1C481D49C01AC008000440F048
:10BFF000030002B0BDE81040FBF722BD154B164808
:10C000001749C01AC008000440F00300FBF718FDF0
:10C010000720FFF799FE08B1FCF70CF8114BA18837
:10C020001148198002F044F90028CFD002B0BDE8D1
:10C030001040FBF7FFBF002380888DF8043001A972
:10C040008DF80530FFF79EFF0028BFD0FBF7F2FF09
:10C05000BCE700BF380F0300600F03005C1903004A
:10C060006A190300A02200204831002008B5037897
:10C070004BB9054B3B211888FFF77EFF18B1BDE88F
:10C080000840FBF7D7BF08BDA0220020072808B54D
:10C0900013D00A280DD0042819D10D4B132118886C
:10C0A000FFF76AFF30F0080311D0BDE80840FBF746
:10C0B000C1BFBDE80840FFF76BBF054B1A884FF6BC
:10C0C000FF739A4203D1034800F0BFFDEAE708BDC1
:10C0D000A0220020002D002008B598B1032815D11A
:10C0E0000B4B0C480C49C01AC008000440F0030078
:10C0F000FBF7A6FC0220FFF727FE38B1BDE8084099
:10C10000FBF798BFBDE80840FFF742BF08BD00BF7E
:10C11000380F0300600F03007519030008B50548C8
:10C12000032100F04AFC18B1BDE80840FBF782BFCC
:10C1300008BD00BF002D002010B5044603F0E8FB49
:10C14000204603F0C3F923780C2B03D1BDE810403F
:10C15000FFF7E4BF10BDFBF76DBF000000B54FF463
:10C160008041AFB00020FBF7D1FA08B1FBF762FFC6
:10C17000FBF70AFAFCF71CF808B1FBF75BFF7949FB
:10C180000320FFF7EDFD08B1FBF754FF03A90020E2
:10C19000FFF7D2FE08B1FBF74DFF9DF80C40FEF70C
:10C1A00015F908B1FBF746FF04F00CFB08B1FBF7EB
:10C1B00041FF002303A90120039304F0CFFB08B142
:10C1C000FBF738FF03A804F07BFC08B1FBF732FF54
:10C1D000112365488DF8083004F038FE624982B2B8
:10C1E00002A8FFF7CDFE08B1FBF724FF08220021CB
:10C1F00003A804F0F8FD5023ADF80C30A023ADF8EF
:10C200000E300023ADF8103003A84FF4C873ADF81A
:10C210001230FFF7B3FE08B1FBF70CFF53480021C3
:10C2200001F034FF08B1FBF705FFAC22002103A8A1
:10C2300004F0D9FD02238DF80C3040F201634C4A22
:10C24000ADF80E300123ADF81C3008928DF888301F
:10C250004FF4967244F25063CDE925234548464B8E
:10C260002C9303A900F032FB08B1FBF7E3FE414831
:10C27000012100F028FB414B4148039303A902F040
:10C2800005F808B1FBF7D6FE1C22002103A804F034
:10C29000AAFD00234FF4A032CDE90332ADF81A30E5
:10C2A0004FF4F0228DF81C30364B05920893032290
:10C2B000354B8DF8182003A8099300F0E5FD08B16F
:10C2C000FBF7B8FE02F0C8FD08B1FBF7B3FE05228C
:10C2D000002103A804F087FD31238DF80C300723DB
:10C2E0008DF80D3010238DF80E309DF80F3023F0AF
:10C2F000030343F003038DF80F309DF8103023F053
:10C30000030343F0030303A88DF8103002F03EFE50
:10C3100008B1FBF78FFE1D4802F020FE08B1FBF7C5
:10C3200089FE1B4B1B481C49C01AC008000440F082
:10C3300003000190FBF784FB022C0FD117490198F1
:10C34000FBF77EFB02F04EFE08B1FBF773FEFBF736
:10C350002DFA0028FBD1FEF74FF8F8E7FFF7DEFED5
:10C36000F5E700BF8DC002008719030034310020BB
:10C370009C220020002D0020D9C002008DBF0200A9
:10C38000483100206DC0020057C1020039C10200CF
:10C39000380F0300600F030097190300B119030061
:10C3A0006DDF704779DF70477DDF704764DF70476E
:10C3B0002DE9F04F85B000250E9CBDF83CB0B4F8D7
:10C3C00000A00191074690461E46A9463A884A4574
:10C3D0000DDC45B12388013BA3EB0A039BB2FF2B85
:10C3E0003AD806F80A30002005B0BDE8F08F7A6828
:10C3F00052F82900039000220DF10B0103A8FFF76A
:10C40000D5FF0028F0D19DF80B20424521D122888C
:10C41000002D14BF0020022002EB08010144594501
:10C420001ADC3DB9013292B2019B2280B3542288BA
:10C430000132228022880DF10B01324403A8FFF75C
:10C44000B5FF0028D0D121889DF80B200A44228016
:10C45000012509F10109B9E70C20C5E72DE9F341F0
:10C46000089FBDF824801546CDE9007802220446D5
:10C470001E46FFF79DFF50B933461022294620463D
:10C48000CDE9087802B0BDE8F041FFF791BF02B0F6
:10C49000BDE8F0812DE9F04F00231788138090F854
:10C4A0002D3085B006460D46144653B3082F01D8EB
:10C4B0000C2027E102A8FFF773FF002840F022813B
:10C4C00023880822EA54238801339BB21B2223804D
:10C4D000EA542088013080B2208006220DF1090143
:10C4E000284404F057FC23889DF8082006339BB2AB
:10C4F00012F0FE0218BF01222380EA542388013380
:10C500002380B378FBB123880433BB42D0D802A880
:10C51000FFF748FF002840F0F58023880322EA5403
:10C52000238801339BB219222380EA542388BDF863
:10C53000082001339BB2E9182380EA54120A4A709A
:10C54000238802332380F2789AB12388D91CB94218
:10C55000AED80221E954238801339BB20121238004
:10C56000E95423880B449BB22380EA5423880B446C
:10C5700023807268AAB12388D91CB94298D80221B5
:10C5800092F90020E954238801339BB20A212380C9
:10C59000E954238801339BB22380EA542388013372
:10C5A00023803389002B40F0A180338A5BB1CDE931
:10C5B00000472B460722032106F11000FFF74EFF2C
:10C5C000002840F09F80338B5BB1CDE900472B46BC
:10C5D0001522142106F11800FFF740FF002840F053
:10C5E0009180326A002A40F09080D6F82480B8F119
:10C5F000000F30D0B8F804302188981C8A1C0244FF
:10C60000BA423FF655AFFE283FF652AF03336B54A4
:10C61000238801339BB2FF222380EA54238801330D
:10C620009BB22380B8F80020EA54E918120A4A7035
:10C630002088023080B22080B8F804205AB1D8F89F
:10C64000081000296BD0284404F0A4FB2388B8F814
:10C6500004201344238096F82C30002B40F098805F
:10C66000307800284ED03388012B58D0228802F130
:10C67000020CBC453FF61CAF012805D1737802338C
:10C6800013449F42FFF414AF023FBF1ABFB202A986
:10C6900005EB0C00ADF80870FFF786FE90BB317813
:10C6A000BDF80830022900F0B98072789A4202D3AE
:10C6B0009F4280F0B180012940F0B280974293B24E
:10C6C000C0F0AE80ADF808300821BDF80830FE2B70
:10C6D0003FF6EEAE22880133AB542288013292B28B
:10C6E0002280A9542288134423800BE0CDE900471F
:10C6F0002B460622022106F10800FFF7AFFE0028B4
:10C700003FF453AF05B0BDE8F08FB4F800C00CF1B2
:10C710000603BB423FF6CCAE1188052901D807209D
:10C72000F0E76FF4486E01EB0E039BB24FF27D3ED3
:10C730007345F4D95388052BF1D96FF44860181864
:10C7400080B27045EBD94FF6FF70814201D099421B
:10C75000E5D8052305F80C30238801339BB212215C
:10C760002380E954238801339BB223801188E95444
:10C77000E818090A4170238802339BB2238052884B
:10C78000EA54E918120A4A702388023323802CE7FE
:10C79000B36A002BC3D04FF000084FF00C0A4FF0E3
:10C7A000160BB16A5FFA88F20AFB02F201EB02098A
:10C7B000B9F80430981CFE283FF67AAE208803337F
:10C7C0002B54238801339BB2238005F803B02388C0
:10C7D00001339BB223808A5AEA54E918120A4A703C
:10C7E0002088023080B22080B9F804205AB1D9F8EC
:10C7F0000810002993D0284404F0CCFA2388B9F813
:10C8000004201344238096F82C2008F101085FFAD5
:10C8100088F39A42C5D823E7092156E79F42FBD205
:10C82000ADF8087050E730B5C8B1F2B10024651C0E
:10C830008D4206DA1588A54212D805196D789D42F9
:10C840000ED1A14211D9005D48B1013880B230B19A
:10C850000234A3B210FA84F4A14206DB138030BD87
:10C86000055D01352C44A4B2E1E70020F7E713B5DC
:10C8700013460022ADF806200DF106020446FFF72C
:10C88000D2FF10B1BDF80630E01802B010BD72DF63
:10C89000704773DF704774DF704738B50122044674
:10C8A0000D46B0F81414D0F81004FFF7E0FF00B103
:10C8B000057004F13C0204F5826104F15400BDE806
:10C8C0003840FFF7E4BF80F830107047F8B50446F1
:10C8D0000F4600296DD000286BD091F87A301BB13B
:10C8E00091F89830002B66D14FF0000C84F802C00C
:10C8F00007F178060FCE251D0FC50FCE0FC596E8A0
:10C90000070085E8070084F830C0D7F8A4306363D7
:10C91000D7F8A830A3634FF6FF7504F58263C4F817
:10C920002034A4F824540722614604F2264004F07F
:10C930005AFA23780BB984F8545094F82430002B19
:10C9400014BFEE231F2304F15501C4F81014A4F8FA
:10C95000143404F214423846FFF79CFD40BB94F8AF
:10C960002430002B14BFEE231F2304F23121C4F81E
:10C970001814A4F81C3404F21C4207F13C00FFF721
:10C9800089FDA8B9A369A4F848304FF48073012544
:10C99000A4F8503063692064014684F83C50636415
:10C9A00004F13C0204F15400FFF771FF00B9257057
:10C9B000F8BD0E20FCE70720FAE7F8B50778044633
:10C9C0000D46002F00F00A8100F2264681700722F2
:10C9D0000021304604F007FAE38813B1A378012B55
:10C9E00004D0E3794BB1A378022B06D1636BABB1D2
:10C9F000012284F82D240820984704F2274304F2EA
:10CA00002D4113F8012B12B99942FAD117466B1E2A
:10CA1000032B57D8DFE803F0050B0F1284F82D34F1
:10CA2000EBE7A3791BB194F8243003B95FB9E3793C
:10CA30000BB1002F48D1237A002B47D1637A002B0A
:10CA40000CBF00250425636BA570002B40D0033D6F
:10CA5000012D3DD86279002A3AD094F82E24002A7C
:10CA600036D184F83024012284F82F2407209847F7
:10CA700004F13C0518220021284604F0B4F9E26ACA
:10CA80000123511E994284F83C3001D9042A00D177
:10CA9000D3B294F8242084F8513042B1A36A591ECD
:10CAA000012902D9042B18BF012384F85230A17840
:10CAB000002384F8503004291BD8DFE801F0770DFB
:10CAC000223559000025BEE70225BCE70325BAE759
:10CAD000002384F82F34CBE7C4E91063C4F8203472
