:1000000000000420750300005D0300005F03000092
:1000100061030000630300006503000000000000AE
:100020000000000000000000000000006703000066
:1000300069030000000000006B0300006D03000076
:100040006F0300006F030000410800006F03000011
:100050006F0300006F0300006F0300006F030000D8
:100060006F0300006F0300006F0300006F030000C8
:100070006F0300006F0300006F0300006F030000B8
:100080006F0300006F0300006F0300006F030000A8
:100090006F0300006F0300006F0300006F03000098
:1000A0006F0300006F0300006F0300006F03000088
:1000B0006F0300006F03000000000000000000005C
:1000C0006F0300006F0300006F0300006F03000068
:1000D0006F0300006F0300006F0300006F03000058
:1000E0006F0300006F0300006F03000000000000BA
:1000F000000000006F030000000000006F0300001C
:1001000000000000000000000000000000000000EF
:1001100000000000000000000000000000000000DF
:1001200000000000000000000000000000000000CF
:1001300000000000000000000000000000000000BF
:1001400000000000000000000000000000000000AF
:10015000000000000000000000000000000000009F
:10016000000000000000000000000000000000008F
:10017000000000000000000000000000000000007F
:10018000000000000000000000000000000000006F
:10019000000000000000000000000000000000005F
:1001A000000000000000000000000000000000004F
:1001B000000000000000000000000000000000003F
:1001C000000000000000000000000000000000002F
:1001D000000000000000000000000000000000001F
:1001E000000000000000000000000000000000000F
:1001F00000000000000000000000000000000000FF
:10020000354936480A1A02D0072291438D463449AF
:1002100034480A1A06D00722914381F30988022242
:1002200082F3148830483149314A00F044F83148AB
:100230003149324A00F03FF831483249324A00F041
:100240003AF832483249334A00F035F832483349F7
:10025000334A00F030F833483349344A00F02BF881
:1002600033483449344A00F026F8344834490022EF
:1002700000F02CF833483449002200F027F83348C6
:100280003349091A082902DB002202604160314A21
:1002900090471F481F49884205D00268043003B4C4
:1002A000904703BCF7E700208646EC46002000217B
:1002B000294A9047FEE7884207D0521A05D00378B2
:1002C00001300B700131013AF9D17047884202D0F8
:1002D00002700130FAE770470000042000E00320BC
:1002E0000000042000000420B81D000000000020D1
:1002F00018000020D0030000D0030000941C000070
:10030000B81D00000000002000000020941C000028
:10031000941C0000941C0000941C0000941C00001D
:10032000941C0000941C0000941C0000B71D0000E9
:10033000D01D000018000020180000201800002028
:10034000B8020020B8020020B8020020B802002045
:10035000B82200209D0300004D120000FEE7FEE7DA
:10036000FEE7FEE7FEE7FEE7FEE7FEE7FEE7FEE765
:1003700000F002B8FFF7FCBF0F484FF007018843B9
:1003800085460E4880470E48016841F470010160BF
:10039000BFF34F8FBFF36F8FFFF732BF09480A4992
:1003A0000A4A884207D0521A05D0037801300B70F0
:1003B0000131013AF9D170470000042055130000C3
:1003C00088ED00E0941C00000000002000000020E8
:1003D000074B1B5C1F2B86BF064903F01F034FF022
:1003E000A041012202FA03F3C1F80835704700BFAB
:1003F000941C00000003005008B50020FFF7E8FF40
:100400000120FFF7E5FF0220FFF7E2FFBDE808400B
:100410000320FFF7DDBFC20710B504460CD54FF02F
:10042000A0430322C3F83427C3F83827C3F83C2776
:10043000C3F84027FFF7E0FFA3070AD54FF0A0431A
:100440000C22C3F82C27C3F83027C3F86027C3F861
:10045000642710BD1FB50021039001AA44F20100DA
:10046000CDE9011100F004F805B05DF804FB0000CF
:1004700072B6094BD3F8F020D20700D500BEBFF307
:100480004F8FD968054A01F4E0610A43DA60BFF38F
:100490004F8F00BFFDE700BF00ED00E00400FA054C
:1004A00049B152B1531E1A4007D182600160838066
:1004B000C260104670470E2070470920704710B583
:1004C0008468C2688388121B934208D3C2681340B1
:1004D0000268D154C3680133C360002010BD0420FA
:1004E000FCE78268C3689A420AD082688388134016
:1004F0000268D35C0B70836801338360002070470F
:10050000052070470648074A03780749D35C012253
:1005100013B1043000F024BE0C3000F0CDBB00BF9E
:100520000000002058000020400000200648074A34
:1005300003780749D35C012213B1043000F0C2BD37
:100540000C3000F069BB00BF000000205800002004
:100550004100002037B50578012D0DD0022D30D097
:1005600075B91F491F48FFF7BCFF002834D103B0FD
:10057000BDE83040FFF7DABF037A1BB9FFF7C2FFCF
:1005800003B030BD4368184C19782046FFF797FF39
:1005900080B18DF800500190144B68461B68984755
:1005A000A168E368A2885B1A9A42E7D2104B012245
:1005B0001A70E5E7A268E3689A42F1D08DF800006E
:1005C000EAE7C3688DF800500193FFF79BFF074BE4
:1005D00068461B689847D3E703238DF80030F6E799
:1005E00041000020300000201C00002018000020E6
:1005F0002C000020F0B51F46234B89B004461A603A
:100600000D4600293DD08A8820480968FFF748FF39
:10061000002834D1AA89A9681D48FFF741FF0028A6
:100620002DD11C4E0FCE6D460FC596E80F0085E804
:100630000F0063690693237C174A18488DF81C70D5
:10064000003B18BF01238DF81430637C002B14BFCE
:100650000E2300238DF81530E3680293A3680393FB
:100660002368019369466368009300F0ABF830B9E2
:100670000B4B18702368013301D0FFF743FF09B01B
:10068000F0BD0720FBE700BF180000201C00002081
:1006900030000020981C00005505000000000020DC
:1006A0002C00002070B5084D014608482E78FFF751
:1006B00018FF044636B100232B70FFF723FF08B163
:1006C000FFF7C8FE204670BD2C0000201C00002053
:1006D00010B501460E48FFF7F2FE0446A8B90D48D2
:1006E0000D4A0378D35C63B1043000F0DFFC60B9DD
:1006F0000A490748FFF7F5FE38B9BDE81040FFF793
:1007000015BF0C3000F07CFAF1E7204610BD00BFA9
:100710003000002000000020580000204100002090
:1007200072B6024A13680133136070474400002018
:10073000034A1368013B136003B962B6704700BFF8
:1007400044000020FFF7ECBFFFF7F2BF10B50446EE
:10075000C0B2FFF7BDFF204610BD00001FB50378F3
:100760008DF800304368019383688DF80830C368C2
:10077000054A0393054B684653F8213052F821107F
:10078000984705B05DF804FB4800002050000020A9
:100790001FB503788DF800304368019383688DF8A6
:1007A0000830C368054A0393054B684653F8213067
:1007B00052F82110984705B05DF804FB480000206E
:1007C00050000020F0B5194B90F800C0DFF86CE045
:1007D00043F82C20164B16460A6943F82C204B7F11
:1007E0000EF80C300C4607460FCC89B06D460FC58D
:1007F00094E80F0085E80F003B78CDF810C01EF894
:1008000003304BB1002E0B4A694608BF3246381DF3
:1008100000F070FB09B0F0BD002E074A694608BF22
:10082000324607F10C0000F01BF9F3E750000020FE
:10083000480000205D0700009107000058000020DC
:10084000014B1B68184700BF5C00002038B50B4BFC
:1008500098420C4601D0002038BD0020FFF772FFFF
:10086000074B1D7915B901221C601A710020FFF792
:100870006BFF002DEFD01120EEE700BF00200040FD
:100880005C0000200023435082B043580193019B39
:1008900002B070470A4610B54FF48E71FFF7F2FFB1
:1008A000136A9168C95C136A01331362C0F81C159E
:1008B00010BD024608B500684FF49271FFF7E2FFE1
:1008C00010684FF48471FFF7DDFF136801221A608E
:1008D00008BD8B690A4610B54FF4847123B9FFF740
:1008E000D1FFD0F8183510BDFFF7CCFF536AD1689F
:1008F000D0F81805C854536A01335362F3E7000077
:100900001FB501238DF80030044BCDE90110D3E968
:1009100000126846904705B05DF804FB64000020B3
:1009200030B54D4DD5F804339A0585B051D5D5F87D
:100930002431002B4DD04FF492712846FFF7A2FFCF
:100940004FF40173C5F80833444B93F829200AB9D2
:1009500001226A60404902228DF80020D1F88024EB
:10096000C1F8802403929A690292DA680192002207
:10097000C3E906226846D3E9001290473648D0F80A
:100980001C315BB1354A5169136A99424DD992F8CD
:100990002830002B49D11146FFF77CFF2E48D0F8B4
:1009A0004431002B56D04FF4A271FFF76BFF2B4B55
:1009B00093F829200AB1012202609A69002A49D0DD
:1009C000586AD96800229A6105B0BDE83040FFF747
:1009D00097BFD5F804335B07D0D5D5F80831002B85
:1009E000CCD01E4C1C482146FFF773FF636AA269F6
:1009F0009A42C3D1E369E1684BB1A3612369E36023
:100A00000023606AE3616362FFF77AFFB6E794F858
:100A100029300BB901236B600F4B4FF40172C3F8FF
:100A200008230023606AA361EEE70B484FF48E7140
:100A3000FFF728FF5369002BB0D0516902910023C2
:100A400091688DF80030019153616846D2E9001336
:100A50009847A3E705B030BD0020004064000020A7
:100A60002DE9F843604D90F804802C2303FB0853D4
:100A7000064693F82A300C469146002B40F0AF8092
:100A80005A490068FFF7E2FE0746002840F0A980B7
:100A90002268531C10D01F2A87BF554902F01F033C
:100AA00013464FF0A0410120984003F5E073C1F8D0
:100AB0000805032041F823006168481C0DD01F2958
:100AC0008BBF01F01F030B4649484FF0A04003F5D0
:100AD000E0734FF0000C40F823C03068A369C0F801
:100AE000243594F814C0637DBCF1010F4CEA030374
:100AF000C0F86C35C0F81415C0F80C252BD1A368CC
:100B0000591C0DD01F2B8BBF03F01F021A4638490A
:100B10004FF0A04102F5E0724FF0000C41F822C006
:100B2000E1684A1C13D01F2987BF314A01F01F0C0E
:100B30008C464FF0A0424FF0010E0EFA0CFE0CF561
:100B4000E07CC2F808E54FF0030E42F82CE0C0F854
:100B50000815C0F810352C2202FB08F2AB18C3F8B8
:100B600004902369AB50B9F1000F20D04FF48E717F
:100B7000247FFFF787FE4FF4A2713068FFF782FEF3
:100B800032681C4BC2F80433130B42F30732610185
:100B9000002AC9B21EDB1848841884F8001301210A
:100BA000520903F01F0301FA03F340F822303368BF
:100BB0000422C3F800252C2303FB08530022C3E9B9
:100BC000062283F829205A61012283F82A20384618
:100BD000BDE8F883094A03F00F03D154E7E708277B
:100BE000F5E71127F3E700BF6400002021090000AA
:100BF000000300508000020000E100E014ED00E07E
:100C00000279044B2C2101FB02335869003818BFCC
:100C100001207047640000202DE9F84F064690F847
:100C2000048089469246FFF7EBFF044600283CD13A
:100C3000204F2C2508FB057B4FF48E71CBF814A0B8
:100C4000CBF80890CBF820008BF828003068FFF72D
:100C500019FE3068012383605946FFF71BFEDBF85D
:100C600004305D461BBB3068DBF814402B6A9C42A5
:100C700011D83368D3F81C21002AFBD00122DA6096
:100C800000202C2303FB087700237B61BDE8F88F4D
:100C900095F828303BB9D0F81C31002BF8D05946D4
:100CA000FFF7F8FDE2E70F20EBE71120EEE7204623
:100CB000ECE700BF640000202DE9F0473A4D0779CA
:100CC0002C2303FB075306465C6824B103684FF4EA
:100CD0000170C3F808032C2303FB0753986950B134
:100CE000D869002841D024B133684FF40172C3F8A9
:100CF0000423112436E09A61D9605862D8612C230C
:100D000003FB075393F829301BB910B93046FFF79E
:100D1000D0FD4FF02C0808FB075A3068DAF8043091
:100D2000002B37D14FF4A271D046FFF7ABFD3068EE
:100D3000D0F82491D0F80831D0F84441CBB914B997
:100D4000B9F1000FF3D02C2303FB07550023AB614F
:100D5000B9F1000F24D12CBB95F82910336801227A
:100D6000B1B11A602046BDE8F0871961DA6101204F
:100D7000C5E7B9F1000FE6D1002CE4D14146FFF7F9
:100D8000A8FDDAF82430DAF818209A42CFD8DAE74A
:100D90005A60E7E74FF40173C0F804330024E1E739
:100DA0000324DFE70F24DDE7640000200023435025
:100DB00082B043580193019B02B070471FB50123D5
:100DC0008DF80030044BCDE90110D3E900126846DC
:100DD000904705B05DF804FB900000207FB5434AC2
:100DE000D2F82461002E60D010464FF49271FFF7C4
:100DF000DDFF02238DF80030D2F88034C2F8803451
:100E00000393D2F83C350293394BDA680192002201
:100E1000C3E906226846D3E9001290473348D0F868
:100E2000443173B14FF4A271FFF7C0FF304B9A69A0
:100E30003AB10022C3E90622D968D0F83C05FFF791
:100E4000BDFF2A48D0F82031ABB14FF49071FFF7C5
:100E5000ADFF0123C360264B5A6962B1D0F84C152F
:100E60000291002299688DF8002001915A6168462C
:100E7000D3E9001290471D48D0F858319BB14FF488
:100E8000AC71FFF793FF1A4B5A6962B1D0F84C1559
:100E90000291002299688DF8002001915A616846FC
:100EA000D3E90012904704B070BDD2F81031002B86
:100EB000B4D04FF488711046FFF778FF0C4BD2F88E
:100EC0003C0599698842A9D1DC69D96864B1D2F836
:100ED000005225F02005C2F800521A699C61DA60C0
:100EE000DE61FFF76BFF99E79C61FAE700200040A5
:100EF000900000202DE9F843664E90F804802423EA
:100F000003FB0863044693F820300D469146002BFE
:100F100040F0BC8060490068FFF798FC0746002855
:100F200040F0B68029684B1C10D01F2987BF5B4A50
:100F300001F01F030B464FF0A0420120984003F53B
:100F4000E073C2F80805032042F823006A68501CC9
:100F50000DD01F2A8BBF02F01F0313464F484FF0DE
:100F6000A04003F5E0734FF0000C40F823C0206868
:100F7000AB69C0F8243595F814C06B7DBCF1010F46
:100F80004CEA0303C0F86C35C0F80C15C0F8142502
:100F90002BD1AB68591C0DD01F2B8BBF03F01F0248
:100FA0001A463E494FF0A04102F5E0724FF0000CA6
:100FB00041F822C0E9684A1C13D01F2987BF374A6D
:100FC00001F01F0C8C464FF0A0424FF0010E0EFABC
:100FD0000CFE0CF5E07CC2F808E54FF0030E42F879
:100FE0002CE0C0F80815C0F81035242202FB08F2E6
:100FF000B318C3F804902B69B350B9F1000F2FD088
:101000004FF488712A7FFFF7D1FE20684FF490716A
:10101000FFF7CCFE20684FF49271FFF7C7FE2068FF
:101020004FF4A271FFF7C2FE4FF4AC712068FFF7D6
:10103000BDFE23681A49C3F80413190B43F30733A1
:101040005201002BD2B21CDB1648C51885F80023CC
:1010500001225B0901F01F0102FA01F140F823109F
:1010600023680822C3F80025242303FB0866002315
:10107000C6E906337361012386F820303846BDE89F
:10108000F883094B01F00F015A54E9E70827F5E707
:101090001127F3E790000020DD0D00000003005051
:1010A0001003420000E100E014ED00E00279044B7F
:1010B000242101FB02335869003818BF0120704712
:1010C0009000002001F06043B3F1005F2DE9F0478C
:1010D0000646884692463BD190F80490FFF7E6FF1B
:1010E0000446002836D11D4F3068242505FB0975BC
:1010F0004FF49071C5F814A0C5F80880FFF756FEAC
:101100004FF4AC713068FFF751FE33686A69A96823
:10111000C3F84415C3F8482501229A606A68DAB911
:10112000D3F82021D3F858011AB90028F8D00F209D
:1011300007E00028FBD10122DA60D3F85821002A09
:10114000FBD0242303FB097700237B61BDE8F087F4
:101150001020FBE71120F9E72046F7E79000002078
:10116000F8B501F06043B3F1005F04460F465ED16D
:101170000379304D242101FB0351496821B10068F6
:101180004FF40476C0F80863242000FB03539E69E3
:1011900056B1D869002839D021B123684FF40472C0
:1011A000C3F80423112030E09A61DF60DE6120681B
:1011B0004FF48871FFF7FAFD20684FF4A271FFF732
:1011C000F5FD2368C3F83475C3F8382516BB012232
:1011D0001A602479242202FB045252680ABBD3F815
:1011E0001011D3F84421D3F82401114302D100286F
:1011F000F5D00A46242303FB04550023984218BF68
:1012000003209A42AB6118BF0F20F8BD1F61DA615D
:101210000126CCE7D3F8002242F02002C3F80022D6
:10122000D7E74FF40472C3F804230020EDE7102041
:10123000EBE700BF900000200378022B02D140684A
:10124000FFF708B9012BFAD07047000030B5284DE0
:101250008FB00120FFF7DFF80FCD01AC0FC495E888
:101260000300244B244A07934FF4807384E803005F
:10127000CDE909230893214A072307A901A8FFF70D
:10128000B9F908B1FFF7E6F81D4800F083F91D48E9
:1012900000F080F91C4800F07DF91C4800F07AF954
:1012A00007AD00240DF10300FFF7FCF90028F9D188
:1012B00001349DF8033005F8013B1A2CF2D1144893
:1012C00000F068F9134807A900F064F90DF1030074
:1012D000FFF7E8F90028F9D19DF8033003F0DF03A8
:1012E000512B03D10C4800F055F9FEE70FB030BD8B
:1012F000741D0000B4000020B40100203912000069
:10130000B81C0000D21C0000EE1C0000151D0000DF
:10131000321D0000621D0000671D00004FF0805369
:10132000D3F83001A0F1080358425841704700003B
:101330004FF08053D3F83021082A06D1D3F8343146
:10134000032B02D8024AD05C70470020704700BFD0
:101350008C1D000008B5FFF7E1FF40B14FF080435E
:101360000022C3F80C21C3F81021C3F83825FFF779
:10137000D5FF002846D04FF08052614BD2F80414BC
:10138000C3F82015D2F80814C3F82415D2F80C14A9
:10139000C3F82815D2F81014C3F82C15D2F8141479
:1013A000C3F83015D2F81814C3F83415D2F81C1449
:1013B000C3F84015D2F82014C3F84415D2F8241409
:1013C000C3F84815D2F82814C3F84C15D2F82C14D9
:1013D000C3F85015D2F83014C3F85415D2F83414A9
:1013E000C3F86015D2F83814C3F86415D2F83C1469
:1013F000C3F86815D2F84014C3F86C15D2F8442429
:10140000C3F87025FFF794FF18B13E4B3E4AC3F86E
:101410008C26FFF78DFF18B13C4BFB22C3F8182533
:10142000FFF786FF70B14FF080414FF08053D1F845
:10143000E42ED3F8583222F00F0203F00F031343C7
:10144000C1F8E43EFFF774FF20B1314B4FF4007256
:10145000C3F84026FFF762FF48B14FF08043D3F84E
:101460000024D20744BF6FF00102C3F80024294AC8
:10147000D2F8883043F47003C2F88830BFF34F8F3E
:10148000BFF36F8F4FF01023D3F80022002A03DB45
:10149000D3F80432002B2EDA1F4B0122C3F80425A7
:1014A000D3F80024002AFBD04FF010221221C2F8FA
:1014B0000012D3F80024002AFBD04FF01023122290
:1014C000C3F80422144BD3F80024002AFBD00022D6
:1014D000C3F80425D3F80024002AFBD0BFF34F8FB4
:1014E0000C490E4BCA6802F4E0621343CB60BFF3B1
:1014F0004F8F00BFFDE70A4B0A4A1A6008BD00BFC4
:1015000000C00040005000404881030000F000404F
:101510000090024000ED00E000E001400400FA0508
:10152000140000200090D00310B504460846A268BD
:101530004AB12368616803F1010C8C4508BF0020A3
:101540008B4208D2D054E3682BB121686268914283
:1015500001D22146984723680133236010BD70B53E
:101560004C1E09D41646C5B229463046FFF7DCFFAB
:10157000013CB4F1FF3FF7D170BD10F0100F08D15E
:1015800008B510F4007F14BF30202020FFF7E7FFDC
:1015900008BD70470FB410B586B008AB53F8044BC4
:1015A0000593002303936FF000430293084B0493C9
:1015B00000F06EFB059A214601A800F04DF80446A4
:1015C00000F067FB204606B0BDE8104004B070474D
:1015D0004D070000037853B159B10144034613F895
:1015E000012F12B18B42FAD10B46181A70470346ED
:1015F000FBE70346F9E700F1010110F0030F11D0FA
:1016000010F8012B002A23D010F0030F0AD010F895
:10161000012B002A1CD010F0030F03D010F8012B6F
:10162000002A15D02DE970004FF001324FF08033C1
:1016300050F8044BA4EB020525EA04051D4000D137
:10164000F6E7A0F1040070BC10F8012B002AFBD1D2
:10165000A0EB0100704700002DE9F04F89B007466C
:101660000392002303600C4614F8011B002900F0CC
:10167000FC82DFF818B5EBE2002507E05E2868D1B0
:1016800045F4805501E045F040051C46234613F81B
:10169000010B3028F2D81F2837D9A0F12002102AD8
:1016A00033D801A151F822F0871600000B17000073
:1016B0000B170000ED1600000B1700000B170000C1
:1016C0000B170000F31600000B1700000B170000AB
:1016D0000B170000F91600000B170000FF160000A2
:1016E0000B1700000B1700000517000045F08005E0
:1016F000CBE745F40045C8E745F02005C5E745F0D0
:101700001005C2E745F40075BFE72A2821D1039AE6
:10171000111D0391D2F800A0BAF1000FBCBFCAF1AD
:10172000000A45F010051878A31C2AEAEA7A2E2848
:1017300026D00021742847D07A2845D06C2800F0A4
:10174000A8804C2800F0AB80682800F0B8801C46C8
:101750003DE0A0F13002D2B2092A88BF4FF0000A62
:10176000E3D84FF0000A0AEB8A0A303800EB4A0A45
:1017700013F8010BA0F13002D2B2092AF3D9D4E751
:1017800018782A280AD1039A111D039111685878F4
:1017900002330029CEDB45F48075CBE70133A0F19D
:1017A0003002D2B2092A88BF0021F4D8002101EB0F
:1017B0008101303800EB410113F8010BA0F1300238
:1017C000D2B2092AF3D9E4E71C4614F8010B002829
:1017D00000F05782A0F12503DBB2532B62D8A0F1B1
:1017E0002503532B5ED8DFE813F076005D005D0023
:1017F0005D005D005D005D005D005D005D005D0001
:101800005D005D005D005D005D005D005D005D00F0
:101810005D005D005D005D005D005D005D005D00E0
:101820005D005D005D005D005D005D005D005D00D0
:101830005D005D005D005D005D005D005D005D00C0
:101840005D005D005D005D005D005D005D005D00B0
:10185000EC005D005D005D005D005D005D005D0011
:101860005D005D005D007B0021015D005D005D00AD
:101870005D0021015D005D005D005D0095000F01D0
:10188000D2005D005D00A6005D001A015D005D00F4
:10189000EE001C4614F8010B45F0010597E745F0F2
:1018A00001051C46B54B1E68002E00F0CE8103AB2F
:1018B0000193009153462A463946B047C5E118784E
:1018C000682803D05C1C45F0040580E745F0080556
:1018D0009C1C58787BE725213846FFF725FEB4E1AC
:1018E000039B1A1D03921E780AF1FF3A3A465146AD
:1018F0002846FFF742FE31463846FFF715FEA94657
:1019000019F0100F00F0A1813A4651462020FFF750
:1019100026FE9AE115F0080F06D03A68039B191DC0
:1019200003911B681A7090E1039B1A1D03921B68B8
:101930003A681A6089E1039B1A1D0392D3F800806C
:101940008F4BB8F1000F08BF9846464625F4007942
:1019500015F4807F16D04046FFF73CFE0546AAEB03
:10196000050A3A4651464846FFF707FE002DC7D004
:1019700016F8011B3846FFF7D7FDA8EB0603EB422C
:10198000F6D1BDE74046FFF736FE0546E7E7039B85
:101990001A1D03921B6815F0800F0CBF002623262A
:1019A00045F4807508211A46002B00F02A8105AB0A
:1019B0004FF0000805F4005CA64660468C460146E0
:1019C000D2E045F4005515F0800F1BD043F27806A5
:1019D00043F25803782818BF1E4615F4807F01D0C3
:1019E00025F4007515F4804F32D0039B1A1D039225
:1019F0001B6815F0040F1FD01BB2002B20DA5B42CE
:101A00002D262DE00026E8E715F0800F0CBF0026FC
:101A1000302615F4807FE5D025F40075E2E715F453
:101A2000807F07D025F400750026DBE745F480456C
:101A30000026D7E70026D5E715F0080FDDD0DBB28A
:101A400015F0200F61D115F0400F18BF202607E0D8
:101A5000039B1A1D03921B6815F0040F50D09BB214
:101A600015F4807F14BF25F4007501215838202813
:101A700000F2AF8001A252F820F000BFA7190000C9
:101A8000D31B0000D31B0000D31B0000D31B00009E
:101A9000D31B0000D31B0000D31B0000D31B00008E
:101AA000D31B0000D31B0000D31B0000371B00001A
:101AB000D31B0000D31B0000D31B0000D31B00006E
:101AC000371B0000D31B0000D31B0000D31B0000FA
:101AD000D31B0000D31B00000F1B0000A719000040
:101AE000D31B0000D31B0000D31B0000D31B00003E
:101AF000371B0000D31B0000D31B0000A7190000F8
:101B000015F0080FACD0DBB2AAE72B26A8E71A46DF
:101B10004FF00008002B5ED005A84FF0000803F03E
:101B20000703303300F8013B08F10108D2081346DF
:101B3000002AF4D14FE018464FF00008002B4AD09D
:101B40004FF0000805F4004E4FF02C0973468E4606
:101B500019462FE002F00F000A4C205C03F8010B3D
:101B600008F10108120906D00029F3D002F00F0095
:101B7000054C205CF2E7744661462CE0B40200207C
:101B8000B01D0000901D0000A01D0000CDCCCCCCED
:101B900008AB03EB080CABFB0032D20802EB82036C
:101BA000A0EB430330330CF80C3C08F10108092882
:101BB0000DD910460029EBD008F00303032BE7D121
:101BC00008AB434403F80C9C08F10108E0E77146B8
:101BD00001E04FF00008A1EB080121EAE179AAEB4E
:101BE000090AAAEB080AFF2E0ED9AAF1020AC6F3C7
:101BF00007213846FFF798FCF1B23846FFF794FC0E
:101C000004E04FF00008E6E7002E3DD13A46514689
:101C10002846FFF7B2FC3A4649463020FFF79FFCC2
:101C2000B8F1000F0EDD0DF1140908F1FF38C844BA
:101C300098F8001046463846FFF776FCC14508F193
:101C4000FF38F5D115F0100F09D114F8011B61B15F
:101C500025293FF411AD3846FFF766FCF5E73A4613
:101C600051462020FFF77BFCEFE7BB682BB13A68B9
:101C700079688A423CBF00219954386809B0BDE8B0
:101C8000F08F4FF0FF30F9E70AF1FF3AB4E700BFF9
:041C900070477047E2
:101C94000D0E0F10FFFFFFFFFFFFFFFFFFFFFFFF12
:101CA400FFFFFFFF00000000000000000000D6015D
:101CB400060100000D0A55415254206578616D708B
:101CC4006C6520737461727465642E0D0A00456E30
:101CD400746572207468652047505320636F6F7277
:101CE40064696E617465730D0A00416E20657861E4
:101CF4006D706C65206F662074686520657870650A
:101D04006374656420666F726D61742069730D0A73
:101D1400003539B032342734302E35224E2C20325F
:101D240034B034342733312E3322450D0A000D0AE2
:101D3400596F75206861766520656E746572656497
:101D44002074686520666F6C6C6F77696E672063BA
:101D54006F6F7264696E617465733A0D0A0025735E
:101D64000D0A00200D0A45786974210D0A0000004F
:101D74000800000006000000050000000700000045
:101D84000000000000E0D7010100000030313233D0
:101D940034353637383961626364656630313233DD
:101DA400343536373839414243444546286E756CDC
:031DB4006C290097
:101DB800000000000020004000000000002000405B
:081DC800000000000090D003B0
:040000030000037581
:00000001FF
